:020000040000FA
:1000000038480020C15A0000D3690000AD5A0000F2
:10001000AD5A0000AD5A0000AD5A0000AD5A0000C4
:10002000000000000000000000000000215B000054
:10003000AD5A000000000000AD5A0000AD5A0000AB
:10004000810800008108000081080000810800008C
:10005000810800008108000081080000810800007C
:10006000810800008108000081080000810800006C
:10007000810800008108000081080000810800005C
:10008000810800008108000081080000810800004C
:10009000810800008108000081080000810800003C
:1000A000810800008108000081080000810800002C
:1000B000810800008108000081080000810800001C
:1000C000810800008108000081080000810800000C
:1000D00081080000810800008108000081080000FC
:1000E00081080000810800008108000081080000EC
:1000F00081080000810800008108000081080000DC
:1001000081080000810800008108000081080000CB
:1001100081080000810800008108000081080000BB
:1001200081080000810800008108000081080000AB
:10013000810800008108000081080000810800009B
:10014000810800008108000081080000810800008B
:10015000810800008108000081080000810800007B
:10016000C519000081080000810800008108000016
:10017000810800008108000081080000810800005B
:10018000810800008108000081080000810800004B
:10019000810800008108000081080000810800003B
:1001A000810800008108000081080000810800002B
:1001B000810800008108000081080000810800001B
:1001C000810800008108000081080000810800000B
:1001D00081080000810800008108000081080000FB
:1001E00081080000810800008108000081080000EB
:1001F00081080000810800008108000081080000DB
:1002000081080000810800008108000081080000CA
:1002100081080000810800008108000081080000BA
:1002200081080000810800008108000081080000AA
:10023000810800008108000081080000810800009A
:10024000810800008108000081080000810800008A
:10025000810800008108000081080000810800007A
:10026000810800008108000081080000810800006A
:10027000810800008108000081080000810800005A
:10028000810800008108000081080000810800004A
:10029000810800008108000081080000810800003A
:1002A000810800008108000081080000810800002A
:1002B000810800008108000081080000810800001A
:1002C000810800008108000081080000810800000A
:1002D00081080000810800008108000081080000FA
:1002E00081080000810800008108000081080000EA
:1002F00081080000810800008108000081080000DA
:1003000081080000810800008108000081080000C9
:1003100081080000810800008108000081080000B9
:1003200081080000810800008108000081080000A9
:100330008108000081080000810800008108000099
:100340008108000081080000810800008108000089
:1003500081080000810800000D0D000081080000E8
:100360008108000081080000810800008108000069
:100370008108000081080000810800008108000059
:100380008108000081080000810800008108000049
:100390008108000081080000810800008108000039
:1003A0008108000081080000810800008108000029
:1003B0008108000081080000810800008108000019
:1003C0008108000081080000810800008108000009
:1003D00081080000810800008108000081080000F9
:1003E00081080000810800008108000081080000E9
:1003F00081080000810800008108000081080000D9
:1004000081080000810800008108000081080000C8
:1004100081080000810800008108000081080000B8
:1004200081080000810800008108000081080000A8
:100430008108000081080000810800008108000098
:100440008108000081080000810800008108000088
:100450008108000081080000810800008108000078
:100460008108000081080000810800008108000068
:10047000810800008108000081080000036803F083
:100480001F025F2B02604FEA53129ABF024B53F8D0
:1004900022000020704700BFA889000007B5019026
:1004A00001A8FFF7EBFF019B00EB8300D0F8802051
:1004B000044B134043F00203C0F8803003B05DF8F2
:1004C00004FB00BFF0F0FCFF014B1B68184700BFA6
:1004D0004C0200202DE9F047058B044628071746FB
:1004E0000CD501290CBF45F0100545F020052583EA
:1004F00087F31188BFF36F8FBDE8F087022905F0FD
:10050000070540F09480204605F0C7FC052864D814
:1005100001A353F820F000BFF10400002F060000F3
:10052000DB0500009D050000B7050000C9050000BF
:1005300001F007035A1F012A1FD8002221F00701EA
:10054000062BD4F8008089B2C4E9002209D14346C1
:1005500003E0628B013262831B68002BF9D141F00A
:1005600002012046218305F098FC4FF00009002885
:100570006DD041F02001218369E0042B0AD121F0E4
:10058000070189B22046218305F087FC10B141F0B4
:10059000200121834FF00008C14658E02369D3F8B9
:1005A0000090238B23F0070343F006034FF000086D
:1005B000238346464BE02369D3F80490238B23F032
:1005C000070343F00403F1E72369D3F80890238B72
:1005D00023F0070343F00503E8E74FF00008C146A6
:1005E000E7E7012243F00803238387F31188BFF371
:1005F0006F8F002A3BD1B8F1000F4AD1B9F1000F3B
:1006000002D020462C49C847EFF31187202383F3FB
:100610001288BFF36F8F238B23F008039BB22383D1
:10062000D9063FD523F01002228303F0070566693F
:10063000218B002EBFF67CAF00239946D4F80080B2
:1006400021F00701C4E9003341F001012183238B2C
:1006500003F0070AAA4502D0A268002AC1D1B8F166
:10066000000F02D1B9F1000FDAD00022BAE7A16879
:100670000029C0D00D680029BDD03346524620461F
:100680004F68B8471DB12B6829461D46F3E72B4636
:10069000FAE74146334652462046D8F8008005F036
:1006A000EBFBA8E79A067FF523AF23F02002228315
:1006B00003F0070527E700BFD35E000010B51B4B12
:1006C000986A9C6A10F0100F14BF1120102014F0CB
:1006D000080F9C6A18BF1220A40709D5586B986AA6
:1006E000000604D519B1996A21F08001996213209E
:1006F0000E4B996A11F0010F996A18BF142011F07E
:10070000200F996A18BF1520CC0658BF9B6A074B6B
:10071000996A890642BF596A21F400515962996A5F
:1007200041F0FF0199620023137010BD00ED00E05D
:1007300010B5184B986A9C6A10F4805F14BF17209C
:10074000162014F4006F9C6A18BF1820A40509D560
:10075000986B986A000404D519B1996A21F4004194
:10076000996219200B4B996A11F4806F996A18BF2E
:100770001A20C9050CD49B6A13F4005F18BF1C2013
:1007800004498B6A43F47F438B620023137010BDCE
:100790001B20F5E700ED00E0154B9A6A12F0007F90
:1007A0009A6A14BF1E201D2012F0807F9A6A18BF1B
:1007B0001F2012F4801F9A6A18BF022012F4002F23
:1007C0009A6A18BF212012F4802F9A6A18BF22203B
:1007D00012F4003F9A6A18BF232012F4803F9A6AED
:1007E00018BF24206FEA02426FEA12429A627047F1
:1007F00000ED00E0002318460649D1F89020C2F32E
:100800000722934200DB7047C1F89830C1F8A0007E
:100810000133F6E700ED00E0002807DB0123410982
:10082000034A00F01F00834042F82130704700BFA8
:1008300000E100E000280CDB01220649430900F03A
:100840001F008240203341F82320BFF34F8FBFF3B6
:100850006F8F704700E100E00028ACBF00F16040FE
:10086000064B4FEA4111C9B2ABBF00F5614000F041
:100870000F0080F800131954704700BF14ED00E01A
:10088000EFF30583034A103B02EBC301496852F8BA
:10089000330008478092000030B50F4AD2F89030FC
:1008A000C3F30723013B984213D80C7A0B6864F317
:1008B00004031D46CB68640923F01F0343EA440385
:1008C00043F00103C2F89800C2F89C50C2F8A0306F
:1008D00030BD6FF01500FBE700ED00E0254B264A28
:1008E0004FF47A611A600122244B2548C3F804248E
:1008F000D0F82436C3F30802C3F309434B4382F410
:1009000080722049883201FB02334FF4FA215B00E8
:10091000B3FBF1F201FB12331B49B3F57A3F28BF59
:100920000132C1F80429D0F820364FF47A60C3F3BD
:100930000802C3F30943434342F21C5082F480721D
:1009400002F2172200FB02334FF47A701B0AB3FB4A
:10095000F0F200FB12330020B3F5FA7F4FF00103F1
:1009600028BF0132C1F81C27C1F80009C1F80036C0
:10097000704700BF480200200020A107002008E0C7
:1009800000C0FF00F82A008000001250084B70B52C
:10099000C31A0D4607499B10044659434022064896
:1009A00005F0FBFA2B4601462046BDE8704018478B
:1009B00090160020B76DDBB6D0710000402373B5F0
:1009C0000B4C0093041B0B460D460A49A4106143CF
:1009D0000646094A094805F00CFB014628B1304695
:1009E0002B4602B0BDE87040184702B070BD00BF92
:1009F00090160020B76DDBB665600000D071000076
:100A0000014B1B68184700BF8016002070B50221FB
:100A1000044640F20510FFF71FFF1D4B1A79002A0C
:100A20002FD11C4A1A6001221A711B4B197941BB44
:100A30001A491A7119601A4B197911BB19481A71A0
:100A40001860194BC3F84014184B1B6A9B0603D45B
:100A500040F20510FFF7E0FE2369ABB11C22002134
:100A6000184606F03AFB01251C22114E056406616A
:100A700024690021A01806F030FB0020E662E5643E
:100A800070BD6FF00400FBE76FF01500F8E700BFE2
:100A900080160020A916000088160020010A000018
:100AA000E41600207760000000E0105000E100E054
:100AB000908900000A2810B5044603D10D2104488E
:100AC00000F01CFD0248E1B200F018FD204610BD08
:100AD000407200000023024A0020C1E90023704751
:100AE00000D017000048704788890000024B0B6057
:100AF00001231360704700BF80890000024B034A46
:100B00000020C3F80C25704700B00450800000801E
:100B10004209022A034670B503D0012A18D0CAB18F
:100B200070BD0E4E326951680029F9D0012503F0DD
:100B30001F030C689D400029F2D08A682A4002D029
:100B400030464B6898473CB1236821461C46F2E783
:100B5000034EE7E7034EE5E72346F6E70872000099
:100B6000EC710000247200002DE9F74F4368027A0F
:100B700003EBC2029A4204D86FF0010003B0BDE853
:100B8000F08F5C798C4200F0B4800833F2E7D8F83B
:100B90000020C2F3C323082BC2F3080100F2A68091
:100BA0005848C55C40F2FF13994208BF4FF0FF312F
:100BB000B2F1D05F4FEA126310D2192B12D8DFE8DE
:100BC00003F014233734282F34111111111111118E
:100BD00011111111111111113A484B4E382B41D0FE
:100BE0004E2B25D06FF08500C8E7C4F804164B1CC7
:100BF00029D001A80191FFF741FC019B4FF00109A9
:100C000007FA03F343604EE0C4F80C164FF0000AF5
:100C100039E04FF00009C4F800164A1C13D03AE03E
:100C20004FF00109C4F80416F7E7C4F80816EDE719
:100C3000C4F81016DBE7C4F86015B8F802304A1C97
:100C400003F0010323D108F1040846459FD1002099
:100C500094E7C4F86415F0E7C4F86815EDE7C4F844
:100C60006C15EAE701A80191FFF708FC4FF0010AB3
:100C7000019B00EB8300D0F8803023F0E04343F089
:100C80008043C0F88030481CDDD0D1460DE0002BF9
:100C9000AFD14FF0010901A80191FFF7EFFB019BD4
:100CA00007FA03F383604FF0010AD8F800B001A8F7
:100CB0001BF4004F1CBF4FF001094FF0000A0191D7
:100CC000FFF7DCFB019B104900EB8300D0F880208C
:100CD000CBF3412B2B0243EA8B0343EA0A03114077
:100CE0000B4343EA4903C0F88030ACE76FF01500CE
:100CF00044E7D3F800801E790127046808EB8606D4
:100D0000A3E700BFC08B0000F0F0FCFF684620F0B6
:100D100007018D4601B5034BBDE80140D3F83031E2
:100D20008546704700600C5038B505460221C62044
:100D3000FFF792FDC620FFF76FFD6C680121E068A8
:100D4000FFF712FF6B6819686369C1F82435E28BFD
:100D5000A38BA07E1343228C1343628C1343627EC9
:100D60009BB20243207E02431343C1F86C3569688D
:100D70000B68D3F8002242F48022C3F80022082234
:100D8000C3F800254A6A0121C3F83C270022C3F8B2
:100D900040271965D3F830110029FBD0C3F800258E
:100DA0002846BDE83840014905F067B96B6100008D
:100DB000F0B5816885B01039054621F00F0405F0C3
:100DC000ACF86A460A4B03F11007164618685968D2
:100DD000083303C6BB423246F7D110236A46214688
:100DE000284605F084F8003818BF012005B0F0BD92
:100DF000EC890000064BD3F840231C2A05D1D3F818
:100E00004403431E5842584170470020704700BFBA
:100E100000C0FF0003689A070CD50368DB070DD5F7
:100E20000922074BC3F80C250F22C3F80425012221
:100E30001A60FEE7034B0360EF3B0360704700BF9F
:100E400000801050F000FA50034A4309D35C00F0D0
:100E50001F001844C0B27047B08B0000F0B50646C2
:100E6000002487B0114F019117F8012B06AB03EB5B
:100E7000D20313F8143C02F00702D34013F001032D
:100E800006D10134032CEFD10023184607B0F0BD82
:100E9000074A03AD07CA85E8070055F824100A6A17
:100EA00046F824200A62002AEBD0EEE7C98B000046
:100EB000F0720000124B70B553F82050013053F817
:100EC0002060AE4200D870BD6C68B4B1237EDB07F1
:100ED00011D4636953B12046984738B10028B8BF90
:100EE0004042FF28A8BFFF20E3681870E2685378EB
:100EF00043F0010353700835E3E72B689847FAE79E
:100F00001C7600000B4B1A689A420FD072B1D2E9DE
:100F100004321B1A62EBE072B3F1004F72F1000170
:100F200004DA002AACBF1846002070476FF000407A
:100F3000704700BF3802002001680E4A0346914204
:100F400015D1C169A2F11022A2F1EF1291420ED186
:100F50008268012A0BD8C26812B101698A4206D0A0
:100F6000586928B19B691B1A5842584170470120A3
:100F7000704700BF55AA00FF70B50E4B9E68B6B112
:100F80003046FFF7D9FF044618B9F3687BB93569D5
:100F90000DB9204670BD2846FFF7CEFF28B9EB6893
:100FA000B34204D12E462D69F2E70446F1E701244D
:100FB000EFE700BF5416002010B50A46044619B1E9
:100FC000044B00211B689847034B2046BDE81040A6
:100FD0001B6818476C890000240200200022074B80
:100FE000C3F81021C3F80C21C3F80021C3F8042171
:100FF000C3F80821C3F81421704700BF0050045003
:10100000C36870B57BB9C36900F128021A60C3696F
:10101000474A9A604368C269DB6843F48063D360DF
:10102000C3691033C361836A9B0532D40368C26805
:10103000DD6800F1EC04302D34BF08261026082EA0
:101040000CBF092611261D696B1E1340EB1AB34213
:1010500038BF5B191C44D50004F8015C03F1EB04B4
:101060005209044400F1ED05A5425CD1802280F8CC
:10107000EC20426AC469C4322260C2699360446849
:10108000C269E468D460C2691032C26102691A445C
:1010900002610269C469D31C23F003039B1A54F84C
:1010A000042C42EA032244F8042CC26952F8084C8A
:1010B000234443F0005342F8083C026A0368DB68AB
:1010C00011600168026AC96803339160026A23F003
:1010D000030302F1100101620168C96899420BD053
:1010E000002111610168026AC9685B1A43F08043FC
:1010F0009360036A10330362836A13F4806311D12F
:1011000002685169D26891420CD0026A1360026889
:10111000016A5369D2689B1A43F080438B60036A6B
:101120001033036270BD04F8012D120A9CE700BF62
:1011300004000020B1F5DE7F03461DD3026810686D
:1011400010F040001BD10F49596012680E499A6295
:1011500003F12C021A6203F128025A62DA671322A1
:10116000C3E9211203F18C02DA61084AC3E90300E2
:101170005A6101229A6070476FF0220070476FF049
:1011800002007047007600000400002001100000FB
:1011900010B5154BD86C28BB1A684FF0010C91693B
:1011A0000824C1F30B02482A1A6528BF482211F40B
:1011B000003F5A6508BF00229A65CA0358BFC3E9B9
:1011C000140001F47002B2F5700F08BF586D0029C9
:1011D000B8BF0022C3E918C4B8BFC3E9182201226E
:1011E0005865DA64014810BD1C1300206813002004
:1011F0002DE9F041038803F44F44B4F5824F02D047
:10120000B4F5884F22D1DEB2C56803F4E0401F4B2D
:1012100000241F4693F800C0B4451BD1D2F800E06B
:10122000B0F5804F0CBFD3F80CC0D3F808C0D3F88A
:101230000480BEF1000F0BD18C4509D1C2F80080AB
:101240008C450DD06FF08600BDE8F0810026DBE70D
:10125000F045F5D00134132C03F11403DAD1F1E792
:10126000142303FB04773B7C13B96FF08500EBE795
:10127000422E09D1064B9D4206D003F20B139D422C
:1012800002D00A339D42DDD10020DDE76474000006
:10129000000800062DE9F047454BDFF818C193F828
:1012A00008E0DFF814910CEB0E0191F8545043491B
:1012B000D9E90032D1E900418A4208BFA34205F1D1
:1012C0000C054FEA0E1120D1B0F1806F1DDA4001FC
:1012D000012838BF01201B1842F10002C9E9003281
:1012E0005CF835300CEBC50462681B184CF83530DF
:1012F00001F1A04342F1000240F0004003F56223F7
:101300006260C3F82805BDE8F0872D4E2D4FD6E961
:101310000048D7E90067A41948EB07084FF0200AF6
:1013200026464746E0FB0A67B34272EB0700C9E96D
:10133000006731D21B1B62EB0802C82B72F100025E
:10134000B4BF012300230CEBC5024CF83560576095
:10135000C7F3130213B301F1A04303F56223C3F8EB
:101360002065C3F82425184B4FEA8E0E73441A6883
:10137000002AC8D04FF0FF346FF04042134DD5E93A
:101380000001844272EB010CF9D3B04271EB070704
:10139000B9D200221A60B6E70023D4E701F1A043D6
:1013A00003F56223C3F82065C3F82425ABE700BF2B
:1013B0002C020020A000002070020020C8020020A3
:1013C000D0020020C002002000210E5040270E5005
:1013D0002DE9F84F3B4D1C46D5E90006111A63EB89
:1013E00006074B09202143EAC763E3FB0106C5E971
:1013F000000635480025C0E900240024334AC2E92C
:101400000045EFF3118581F31288BFF36F8FDFF88A
:10141000C0A00126DAF800004FF00047504508BF91
:101420000020DFF8B090DFF8B080C9F800304FEA54
:10143000E37ED8E900C150B1D0E9044BA3427EEB72
:101440000B0217DAE21A6BEB0E04C0E90424002049
:1014500013EB0C0341EB0E01C8E90031C9F80000A1
:10146000FFF750FDFFF716FF85F31188BFF36F8F6D
:10147000BDE8F88F14EB0C0341EBE471C8E90031CF
:10148000D0E9003213605A600023C0E90467C0E964
:10149000003385F31188BFF36F8F83689847EFF3AC
:1014A0001185202383F31288BFF36F8FD9F80030A2
:1014B000DAF800001B1B504508BF0020C9F80030B7
:1014C000B5E700BFD0020020C8020020C002002003
:1014D000380200207C160020B8020020044B186857
:1014E000044BB0FBF3F0044B43F00103184700BF7B
:1014F0004802002040420F00007300002DE9F04137
:1015000004460D464768EFF305838BB12021EFF3C6
:1015100011831A4681F31288BFF36F8F60680068E9
:10152000D0F83001A8B983F31188BFF36F8FEEE7CD
:101530001C4B1B78002BE9D04FF020086426636811
:101540001B68D3F83031D3B9FFF7C8FF013EF6D19D
:10155000F4E77B6A00201D706368796A1B68C3F832
:101560003C170121C3F84017C3F83001D3F830010C
:10157000196582F31188BFF36F8FBDE8F081EFF337
:1015800011831A4688F31288BFF36F8F6168096868
:10159000D1F830110029DCD183F31188BFF36F8FAC
:1015A000CCE700BF3220002038B504230A4C42F2B9
:1015B0001075C4F80833012363610023C4F80831AF
:1015C000D4F80831D4F84C34DB0303D5FFF786FF99
:1015D000013DF7D138BD00BF00E0105010B51D4BE4
:1015E0001D4CD3F84C14D3F84C2411F4803F19D07F
:1015F00002F00302012A01D08AB90022154BC3F878
:1016000040240022C3F80821D3F8082101221A61DE
:1016100022688AB9D3F80821002AFBD014E0FFF72A
:10162000C3FFEAE7D3F84824D107E6D5D3F850241E
:101630009207F4D422681AB10422C3F8042310BD1F
:10164000D3F80821002AFBD00022C3F80821D3F8E0
:101650000831F4E700E01050E41600200C22104B93
:10166000014602FB0033002030B4D3E90E529863E8
:10167000EFF31180202484F31288BFF36F8F1C6C6A
:1016800004F0C00444F002041C6480F31188BFF32A
:101690006F8F1DB12B4630BC0248184730BC7047D5
:1016A00090160020D0710000022808D0042808D12C
:1016B000044B186C10F0070003D1FFF7CFBF0120D7
:1016C000FBE77047901600202DE9F0414768064679
:1016D000BD6885B395F874406CBB4622214605F180
:1016E000140095F8758005F0F8FC21461A4A2B681D
:1016F00052F838C08C4524D14FF0000840F20D1448
:10170000C3F84481D3F84421144A934214BF2046BD
:10171000DB20FFF781F8012385F874302B66BB6866
:101720000F4A0221DB20C3E90328FFF795F80221C5
:101730002046FFF791F83046BDE8F041094904F032
:101740009CBCCAB2920002F58070442A04BF1C50AF
:101750001A580131CEE700BF7089000000A00D507B
:10176000110B0000575E00000022144B10B51A60E8
:10177000134B144A00211A60134B144A1A60144B7D
:1017800013F003020FBF4FF4006402F2FC74C2F1C5
:1017900004029B181846224605F09FFC0D4A0E498C
:1017A000C2E900040160A1F11021203CA1F1EF1178
:1017B00090604460C161D060002010BD64160020BC
:1017C00028020020991D000024020020851E000030
:1017D000321800205416002055AA00FF031E70B5D1
:1017E000144629DB164DAB4226D8C3F5BE1303F5CC
:1017F00080539A4220D8CAB142F20103114DC5F874
:101800000035A9B105F08BFCBFF35F8FD5F8183414
:10181000DB0706D4C4F308041CB10123AB60BFF39B
:101820005F8F4FF40052074BC3F80025002070BDB6
:10183000FF2105F052FCE7E76FF01500F7E700BF66
:10184000FFCF170000B0045010B50C1E10461A460A
:101850000CDB084B9C4209D8C4F5BE1404F5805437
:10186000A24203D805F05BFC002010BD6FF015000C
:10187000FBE700BFFFCF170010B4EFF31180202269
:1018800082F31288BFF36F8F2B490B6843F0020479
:1018900013F001030C6017D0284BD3F80C3413F469
:1018A000803311D0EFF3118182F31288BFF36F8F71
:1018B000234A136C03F0C00343F00203136481F363
:1018C0001188BFF36F8F012380F31188BFF36F8FEF
:1018D0001BB1002010BCFFF7C1BE184AC2F810317E
:1018E000D2F81011C2F81831D2F81811C2F8143118
:1018F000D2F81431134BD3F840331C2B04BF01230F
:1019000093600023C2F80031D2F800310123136044
:101910000D4B1B6853B9094BD3F80021002AFBD0AB
:101920000022C3F80021D3F8003102E07123C2F88D
:10193000043310BC704700BFE016002000E01050D8
:101940009016002000C0FF008816002070B5EFF34D
:101950001185202383F31288BFF36F8F154A136814
:1019600023F00201116013F001021BD17121124B0F
:1019700042F21074C3F8081301215960C3F8002122
:10198000D3F800210D4A0C4ED2F840231C2A08BF80
:10199000D960D6F80C3413F4803308D0FFF79EFDDD
:1019A000013CF6D185F31188BFF36F8F70BD044AF7
:1019B0005371F7E7E016002000E0105000C0FF0070
:1019C00088160020684620F007018D4601B5194BA6
:1019D000D3F80021DAB1BFF35F8F4FF0A3418A6AD9
:1019E000BFF35F8FBFF35F8F4FF0FF300863BFF32C
:1019F0005F8F0021C3F80011D3F800310E4B196836
:101A000019680A431A60BDE8014085467047D3F85B
:101A100008110029F7D00220084909688860C3F836
:101A20000821D3F80831064B1A681A6842F00102FF
:101A3000E8E700BF00800450DC0200201C130020F7
:101A4000D802002038B5084B5A78D20709D51C783F
:101A50003CB9064D284604F085F82046044B1D602D
:101A600038BD6FF01200FBE766020020B50A0000E7
:101A70004C0200202DE9F04F804658F804BB90F846
:101A80007540DBF814136A4BC9B253F8342007468B
:101A90008BB0584641F4003104F0B3FB8203054695
:101AA00039D50023CDE907330993614BE60003EBF9
:101AB000C404636807A819460093FFF7CFF9331DE4
:101AC00003934FF0000A5B4B0DF11C090293029A3D
:101AD000574912F8013B0292039A02EBD3028A5C47
:101AE00003F0070322FA03F3DB071AD40AF1010A11
:101AF000BAF1030F09F10409E9D14FF400310022D2
:101B0000584604F07EFB009907A8FFF7A7F90028C4
:101B1000D7D125F400350124002D73D10BB0BDE8D9
:101B2000F08F454B53440493D9F80060002EDDD06C
:101B300096FAA6F6B6FA86F6049B1C7846EA441492
:101B40002046FFF781F907EB4000818AF208C1F3D4
:101B5000820305930193012319F8020006F007069A
:101B600003FA06F620EA060009F8020006A8069421
:101B7000FEF784FC069A11F0100F02F1200250F8D3
:101B80002260059BC6F3014623D04046019A2146B8
:101B900004F0E9FB06A80694FEF770FC069BF6B27B
:101BA000203350F82330C3F301439E4207D1002174
:101BB000204604F04DFB3146204604F049FB06A8C0
:101BC0000694FEF75BFC0122069B02FA03F3036214
:101BD000AAE7022E14BF022103212046059304F038
:101BE00037FB059B032B03D0022E07D1012BE6D137
:101BF00021464046019A04F0B6FBE0E7032EDED111
:101C0000022BF4E795FAA5F3B3FA83F304FA03F28F
:101C100025EA020503F5A2725BF8222007EB4303D5
:101C20004046B3F86410C2F3014204F09CFB73E732
:101C300070890000C98B0000C98B00000121F8B534
:101C40004E4BD3E8EF2FC3E8E01F0028F9D1002A5C
:101C50003ED14B4B996099685A6001F0030101290C
:101C6000DA6035D1DA609A68032A31D8EFF311844B
:101C7000202282F31288BFF36F8F4FF6FF75414920
:101C8000888E00F00702C88EA84235D0062A33D8C5
:101C9000DFE802F012320432123212000123013066
:101CA000C88684F31188BFF36F8F8BB1002334494A
:101CB000354804F0E1F80BE000201860086AC0B96C
:101CC000C1E90733C2B9224602212F48FEF702FCC0
:101CD000EFF3058292B1EFF31181202383F3128891
:101CE000BFF36F8F0122002601252027274B284CA8
:101CF0002EE003600B62E5E70023D2E7254B1B785B
:101D0000002BE8D00421214BC3F808131146EAE761
:101D100072B686F31188BFF36F8FBFF34F8F20BF6A
:101D200081F31188BFF36F8F62B6D3F8400410F0CF
:101D3000FF000DD1D3F808C1BCF1000F08D0C3F8E3
:101D40000801D3F80801C3F84054C4F8A0711D611C
:101D5000D3F84CC4D3F84C041CF4803FD8D000F026
:101D600003000128D4D12AB181F31188BFF36F8F0A
:101D70000020F8BD0422C3F80423F9E778160020F8
:101D80006816002090160020AC16002000E01050CD
:101D900000E100E032200020F8B5374A1368D3B1E3
:101DA0009368C3B1002865D0002963D001FB00F41B
:101DB000B4FBF0F088425DD1201D5BD8A1070CD0A8
:101DC00024F003000430D36803E05D68854206D246
:101DD0009B69002BF9D11846F8BD2046F3E7D3F8EC
:101DE00008C0BCF1000F02D0012005F0A5F92D1AA2
:101DF000232D03F120061CD801219960D3E90501A8
:101E0000A8B18161996909B1586948610021C3E9A4
:101E100005111369DB0703D5FFF7AEF80028E3D1FE
:101E200022460021304605F058F90346D3E7D16039
:101E3000E8E700F12007D919203DC1E9015CCB603A
:101E40001D69DFF838C00D6143F807C00C4FCF6142
:101E500005B1E9605D694D619F698F6145B1A96117
:101E60008D6905B1696101251961C3E90105CDE7F6
:101E7000D160F5E70023AEE75416002055AA00FF15
:101E8000669911EE70B50546002860D03B4E336868
:101E9000002B5CD0B268002A59D0834203D8726804
:101EA0001344984202D3012005F046F9A0F1200422
:101EB0002046FFF741F80028F5D155F8183C012BD2
:101EC000F1D155F8143C45F8180CC3B19A68002AB2
:101ED0003ED155F81C2C02F120015A680A445A6080
:101EE00055E905321A6155F8145C2B6903B1DD60C0
:101EF00020462022002105F0F0F823462C462069D8
:101F0000002832D08268002A2FD1636842682033CB
:101F10001344636003692361D4E90523D2B903BB89
:101F2000436963618269A261EBB19C61A36903B1FA
:101F30005C61236903B1DC602022002105F0CDF84B
:101F400033699B0703D5FFF717F80028ABD170BDA5
:101F50000346D4E79361A369002BE1D062695A611B
:101F6000DEE7F360F7E7F460E0E7002BE8D1F36821
:101F7000A36103B15C61F460E2E700BF5416002086
:101F800038B50A4D04462B682BB98021084803F068
:101F9000BDFC40B920230020054A013B52F8232014
:101FA0002B60226038BD0220FCE700BF90070020B4
:101FB00010070020F7B50221E420FEF74DFC884B06
:101FC000884CD3F8182722F44032C3F81827227817
:101FD000002A73D1D3F8101521F00201C3F81015AF
:101FE000D3F8101541F00101C3F810150521C3F80D
:101FF000A4160421C3F8AC160723672101F00100E1
:102000000244013BD2B24FEA5101F7D1052A59D11E
:1020100019464FF0010C734E00256720CFB204E043
:102020000CFA02F220EA0200013590FAA0F25FFAFF
:1020300085FE7745B2FA82F2F2D801313275052970
:10204000224482F8547006F10C06E5D101210025E6
:1020500065489A0801FA02F212F0670F18BF1D5086
:102060000433302BF5D1E420FEF7D6FB5C4B5F49FF
:10207000D3F8102503F5C07322F00202C3F89023B1
:1020800040F6FF72C3F8A82100221A60A3F5807001
:1020900004338B420260F8D10127514D544E2F6614
:1020A0003068544BB0FBF3F05D235843524B3B4335
:1020B00098472770D5F81035980706D56FF0770048
:1020C00003B0F0BD6FF08B00FAE7D5F8103543F0A0
:1020D0000203C5F81035D5F8482712F0010202BFF7
:1020E000D5F8483743F00103C5F848373C4BD3F8DF
:1020F0004017D3F844174900F9D42AB9D3F8482730
:1021000022F00102C3F848273A4A3368B3FBF2F3DE
:10211000334A03EB4313002B5BD0D2F84017D2F8BD
:10212000445715F080454FD14FF0FF330193EFF343
:102130001186202383F31288BFF36F8F019B62689F
:1021400001A81340019304F0DAF900283EDB0122D4
:102150006368824023EA02036360284B18722846B2
:1021600086F31188BFF36F8F002835D1234BA16808
:102170001A7A012393401943A1604FF0FF356FF0A5
:102180004041DFF87CC0DCE90067B54271EB070E27
:10219000F9D31C4926F01F05C1E900574FF0FF365F
:1021A0004FF0FF370C251849C1E90067A11891F8D5
:1021B000541005FB014415492275E1600021084ACD
:1021C0002161C2F824337BE7013BA4E76FF00B00E9
:1021D000C6E76FF0730073E76FF00B0070E700BFA6
:1021E00000200E50A000002000210E50B0210E5003
:1021F0004802002040420F00307300002C020020F3
:1022000040270E50D0020020C8020020D113000049
:102210002DE9F04FD50640F2063548BF4FF00309CF
:10222000D0F8048002EA050598F8103058BFC2F3D0
:10223000401989B001F01F06B5F5837F144646EAC0
:1022400043168DF80A9043D00DD8062D42D005D8FC
:10225000A5B1022D12D06FF0150036E0B5F5807FE4
:10226000F9D101250AE040F202239D4234D0B5F5B0
:10227000407F33D0B5F5007FEDD1042520032FD565
:102280000123D8F804208B405360D8F808707FBB36
:1022900005A80596FEF7F2F8059BC4F3004100EB94
:1022A0008300D0F8802081F00101C4F3404343EA69
:1022B000410322F4706243EA890322F00F0243EAE9
:1022C00005231343C0F88030002009B0BDE8F08F2B
:1022D0000925D3E70825D1E70625CFE70525CDE772
:1022E000620341BF0123D8F804208B409360CCE700
:1022F000314638460DF10B0204F022F814F440394F
:10230000019030D13046FEF79FFD07EB4004A38AD1
:10231000DB0719D5384603F0EDFF3146384603F0A8
:10232000AAFF40B1A28A3B68520B03EB8203C3F8B9
:102330001095C3F810953846314603F0B2FF0023DC
:102340003046A382FEF7AAF8019B002BBCD1D8F837
:1023500008309DF80B1093F87500314B03EB8000AB
:1023600003F036FFB0E7002303AACDE90623384681
:1023700005AACDE90333059304F0DBF80028A3D1C7
:1023800014F40033D8F808903BD03046FEF75CFDDB
:1023900004F4803B074684F48034314648469DF877
:1023A0000AA0C4F3004403F071FF20B9484603F0CB
:1023B00062FF002888D109EB4707BB8A03F01C03A2
:1023C0001BB1BBF1000F3FF47FAF05A80596FEF7E8
:1023D00055F8059B00EB8300D0F8803023F4706340
:1023E00023F00F0343EA8A0343EA440343EA052345
:1023F00043F00103C0F88030BB8A43F00303BB8283
:10240000A2E7CDE9063331460DF10A03484605AA95
:10241000059304F08EF800287FF456AF94E700BFD0
:10242000400200202DE9F041456801F01F04287C9E
:1024300088B044EA4014A868002800F0BB80B2F5D8
:10244000001F06D1214603F055FF002008B0BDE86B
:10245000F08168686E7CB2F5800F46624FF000062E
:1024600003A80396466065D1B3F1007F14BF05232E
:1024700004238DF80C300023CDE906030593EB68A7
:102480000DF10706CB4013F0010F5ED1B2F1A07F32
:102490005BD102A80294FDF7F1FF029B203350F8B4
:1024A0002330DA0751D4AF6832462146384603F06C
:1024B00047FF16300AD197F87500414B03EB8000B7
:1024C00004F01DF8002878DB8DF8070004962146FB
:1024D000A86805AA04F02DF80028B7D1AD682146F8
:1024E000284603F0C8FE80462046FEF7ADFC2F6864
:1024F00000F10806B8F1000F39D0284603F0C6FEF7
:10250000002834D105EB4606B3885B0B990001F532
:102510008072B850BA582A680A44D2F8101541F0AF
:102520000101C2F810150122296802FA03F3C1F86B
:1025300014338AE7B3F1C06F05D0B3F1007F14BF45
:102540000123022395E7032393E7AF683246214630
:10255000384603F0F5FE0028B9D197F87500184BFE
:102560009DF8071003EB800003F032FEAFE7D7F8C9
:10257000143305EB46059B035CBF4FF40033C7F8EB
:102580001433AB88C3F38203042B0FD0052B0FD079
:1025900002A80294FDF772FF029BC168D94001F0C6
:1025A00001010231204603F053FE4EE70321F9E713
:1025B0000221F7E76FF0850048E76FF00B0045E771
:1025C00040020020F8B50126324C334DD4F80C33CC
:1025D00003F0710343B901252E4C304ED4F80C336F
:1025E00003F00C035BBBF8BDB3FA83F30021C3F126
:1025F0001F039A0002F5807292B202F1A04202F526
:102600008712116006FA03F7042B1268D8B2C4F8D7
:10261000087308D0062B10D02B689847D4F80C33D9
:1026200003F07103D6E702236B71C4F81411D4F8D8
:1026300014312023C4F80433EEE76971ECE7B3FAF0
:1026400083F30027C3F11F039A0002F5807292B250
:1026500002F1A04202F58712176005FA03F1022B7E
:102660001268D8B2C4F8081310D1D4F84C34D4F896
:102670004C349B070AD10423C4F84054C4F80433F3
:102680002561D4F80C3303F00C03ABE733689847AB
:10269000F7E700BF00E0105088160020E416002085
:1026A000F7B5284B284CD3F82C6304F188070EB9F2
:1026B00003B0F0BD96FAA6F00123B0FA80F0834093
:1026C000DA43224926EA0306231893F8545083007C
:1026D00019440C2303FB0543DB6873B3D7E8EF3FD2
:1026E00003EA020CC7E8EECFBEF1000FF6D1C340FB
:1026F000DB0719D5020102F1A04202F56222D2F8ED
:102700002435D2F82025D1F800C0BCF1000FCED07E
:102710004FF0000CC1F800C00C2101FB05452969F0
:102720000091E9688847C2E705F10C0304EBC30C8C
:1027300054F83320DCF80430E5E70A68002AB6D004
:102740000B60B4E700200E50A000002000210E50C6
:10275000F0B5214C0546266A85B0F06804F027F8EC
:1027600040F216235843B3685030834201D204F03C
:10277000ACFC6A79E16D012A12BFB22200220F4639
:102780002C7918BF4A4304F1FF3401FB04342B6851
:10279000A4EB000418BF4F00013B1444F06807FB92
:1027A000034404F004F80746304603F0B6FB0F225A
:1027B00001460DF1010004F090FC2B796A468DF87A
:1027C000003021463B46304603F091FB003818BFED
:1027D000012005B0F0BD00BFB81200200FB430B525
:1027E00087B00AAC54F8045B01941022002102A8BF
:1027F00004F073FC02238DF80A30064B224629466A
:1028000002A8039303F0DAF907B0BDE8304004B042
:10281000704700BFC904000008B50548FFF7DEFF98
:102820000448FFF7DBFF0448FFF7D8FF002008BD8E
:10283000338C0000648C0000978C0000002210B5DF
:102840000C4B1C7884420FD00132042A03F1100390
:10285000F7D16FF0010010BDD2685078C00706D5DF
:10286000107820B90B60F6E7DA68002AF4D16FF02F
:102870001200F0E71874000030B50D46816887B08B
:10288000102302AA1039044604F037F8002802DAAF
:10289000012007B030BD1022204602A903F083FCBE
:1028A00000283FD11022204902A804F04CFC002847
:1028B0000CBF012302232B70A1680123203921F0D2
:1028C0000F0120460DF10702203904F016F8002808
:1028D000DEDB9DF80730204603F00F021B096A700B
:1028E0002B7101220DF1070103F05DFC10B96B782B
:1028F000042B03D901236B7000232B71A26820469F
:10290000203A22F00F02103AA91C04F018F800280F
:10291000BED1A2682046203A22F00F02E91C04F042
:102920000EF8B6E70323C6E7EC89000030B585B0A2
:102930006946012004F01FF8044610B1FF2005B0DD
:1029400030BD022002A904F016F8012808D1224661
:1029500049213048FFF742FF2F4B8DF80C4002937E
:1029600000229DF800109DF808002C4C2378042BC1
:1029700006D0052B2ED14B1E18BF0123002B38D0BB
:102980006378042B05D0052B2BD1431E18BF0123E0
:102990007BB3A378042B03D09DF803509D4228D12C
:1029A000E378042B03D09DF80B509D4221D123796D
:1029B000042B1AD16379023BDBB2022B25D9184BC9
:1029C000184800224921FFF709FF6079831E022B76
:1029D000B5D9B3E7A3EB010CDCF1000343EB0C0327
:1029E000CCE71D1A6B426B41D2E79DF802509D4225
:1029F000E0D00132032A04F10604B7D10A480022CC
:102A00004921FFF7EBFE012099E7084A52F82330ED
:102A1000D6E700BFD68C0000030103039B8B0000A8
:102A2000C48C0000218D0000458D0000587400000A
:102A30002DE9F0474FF02C0808FB00F8DFF8B490C0
:102A4000044609EB0806376A8A460FB904F03DFBD5
:102A5000454205F02C054D4404222946384603F032
:102A6000A2FB10B93069C3061BD5BCB1384602F0D1
:102A7000FBFF9AF80730042B0CD1D9F8200000286E
:102A8000E4D002F0F1FF024640B949211A48FFF7AD
:102A9000A5FE03E0FFF74AFF0428EED00120BDE8C1
:102AA000F087316A0029D1D059F80820134B9A4297
:102AB00004D0BCB9124A45211248E8E7F2683389CC
:102AC0009B18F6D27289D218F3D28B689A42F0D250
:102AD00040F60C631842ECD1284602F0C1FA0028F7
:102AE000DDD0E6E70023BA681946384603F065FEF4
:102AF000054AE0E7B81200207D8D00003DB8F3964E
:102B00006B8D0000BC8D0000738D00002C232DE91F
:102B1000F341204D0F4603FB0055D5F82080B8F156
:102B2000000F01D104F0D1FAEB682E8940461E4413
:102B3000042331460DEB030203F0DFFE044620B10F
:102B40000124204602B0BDE8F08146F60813BDF826
:102B500004206D899A421AD1BDF806309D4201D0F9
:102B60000324EEE7042340460DEB0302A91903F00A
:102B7000C4FE0028E4D146F60713BDF804209A42AB
:102B8000EED1BDF806302B4433443B60D9E7002D2D
:102B9000F1D0E5E7B81200202DE9F04706460F46D0
:102BA000904699460024DDF820A0A24501D80020D7
:102BB0000FE0AAEB0405B5F5806F28BF4FF48065E0
:102BC00030462B46094A04EB080103F096FE10B18B
:102BD0000120BDE8F0872B463846044A04EB090182
:102BE00003F085F90028F3D12C44DEE70C03002024
:102BF0001FB50A4B6A461C6A1023A168204610398B
:102C000003F07BFE034628B1227845210448FFF7F4
:102C1000E5FD0024204604B010BD00BFB81200201E
:102C2000E48D000000222DE9F04F8FB00446CDE97D
:102C3000082203F012F9DFF88081002840D05F4DB0
:102C4000D8F80030AB4206D1104609A9FFF75EFF65
:102C500008B104F03AFAD8F82C30AB4205D1012083
:102C600008A9FFF753FF0028F3D1DDE90835AB428F
:102C700084BF1D460993A5604FF0000949215048C3
:102C8000FFF7ACFDD8F824305F684B463B44AB42BD
:102C90004E4609F10109F9D3204603F0DEF8002879
:102CA00037D040F21622D8F85C30D8F82850534379
:102CB00000225033013D3A449A420ED2013DFAE7D8
:102CC000FFF796FF0028C4D004F1080103F02BFEA3
:102CD0000028BED1A5680995CEE74D4519D85721E2
:102CE0003848FFF77BFDB21C07FB05F357217A43F9
:102CF0003548FFF773FD0123E371344B1A68002A4E
:102D000003DD57213248FFF769FD00200FB0BDE811
:102D1000F08FD8F82050002D9BD0D8F84C60002EB2
:102D200097D063682B4A03F0FF2393423CD123687A
:102D3000012B39D130460AA9FFF79EFD002888D122
:102D40009DF82820012A35D0234B2449032A08BFA7
:102D50000B469DF82B20492102929DF82A202048FD
:102D600001929DF8292000921E4AFFF737FD9DF839
:102D70002830032B18D1304602F076FE00287FF46D
:102D800068AF304603F093FD00287FF462AF304611
:102D9000A16803F07DFD00287FF45BAF3046FEF7AD
:102DA00007F800287FF455AF6379012B40F0A48029
:102DB000CB469BE00C4BCCE7B81200203DB8F39615
:102DC0001F8E0000488E0000778E00000C07002048
:102DD000F98E0000000100041B8E0000158E00001B
:102DE000B88E0000A88E0000108E00002368C3F18A
:102DF00001024A445A4577D3D8F82420012B52F8CF
:102E00003B10D2F800A002EBCB0252F8082C049140
:102E1000A2EB0A02A1EB0A0105910692079342D1A7
:102E2000E268022A39D0284602F01EFE00287FF40C
:102E300010AFD8F84C000CA9FFF71EFD00287FF456
:102E400008AFE279012A11D00E2A3FF602AF8DF8C1
:102E50002820A9682846203921F00F01079B0AAADB
:102E6000203903F0E9FC00287FF4F3AE9DF83330FD
:102E7000012B05D1284603F01AFD00287FF4E9AEA6
:102E80002846A16803F004FD00287FF4E2AE28463E
:102E9000FDF78EFF00287FF4DCAE304602F0E4FD43
:102EA00000287FF4D6AEAB68059A9A42BFF4D1AE43
:102EB0009A44049BAAEB030A57453FF6CAAE134651
:102EC00029462846069A0097FFF766FE00287FF4F9
:102ED000C0AE2046FFF73CFC23680133236018B1E5
:102EE0003C4A1368013313600BF1FF3BBBF1000F49
:102EF0007FF47CAF0123236002234FF00108DFF849
:102F0000D8B06371C8453FF6F8AE236843455ED834
:102F1000DBF824204FEAC80352F83810083B079129
:102F2000DBF85010D2F800A0C85809680590069147
:102F300001460698091A04912179012945D1D158F1
:102F4000AA68A1EB0A039342BFF483AE5244521A1B
:102F500097423FF67EAE29463046049A0097FFF727
:102F60001BFE00287FF475AE2046FFF7F1FB02231D
:102F7000237118B1174A136801331360B368049AB8
:102F80009A42BFF466AE069A1A441346059A9B1AF3
:102F90009F423FF65EAE079A31462846049B009753
:102FA000A2EB0A02FFF7F8FD00287FF452AE20469C
:102FB000FFF7CEFB2368013323600123237130B177
:102FC000044A13680133136001E00229D6D008F1E6
:102FD000010897E70C070020B81200202DE9F743FD
:102FE000314E07460D460024B0464FF02C091DB166
:102FF000284602F032FF08B1224632E0FFF7F8FD22
:1030000030B901200CB1002F48D003B0BDE8F083E7
:1030100001A903F088FC03460028F2D1D8F8242047
:10302000019851681A460A44904203F10103FAD804
:103030006A79012A0CD1002CDED1286822469842F8
:1030400098BF214609FB0282106AA8B904F03DF836
:10305000022AD1D12A68012A05D99A42CCD884F013
:1030600001020021EEE7C7D124B12A79023A18BF44
:103070000122F6E72246E5E72023324603F03DFC35
:103080000028BED11DB13268084B9A4208D1631C9A
:10309000022B4FF0010406F12C06A8D10020B4E762
:1030A0004FF0FF30AEE700BFB81200203DB8F396F6
:1030B00001252DE98048A04B91B003201D70FDF73C
:1030C000F9FE0420FDF7F6FE49219C48FFF786FB38
:1030D00049219B48FFF782FB9A4C60220021204641
:1030E00003F0FBFF284604F12001FFF7A7FB0028AF
:1030F00040F0CD80022004F14C01FFF79FFB002837
:1031000040F0C580B226904A284602F5B2630CA969
:10311000626223650C9603F08EFFC8B1B22257217C
:103120008A48FFF75BFB01239D4284F8583021D188
:10313000844D95F858308DF83730013B042B00F260
:103140001582DFE813F0E201C301C301F8010F02A9
:103150000C9B0220226D0CA9A3620C9603F06BFF5E
:1031600008B10925DAE70C9B6365236AD86803F088
:103170001EFBE06500210846FFF730FF28B1002262
:1031800057217348FFF72AFB0AE0A66A656DAE4235
:103190000BD06B1C9E4208D057216E48FFF71EFBD8
:1031A0000122684B83F85820C2E7B22E71D8002361
:1031B0001F46626A216D043204319D426CD1236A3C
:1031C000D86803F0F4FAE36CD86803F0F0FAAE4282
:1031D00005D9636A03EBC5035B68BB4262D1012377
:1031E0000C9303F101230D930023206A08A9CDE974
:1031F0000E33FFF741FB002849D19DF82020012A1A
:1032000055D0554B5549032A08BF0B469DF823203E
:10321000492102929DF82220514801929DF82120D7
:103220000092504AFFF7DAFAE06C0AA9FFF724FB94
:10323000804660BB9DF82820012A3AD0464B47497A
:10324000032A08BF0B469DF82B20492102929DF8C6
:103250002A20434801929DF829200092424AFFF714
:10326000BDFA9DF82090B9F1010F24D19DF82230CC
:10327000032B20D19DF82830012B1CD049213B483D
:10328000FFF7ACFA0223266A0F93002E7AD103F0DF
:103290001CFF5721364881E752F8337051F833004C
:1032A000874202D05721334878E7013385E7324B14
:1032B000ACE7314BC7E749213048FFF78FFA0023CD
:1032C0000F930CA802F0C9FD80F001000CA9C0B258
:1032D000FFF784FE054600287FF451AF0CA802F0EA
:1032E000BCFD184E002840F0D2800CA8FFF79AFCD5
:1032F0009DF8373086F85830033B012B06D803F091
:103300004BFB18B1FF23054686F858309DF837303F
:10331000023B022B06D803F0D9FA054610B1FF2371
:1033200086F8583096F85830FF2B40F0A58045219C
:103330001348FFF753FAAAE732200020288F000035
:10334000418F0000B812002098070020718F000004
:10335000B38F0000DF8F00001B8E0000158E000071
:10336000B88E000072900000A88E000080900000CF
:103370001790000046900000108E00009F90000003
:10338000039100003378013B012B71D8F06840F2C3
:103390001627D4F85CB003F00AFA7843B3685030CB
:1033A0008342FFF474AF1B1A04934FF0FF354B4672
:1033B000B9465FFA8BFB0693049BCDF8149009F194
:1033C000FF3919FB0B31304601230AAA03F095FAA5
:1033D000031E07934CDB012230460AA902F0E3FEEC
:1033E000079B90B3069A934201D008F10108013F70
:1033F000E1D1B8F1010F03DD45216748FFF7EEF990
:10340000691C07D0B12D26DC40F2011301350C9563
:10341000ADF83430B1680123203921F00F01304676
:103420000AAA203903F069FA10BB012230460AA922
:1034300002F0B9FE10B101238DF828309DF8283034
:1034400003F00F038DF837303BE7059AB5F1FF3FE6
:1034500008BF1546CBE70223B23D8DF835306B101F
:1034600005F00105013301350C938DF83450D1E797
:1034700000225721494885E6002D7FF408AF2946F0
:103480002846FFF7ABFD00283FF48AAEFFE69DF823
:103490003770012F0ED1FFF749FA831E022B054624
:1034A00004D838460CA9FFF7C3FA00B9284686F8B5
:1034B00058003DE601200CA9FFF7BAFA18B1052320
:1034C00086F8583034E69DF83730F9E795F8402013
:1034D0002B7D9A422FD80AD395F841206B7D9A42D2
:1034E00029D804D3B5F84220EB8A9A4223D200228D
:1034F00049212B48FFF772F90023E06C19468268D6
:1035000003F05BF9012384F8583095F85830FF2B0D
:103510003FF40DAF0021012B0A912BD10021084669
:10352000FFF786FA074650BB0A9B01330A930A9BB2
:10353000012B2CD0FEE70CA8FFF774FB95F8583050
:10354000DA1E012A0AD803F027FA18B903F0BEF9E7
:103550000028DAD0FF2385F8583098E6023B012B8B
:10356000D3D8F3E703F018FA0028CED0FF2385F86C
:103570005830CAE70846FFF731FD0028CED04FF09B
:10358000FF378FB145210748FFF728F9FEE72B6A7F
:10359000D3F804A0F5E700BFB6900000D990000072
:1035A0000F9100004A910000524649217C48FFF7E4
:1035B00015F9E38A49210093637D227D7948FFF75D
:1035C0000DF949217848FFF709F92389774C784E9E
:1035D000A04658F8045F53443360ED4367234FF02F
:1035E000010ADFF8D09105F06705C9F82833002DEE
:1035F00040F0B280E420FDF71DF96E4BD3F8482768
:1036000022F00102C3F84827D3F8102522F0010266
:10361000C3F81025D3F8102522F00202C3F81025B4
:1036200001225A669A662570EFF31182202383F3F4
:103630001288BFF36F8F6048818E01F00701022965
:1036400040F0A880C38E013B9BB2C386002B40F0A4
:10365000A1801C30FCF73EFF584B594A1B684FF4C1
:103660007A70B3FBF2F34FF000085843554B4FF01C
:10367000FF3743F0010398474FF0010BC146DFF8D5
:1036800048A15AF8044BC4F80873C4F30830FDF796
:10369000D1F80021C4F82CB0C4F85091D4F85031BE
:1036A000C4F84C91D4F84C31C4F82491D4F82431A6
:1036B000C4F80095D4F804360C93D4F80C360D9366
:1036C000D4F810360E93D4F808360F93C4F8047665
:1036D000C4F80C76C4F81076C4F808760CAC54F82C
:1036E000040B431C01D0FCF7D9FE01310429F6D1AB
:1036F00008F10108B8F1030FC3D101224FF0FF31E7
:10370000324B5A60DA60C3F80813BFF36F8F72B69A
:1037100000232F4A03F120000133102B42F8201020
:10372000F8D14FF0FF3105F160030135102D42F85B
:103730002310F8D10024274BC3F80444FDF75AF8AE
:1037400084F30B8884F30A88234B3068984745211B
:103750002248FFF743F8FEE7A3680AFA07F202EAF5
:10376000030111F0670F1CBF9343A3606368DB4341
:1037700003F0670313420AD0002209EB0713C3F8D2
:103780002C25EA0703D54046F9B202F021FD6D0869
:1037900001372CE782F31188BFF36F8F5CE700BF1E
:1037A0006D9100009C910000BA910000A0000020E3
:1037B0001813002000200E50901600204802002010
:1037C00040420F00207300001076000000E010500F
:1037D00000E100E0002008E061000020DF9100002F
:1037E00030B53B4B04465B6800208BB0C3F3080345
:1037F00080F31188BFF36F8F02F07F45B5F17F4FE3
:1038000008D102F00C05082D04D012F0080F0CBFEF
:10381000204608460022033B8DF80720032B03D8DF
:10382000DFE803F00A4C504900209DF80730002BD8
:103830004CD102A902F078FB254BDA6A9107F3D448
:10384000DA6A002AF0DBDA6A5200EDD55A6981693A
:1038500042F480725A61BFF34F8FBFF36F8F31F81C
:10386000022C596921F480715961BFF34F8FBFF366
:103870006F8F02F47F43B3F55F4F04D1D2B2022AB7
:1038800001D10068D1E7124B9A6AD2B22AB1012164
:103890000DF10702FCF712FFC7E79A6A12F47F4F97
:1038A00005D001210DF10702FCF742FFBDE79B6A3D
:1038B000B3F5803FB8D3FCF76FFFB6E700210DF1F9
:1038C0000702E7E700210DF10702EDE70BB030BD7D
:1038D00000ED00E010B572B6002484F31388FCF705
:1038E00089FF23464FF0FF300C4A03F120010133DA
:1038F000102B42F82100F8D100234FF0FF30074A87
:1039000003F160010133102B42F82100F8D162B6B7
:10391000BFF34F8FBFF36F8F10BD00BF00E100E01A
:103920008FB59D4A9D4B22F07F029A60BFF34F8F67
:10393000BFF36F8FD3F88820994822F47002C3F840
:103940008820984A0021121A03F0C7FB9648974A2C
:103950009749121A03F0E3FB9648974A9749121ABF
:1039600003F0DDFB40F20F14002210B201210132FE
:10397000FCF772FFA242F8D10020FDF79BFA904BB2
:1039800003F5006282F3088883F30A880021E022AD
:10399000824B8C4E83F82220D97719765976997606
:1039A00083F820105A6A42F4E0225A6283F8231006
:1039B0005A6942F010025A615A6942F480625A61AF
:1039C0005A6922F008025A6110221A614FF0FF3240
:1039D0009A62DA62D3F8902012F47E4F29D0BFF3B6
:1039E0005F8F794AC3F89410C3F8C0200222774849
:1039F000C3F89810C3F89C20C3F8A0000120C3F8B6
:103A0000980000F10050C3F89C0000F57F3000F2F0
:103A1000E230C3F8A0003270D3F89000C0F3072062
:103A200082422FDB0522C3F89420BFF34F8FBFF3F0
:103A30006F8F674934784D68A4461DB11F2D43D858
:103A40006FF0150401203470FDF734FA0220FDF701
:103A500031FA002383F30B885E4C5F4DA4F52056AA
:103A600086F30B8884F309880020044988471846A8
:103A700019461A46A84702488047FEE7D769000062
:103A8000E5690000C3F89820C3F8A0100132C3E72D
:103A9000C7F898002046D7F8A03003F01F0313435F
:103AA000C7F8A03002F057FA6FE0C7F89800D7F8CF
:103AB0009C30604663F30405C7F89C50F2E7D1459B
:103AC000F3D102F048FABDE7E806B9D10B68DA068F
:103AD000B6D143E800F21D4412F4803F5FFA82F849
:103AE00005F1FF3A08BF6FF015084AE800F2D70366
:103AF000D0B2A5D54045A3D14445A1DD274FC7F895
:103B00009880D7F89C20C7F89880D7F8A09022F02A
:103B10001F02934249F01F09D1D0013BD14523F048
:103B20001F02B5D0C7F89880D7F8A030204603F020
:103B30001F031343C7F8A03002F00DFA10F1160F5F
:103B40003FF47EAFC7F89880D7F89C209DF80830E6
:103B500009F1FF3962F304038DF80830D7F8A0307B
:103B6000009525F01F059DF808204D445B08A5EB46
:103B70000A05013063F3471225F01F056946C0B2FC
:103B80008DF808200395FCF787FE10F1160F3FF41F
:103B900057AF441C56E700BF0000000000ED00E0F6
:103BA0007002002034200020A00000206C020020C1
:103BB000389B000060000020A0000020F89A000060
:103BC0003848002033200020AAFF4400E1CF17002E
:103BD0009C89000038480020B130000008B5054835
:103BE000FEF7FCFD002383F31188BFF36F8F0423DE
:103BF000184602DFFA91000008B501233F4A404809
:103C0000C2F800383F4AD2F840231C2A04BF3E4A7B
:103C1000C2F80C34FDF7FEF80830FDF7FBF8083069
:103C2000FDF7F8F80830FDF7F5F800F5F470FDF74A
:103C3000F1F8364AD2F88C3043F44063C2F88C3045
:103C40000022D30003F57F0303F54043D3F80014AB
:103C500001310AD0D3F8001439B1D3F8001401327D
:103C6000D3F80434402A0B60EBD1244BD3F8402422
:103C7000002A3ED0FDF7BEF848B1224BD3F83423DA
:103C8000234B9A429EBF1D4B224AC3F84026FDF7A4
:103C9000B1F818B1204B214AC3F8AC27FDF7AAF8B8
:103CA00048B13422154BC3F82426D3F83C2622F41D
:103CB0000022C3F83C261A4BD3F80026D20744BF93
:103CC0006FF00102C3F80026164BD3F8182522F036
:103CD0000302C3F81825D3F8182542F00302C3F8ED
:103CE00018250A4AD2F88C3043F44063C2F88C306D
:103CF00008BDC822C3F84024BCE700BF0000125032
:103D000000C50D5000C0FF000030055000ED00E080
:103D1000001D0A1840E0A91E00A0085078000A04FF
:103D200000E0105000B0045070B5446A05460E46DD
:103D300044B9074B01201B689847686228B12046A8
:103D4000AE6270BD6FF08A00FBE76FF08C00F8E7A1
:103D5000280200208A4270B533D001F0FE40B0F155
:103D6000C06F30D1194D21F4FF7424F00104AC422E
:103D700021F0FF0013D005F58855A8420FD021F49B
:103D80007F7626F00306A5F57065AE4207D005F5EF
:103D9000A065A84203D005F57455AC420AD111F0D4
:103DA000FF0407D00A4D44F00074AC4204BF014642
:103DB0004FF006220BB121F480718B1A5842584102
:103DC00070BD0120FCE70020FAE700BF00020006FA
:103DD000FF000002F8B51E4D064695F8C0320F46AA
:103DE00093B300242B462246197FE1B13CB9022946
:103DF00005D1196A19B91979002918BF1C46013271
:103E0000102A03F12C03EFD114B96FF08C0008E0F5
:103E1000204602F0C9FA204602F0ECFD20B16FF016
:103E2000960000240EE01C46237F002BF7D10123CF
:103E3000237736B1074B651BAD105D4305F1804517
:103E4000356000203C60F8BD6FF08800E9E700BFF6
:103E500088130020A38B2EBA074A1368591C1160DF
:103E60004BB9064A4820D2F8003443F00703C2F8A1
:103E70000034FCF7D1BC7047940700200080045048
:103E800010B5124B1C68013C1C60ECB94820FCF7D3
:103E9000D1FC07220E4BC3F80823D3F8002422F0EC
:103EA0000702C3F80024C3F80041D3F80021C3F887
:103EB0000441D3F804214FF48072C3F80841D3F8C9
:103EC0000831044BC3F8882110BD00BF94070020BF
:103ED0000080045000E100E008B5FDF77FF8012301
:103EE0000360104B0A6832B9D3F80C211AB9D3F821
:103EF0000821002AF6D00B687BB90B4B99420ED0F3
:103F0000A3F58473D3F80831002B14BF6FF00200BF
:103F10004FF0FF30FDF762F808BD0020FAE74FF0E0
:103F2000FF30F7E7005004500851045010B5044624
:103F3000012001F08FFD064B0649C3F800450648F5
:103F4000FFF7CAFF0446002001F084FD204610BDA3
:103F500000500450085104500850045038B50C4625
:103F600059B1074D0749C5F800050748FFF7B4FFE9
:103F700010B9D5F80835236038BD6FF00100FBE7B4
:103F800000500450105104500C50045070B51C4E99
:103F900044680288B6EB142F43884FEA142514D1E5
:103FA0004069184B98420CD003F5FF437D3303441E
:103FB000012B21D8B2F5105F1ED1022300200B6027
:103FC00070BD47F212139A42F6E70F48854213D1AB
:103FD00002F44F40B0F5824F08D144F2121007337B
:103FE000DB08824204BF5B000133E7E7B2F5885F7C
:103FF000E3D10733DB08E1E76FF08600E0E700BFBD
:10400000004E800001C0FF7F4B4E800010B5F820AD
:1040100002F033FD18B9F92002F02FFD10B16FF056
:10402000920010BDF823094C09490A48C4F800352C
:10403000FFF752FF0028F2D1F9230648C4F80035F3
:10404000FFF74AFF0028ECD0E9E700BF005004501A
:10405000045104500450045070B588B001AE0546B8
:1040600018220C463046002103F037F8012044EABC
:1040700005240794059001F0EDFCBA23094A0A498A
:10408000C2F800351046C2F80465FFF725FF044664
:10409000002001F0DFFC002C0CBF20466FF09200E6
:1040A00008B070BD0050045000510450BFF35F8F42
:1040B0004FF0A3430022DA61BFF35F8FBFF35F8F3E
:1040C0004FF0FF321A63BFF35F8FBFF35F8F34226D
:1040D000DA61BFF35F8F0122014BC3F804237047FD
:1040E000008004500368DA68D203FCD4DB682548FA
:1040F0001840B0F5806F30D016D840282FD008D89F
:1041000010282ED020282ED0003818BF01204000C3
:104110007047B0F5807F28D0B0F5007F27D0802889
:1041200014BF02200B207047B0F5804F21D00BD870
:10413000B0F5805F1FD0B0F5005F1ED0B0F5006F06
:1041400014BF022006207047B0F5004F17D0B0F51D
:10415000803F14BF022003207047112070470A20BF
:1041600070470C20704709207047082070470720CF
:1041700070471420704705207047042070470F20B7
:10418000704700BFF0FF010038B50025124B044610
:104190001A68036102605A6842609A6882600F4A36
:1041A0009A668564FFF758FE04220D4BC3F804237A
:1041B0000C4A2368D968C90307D403F580535B6AA6
:1041C00013F4A02F01D138BD20BF1368002BFBD002
:1041D000136813681560ECE71C1300204C73000093
:1041E00000800450D8020020042210B50446054B7C
:1041F000C3F80823FFF744FE2369034A9A660023A5
:10420000636410BD008004504C730000422810B558
:104210001DD8262811D812281CD0112817D91738D4
:10422000C3B20B2B13D81B48184100F00100C0F19A
:10423000FF2000F57F007A3010BD0123A0F1270494
:10424000E4B2A340144C234221D1422818D06FF08D
:104250008600F1E7B1F5807F0ED006D8E02914BFC3
:104260006FF086006FF08500E6E7B1F5C07F0ED0F5
:1042700040F209239942F2E7084B00201360DBE784
:10428000FF2902D0B1F5E07FE9E7054BF5E76FF0D4
:104290008500D1E7EEF7FFFF11020004E075000092
:1042A000F07500002DE9F04393B004460026FFF7B7
:1042B000D3FDFFF7FBFE0DF11F05234F25F01F0572
:1042C00001231022214911F8010D013A03440B701A
:1042D0004FEA1323F7D1A81901F0CAFAA94680467C
:1042E00038B1FFF7CDFD404613B0BDE8F04302F012
:1042F000F3B9D7E90C321036013342F10002302E07
:10430000C7E90C32DCD1FFF7BBFD54B104F1300238
:1043100099F8003014F8011B4B40A24209F8013B08
:10432000F6D12E46084C0FCE0FC496E80F0020356C
:1043300084E80F0095E80F00103484E80F00002097
:1043400013B0BDE8F08300BF78020020A80200206F
:1043500038B52B4B1B7843B12A4B1A68002A41D041
:104360001A6819680021196032B9BFF35F8F4FF0E6
:10437000A3439A6ABFF35F8FBFF35F8F4FF0A344ED
:10438000E36BBFF35F8F12F0240F03F023032BD0F6
:10439000BFF35F8FE569BFF35F8FBFF35F8F1023BC
:1043A0006363BFF35F8F184B1868184BB0FBF3F0D3
:1043B000174B43F001039847BFF35F8F00236363FC
:1043C000BFF35F8FBFF35F8FE36BBFF35F8F5B065E
:1043D000F8D425B1BFF35F8FE561BFF35F8F6FF056
:1043E0001F0038BD20BFB8E74FF0FF30002BF8D1D9
:1043F000BFF35F8F2063BFF35F8F1846F1E700BF05
:1044000032200020DC0200204802002040420F0041
:1044100010730000BFF35F8F094A1368BFF35F8F0B
:1044200043F48071BFF35F8F1160BFF35F8F23F49C
:104430008073BFF35F8F1360BFF35F8F704700BF60
:10444000001080512DE9F04FB14C91B06278237883
:10445000022A05D1072B03D1002011B0BDE8F08F4F
:104460009A0706D40121AB4A43F0020382F8C01236
:10447000237013F0010540F09380DFF89CA2DFF871
:104480009CB2DAF800305B4500F00281FFF7E4FCF3
:10449000A34B01211D60A34B48201D60A24AFCF7DD
:1044A000DBF9A24BA24952F8040B43F8040B8B42F0
:1044B000F9D1A04DA04B2D612B6003F5C0436B607B
:1044C000FCF766FE2B6DF820B3F5007FCCBF4FF4F0
:1044D00080634FF40073AB6002F0CFFA28B9F92083
:1044E00002F0CBFA002800F0CB8008AE2021304645
:1044F00001F00CFA054600284AD14FF4807301AD53
:104500002846019302F047F9019F02F0DBFA0028E8
:1045100040F0A28017F00303009040F0AB801A46F1
:10452000984619464FF0010E844850F804CB17EA1C
:104530000C0F09D00EFA02F848EA01014FF0010809
:1045400001F07F0143EA0C030132072AEDD1B8F1F3
:10455000000F05D09DF8032061F347028DF803207A
:1045600037EA030340F08980BDF80230F82023F4D5
:10457000F87343F0C003ADF8023002F07EFAD0B910
:104580006FF08A052021304602F006FB002D77D01F
:10459000FFF776FC227842F001032370002D7CD1D6
:1045A00062780AB9022262705D073FF555AF43F0A9
:1045B0000403237050E7F92002F05FFA0028DFD0EF
:1045C0000221F820FFF748FD8146002844D14FF032
:1045D00001085B4BCDF814800693009B079396E887
:1045E0000F0085E80F00404601F034FAF823554AE1
:1045F0005549C2F800351046C2F80455FFF76CFC67
:104600000746484601F026FA27BB1C21284602F03F
:10461000C3FA4FF0FF33DFF834C1CDF81480CDE991
:1046200006C310AB13E90F0085E80F00404601F008
:1046300011FAF923434A4449C2F800351046C2F83A
:104640000455FFF749FC8046384601F003FAB8F1FB
:10465000000F04D002F036FA6FF0920592E7284678
:104660001C2102F099FABA20FFF760FC05460028E9
:1046700088D0F1E76FF0860584E76FF0850581E764
:10468000FFF7C4FC0546FFF7FBFB1DB9CAF800B0F5
:1046900000257FE76FF092057CE7500742BF22F0CC
:1046A000040242F001032370990717D5194D102613
:1046B0002F464FF001094FF003082846C5F8209017
:1046C00085F81C8002F096F9013E05F12C05F4D125
:1046D000237887F8C06223F00203237000251C4B67
:1046E000042229461B6865701A489847084B2378AE
:1046F000DA0744BF23F00103237085F31188BFF369
:104700006F8F0423184602DF6FF00400A5E600BF98
:104710004C16002088130020200200201173650031
:10472000DC020020D80200203476000000C0805156
:104730001CD380511C1300200020805150890000A0
:1047400040008151005004500051045050008151EC
:104750006C8900005016002038B5044601F072FB49
:10476000256885B94FF412722946201D02F0B5FC68
:10477000084B284663608023C4F8C431052384F8BD
:104780004852236038BD204602F012FA6FF08800CC
:10479000F8E700BFB48900006029F8B504460E466A
:1047A0002CD80378033303F00303012B21D86FF0D7
:1047B000210001F091FF054640B9124932462046DA
:1047C00002F0ADFC60210F4802F0E6F92846F8BD82
:1047D00063780D492B440D48C7F80035FFF77CFB83
:1047E00050B901352378C3F382039D42F0D30020F2
:1047F000DFE70025064FF5E70220DAE76FF08905CD
:10480000E4E700BF000000200451045004500450AD
:10481000005004502DE9F04F0F461D468B49536858
:1048200085B0B1EB132F1446DDE90E8A06464FEA38
:10483000132203D0864B9A4240F00181854BF31836
:1048400067F10002032B72F10002C0F0FB80029BB3
:104850003046C3F30D0302A9029302F018F948B9D8
:10486000B6F1F80347F1FF37022B77F1000704D2C6
:104870006FF0860005B0BDE8F08F9DF80B20029B1D
:1048800052089DF80A90BDF80A700192C3F3853B67
:1048900002F018F9C9F30219019AC7F3C11710B150
:1048A0006FF09200E6E79DF8080010F00F0340F06B
:1048B000BA80791EC9B2022900F2B880664F7F5CC7
:1048C0006649394300F03007102F61602AD1644BEC
:1048D0002360204603A9FFF759FB0028C8D1039B9A
:1048E0009845C0F0A98044F21212218809F1FF39DD
:1048F000914204BF042205F8012BCAF800309DF84C
:1049000008302A78C3F3011363F3010208BF08F1EA
:10491000FF382A70B9F1050F4BD8DFE809F07D6D3B
:104920006D6D5775944618464E49BCF1000F17D16E
:10493000039003A801F02FFF039BBBF1280FA36096
:104940001AD0BBF12C0FABD1204647F2121201F066
:1049500072FD44F21213002818BF1346424A16E0B3
:104960001CF0010F04D0062B63D851F8232010430C
:104970004FEA5C0C0133D8E7204647F2421201F0BF
:104980005AFD44F24213002818BF1346374A2380C9
:1049900009F1FF33E260052B0BD8DFE803F01503C4
:1049A0000D0F0A12C0236380002F92D16FF0960082
:1049B00060E76FF098005DE7FF23F4E74FF4807342
:1049C000F1E74FF4C073EEE78023ECE703232A7886
:1049D000202F08BF023363F384022A706E7023888D
:1049E00003F44F42B2F5824F18D14146284605B034
:1049F000BDE8F04FFFF7D0BE44F212122388934275
:104A000014BF02230423E2E744F2121223889342E4
:104A10000CBF06230323DAE70123D8E7B3F5885F49
:104A20007FF428AFE1E76FF0880023E76FF0910093
:104A300020E76FF083001DE76FF089001AE76FF041
:104A40008B0017E76FF0850014E700BF004E800071
:104A50004B4E8000FF3F0080AD8B0000004B4E802E
:104A60000110800150890000FF06000600080006C2
:104A70000023F0B50E468DB00B607649054691F8DF
:104A8000C032002B00F0D08000F140430F2B63D8E0
:104A90002C2202FB03110B7F022B03D14B6998429E
:104AA00000F0CE8031460020FFF794F9044600283C
:104AB00040F0CD800122336801465D61336805A86E
:104AC0005A6035681C2202F008FB6B69624903F1E9
:104AD0004042A2F580528A42CDE9024400F29E8013
:104AE0005E4A934251D0013293424ED0023A9342F1
:104AF0004BD0DFB2384604A901F0C9FF044600BB21
:104B0000BDF81230C3F3C113013BDBB2022B00F23C
:104B10008280534AD35C534A1A4303B16B690A93A8
:104B20000023069238461946CDE9003305AAFFF75F
:104B300071FE10F18A0F04462AD0002808BF6FF0DA
:104B40009604306801F056FF14F18C0F08BF6FF027
:104B50008704002333607AE06FF0404201389042CE
:104B600005D3A3F58053A2F5005293425FD80023EA
:104B7000384A107F022802D1506985425DD0013346
:104B8000102B02F12C02F4D18CE71F46364AC6E7FF
:104B9000069B36491A0AB1EB132F02D0344B9A42C6
:104BA00039D102A905A8FFF7F1F9002833D1284629
:104BB0000299FFF7B9F804460028C2D103AB01936C
:104BC000AB6A2146009338466B6A05AAFFF722FEBE
:104BD000044640B1686A10B1A96AFCF7EDF90023F8
:104BE000C5E90933ADE7039B05ACAB620FCC0FC53C
:104BF00094E8070085E807003068083001F0CBFD35
:104C000033681A7F012A0CD0306801F0CDFBE8B17F
:104C10006FF096049DE76FF0860492E76FF08B04C7
:104C20008FE702221A77EFE76FF088040FE06FF04A
:104C300087040CE06FF0960409E02C2202FB0311BC
:104C4000084601F0B1FB0028F4D131600024204671
:104C50000DB0F0BD88130020FFDFFF3F02C0FF7FD3
:104C6000AD8B0000004B4E8003004E80004E800054
:104C70004B4E80002DE9F04F0E460021BBB0DDF811
:104C800018C11546DDE9442B1F4604460388CCF8BD
:104C90000010CBF80010002A00F0D98041685FEACC
:104CA000112840F0D78023F0FF03B3F5E24F1FD166
:104CB0004388AA422793C0F0C780294627AAFCF759
:104CC00097FA0446002862D10346454508D1002BD7
:104CD00000F0BD80279B469A1360CBF8005056E049
:104CE00016F8082007F80820134308F10108ECE73C
:104CF000B3F5824F40F0AE8043880393038803F4FA
:104D00004F41B1F5824F02D0B1F5884F01D15FFA22
:104D100083F8412D00F29B800023D4F80CA005A954
:104D200006EB050CB44536D1002B00F09080AA426A
:104D3000C0F08A802046294603AAFCF759FA0446A7
:104D400028BBB8F1120FDDF80C9002D0B8F1300F8B
:104D500071D19DF8142009F10706F6087300042AA2
:104D600003F1010373D19D4271D13C4B3C4A0AEAE5
:104D7000030343F0106393425DD10023494640464C
:104D800004AA0493FFF742FA824650B10446204633
:104D90003BB0BDE8F08F16F8010B01F8010B03439F
:104DA000C0E7DDF8108027A8D8F804300093FFF79B
:104DB000EBF92B9B2B4A41469A6627A8524616AB25
:104DC00002F019F8804630BBDDE9160A2A9BB3428F
:104DD000A3EB060801DA02F078F94146019001F0F0
:104DE0005BFB0198324640440DF1150101F099FE3C
:104DF0004146504601F050FB731C05A93246194448
:104E00000AEB080001F08DFE27A801F0B5FEFFF7C0
:104E100069F9804640B127A8FFF7E6F9404601F05E
:104E20005BFC40B10446B2E727A8FFF7DDF9009923
:104E300016A801F0B1FE2A46384605A902F06FF91E
:104E4000469BC3F8009048E76FF089049FE76FF036
:104E500086049CE76FF0850499E700BF0000FFF629
:104E600000000209607300002DE9F0479A4698B0EF
:104E7000064605A80F461546D3F80490DDF8808055
:104E8000FFF782F9099B204A51469A6605A86B46AE
:104E9000002201F0B0FF044630B105A8FFF7A4F9E5
:104EA000204618B0BDE8F087DAF80440DDF804A029
:104EB00031462246009801F034FE31192246504610
:104EC00001F02FFE039E22464146029801F029FE82
:104ED0003046224608EB090101F023FEAC42049E55
:104EE00005D9651B3046294601F0D6FA2E442246E4
:104EF0003046394601F015FE05A801F03DFEFFF7EA
:104F0000F1F80446C9E700BF387300002DE9F84303
:104F1000804630264E4CDFF83C91202E3746A8BF05
:104F20002027FEF799FFFFF775FABFF35F8FE3685D
:104F3000BFF35F8F9B08013BBFF35F8FA360BFF39D
:104F40005F8FBFF35F8F00232364BFF35F8FBFF3D7
:104F50005F8FF1226264BFF35F8FBFF35F8F4FF407
:104F600000726263BFF35F8FBFF35F8FC4F800907E
:104F7000BFF35F8FBFF35F8F226BBFF35F8F02F0D2
:104F80000E010A2955D012F00C0FF3D023BBBFF34A
:104F90005F8F6268BFF35F8F032AEBD92E4B2F4AD6
:104FA000BFF35F8FD4F88010BFF35F8FBFF35F8FC5
:104FB00043F8041BBFF35F8F9342F1D1FFF72AFA46
:104FC000BFF35F8F2368BFF35F8F43F00103BFF32D
:104FD0005F8F2360BFF35F8F3D46BFF35F8FA26893
:104FE000BFF35F8F0132B7EB021F2ED8BFF35F8F85
:104FF0006268BFF35F8FB7EB820F24D84246BFF3DE
:105000005F8FD4F88010BFF35F8F101D02F8011B73
:1050100082424FEA112105F1FF3507D0002DF5D16D
:10502000FEF72EFF45B16FF03F0609E0002DE6D1F7
:10503000F6E7FEF725FF74E7F61BB8447FF46DAF83
:105040003046BDE8F883012394E76FF03F05E7E7BA
:105050000010805101000400101080512010805178
:105060002DE9F04F82460025ADF56F7D04AF07F5C1
:10507000AE742046B962FFF76FFBBAF80830BAF891
:105080000A20DAF80C8013449844A84500F289807D
:1050900007F15001204601F09AFD204601F088FDFD
:1050A000DAF80C30BAF8085022461D442946042389
:1050B000B86A01F022FCB861002840F0838046F60F
:1050C00008122188BAF80A30914240F08A8061883B
:1050D000994277D104232246B86A294401F00DFC95
:1050E00000286FD146F6071322889A426AD1BAF88F
:1050F0000A30AF482B447B627A6A6388C16D1344DF
:10510000BB60436A5A6840F2162303FB01215342F5
:105110004F311940836A406D013B534342435B1A50
:10512000521A934228BF1346BA689A424AD82B1D96
:105130004FF0FF352C46FB6207F5AE79BB68FA6A83
:10514000934240F28383BAF80A3023B17B6A9342D8
:1051500004BF0433FB620423D7E90A014A4601F085
:10516000CCFB78BBFA6AB9F80030111DB9F80220FF
:105170007A637A6A8A4208D84FF6FF768D4830F80B
:10518000022BB2421ED09A42F9D1122B2DD0222BE3
:1051900067D0012B3FD07B6BFA6A04331A44FA6262
:1051A000CCE7A8EB0506B6F5807F28BF4FF48076E4
:1051B00029463346804AB86A01F09FFB50B1204629
:1051C00001F0F6FC4FF0FF34204607F56B77BD4643
:1051D000BDE8F08F32462046774901F044FD354462
:1051E00053E7002B3FF47EAFECE77B6B402BE9D11C
:1051F000B86A07F1DC0201F080FB0028E2D17A6B8B
:1052000007F1DC0107F1500001F09DFF0028D9D122
:105210000123BB61BFE77B6B402BD3D8B86A07F192
:10522000DC0201F06AFB0028CCD14846FFF794FA73
:105230005B226249484601F016FD07F1900148469D
:1052400001F0C5FC484601F0B3FC7A6B07F1DC01C4
:1052500007F1900001F077FF051E18BF01256D4290
:1052600099E7002D97D17B6B802BABD8B86A07F1FB
:10527000DC0201F042FB04460028A3D11C220146B7
:10528000484601F02AFF4FF4005307F190063360BF
:10529000304601F080FA4A4B3268C9F80C3044F2CB
:1052A0001213A9F8003041237B642346454907F1D6
:1052B0004005C9F808202C6011F8010F0133412B7B
:1052C00044EA0004F8D1002C39D022F0031323F46F
:1052D0007F433B637BBB29463046FEF77BFD2C6852
:1052E00048BB07F5AE7E2546F446BCE80F000FC567
:1052F0009CE8070085E8070033686361A36A0BB385
:105300006388D7F86001C7F890302346DFF8B8C04B
:1053100007F19006BCEB102F07F5AE75D4F824808A
:1053200053F8282F4FEA102100F0AC802748814223
:1053300000F0A88011B3386C08B101F05BFB4FF0AE
:10534000FF346EE2DEF8043007F144051B0A06D193
:1053500020462968FEF7E8FC0028D1D0EBE73A6B3D
:105360002A60194A934202D04B329342E3D1294634
:105370007046FEF70BFE0028EAD0DCE7CDE90136E7
:1053800000924346412228461149FFF773FC10F171
:10539000860F40F082802B8803F4E042B2F5805FF4
:1053A00018D0B2F5005FC6D14FF402733360C2E784
:1053B000B8120020FC89000032170020CC8B0000BE
:1053C00009060006E58B0000004E80004B4E800071
:1053D000E68B00004FF40272326041F206229342E3
:1053E000A9D8B3F5905F43D241F20102934202D0B3
:1053F000B3F5885F9FD1412540462A46934901F085
:105400008EFEA562618807F190031A68002947D1D2
:1054100062801A684FF6F8739A428CD8B7F85C31FC
:1054200007F5AE7513B122889A4284D16B881BB1FF
:1054300062889A427FF47FAF63697B61237F012B8F
:105440007FF479AF0223602223770021284601F000
:1054500044FE97F8DF4007F1E0061F2C24D8C4F182
:10546000200022463146284401F059FE33462BE005
:105470006922A3F590539BB222FA03F3DA077FF572
:105480005AAFB8E707F19001CDE9013100924346E8
:10549000412228466D49FFF7EDFB0028B2D04AE7CC
:1054A00091427FF448AFB4E7A4F1200333441A4695
:1054B00003F1200C2E4610685168083203C662457D
:1054C0003546F7D124F001041A19527802341F2A04
:1054D00003EB040175D9203A8B1807F5BE7403F16C
:1054E0002005224618685968083303C2AB421446A7
:1054F000F7D107F13C0421467869FFF7B9FAC8B93A
:10550000FD6BAB689B0410D52C8801232046504AC4
:10551000E968FEF71FFC00285BD1012320464C4AB6
:105520002969FEF717FC002853D100232846FB63A6
:1055300001F080FA4FF0FF347B69002B00F071819D
:1055400007F1900529461846FFF792FA002840F027
:105550006881D7F89060337F022B40F05E8103238F
:1055600071683377CAB2FF2A00F0578175693948EC
:1055700005F14043A3F58053834200F24E81364B40
:10558000B3EB112F40F04981032A00F04681EDB2C0
:1055900007F5AE784146284601F079FA002840F038
:1055A0003C8198F80230C3F30213013B052B00F253
:1055B0003481DFE813F049013901390139010C0167
:1055C000410107F56A73981AA0F5037001F0A7FD71
:1055D0008FE76B6A214A3B61AB6AFB606B68B2EB99
:1055E000132F4FEA132811D01B4B98450ED0B8F15A
:1055F000000F0BD06FF08604F86B01F01BFA002C43
:1056000098D1041E18BF0124644295E704F44F4367
:10561000B3F5824F40F0D88024F0FF06B6F5824FF4
:10562000C7F804D007D0B6F5E24F04D06FF0850478
:10563000D7F804D0E0E7E3B2422BB5F802B03B6202
:105640000ED14FEADB03013313E000BFE68B00000D
:1056500009060006FFDFFF3F4B4E8000004E800032
:105660003A6A0BF10703412A4FEAD30349D1002BD1
:10567000DCD0073323F00703ADEB030D04ABFB6174
:10568000002307F140025946386A1360FEF7BEFD59
:1056900004460028CCD1704B9845C7D0B6F5824F50
:1056A00007F140022FD13B691B78042B40F0868024
:1056B0000BF10702D208F9685200531C99427DD1C0
:1056C0003969F869013101F02AFD3B6C07F14006A8
:1056D0005B68202B75D132466988386AFEF796FDE3
:1056E00004460028A4D107F5AE73009340223B6C1A
:1056F00007F15001F869FFF7B7FB00F0EDFF044632
:1057000096E75B009FE7D2F8008007F19006D8F893
:1057100004303046FB60FEF737FD33694F4A41469F
:105720009A663046002207F1440301F064FB834689
:1057300018B13046FEF758FD26E0786CD7E9032112
:1057400001F0EFF9D8E90121FB6C01EB420B59465E
:10575000B86C3B6001F0E5F9D8F8042038680BEB31
:10576000020101F0DEF9304601F006FA3046FEF79C
:10577000B9FC062883460ED101340A2CCDD130461F
:10578000FEF732FD4FF06A0B584600F0A5FF0446C5
:1057900000289AD04CE770B9304601F0D0F90446A1
:1057A0000168FA68F86901F0BAFCFA68FB69616897
:1057B000981801F0B4FC07F19000BBE76FF0860485
:1057C00036E76FF0940433E76FF0850414E703269F
:1057D00098F80030DFF8888003F03003202B08BFF2
:1057E00002363B6B1F492B441F48C8F80035FEF7B3
:1057F00073FB90B93B6B0133B3423B63F1D1FEF7CE
:1058000005FC18B96021194801F0C6F9314628464F
:10581000FEF722FC08B901F055F9D7F8900001F025
:1058200009F94FF0FF35B6E444F2121336889E4270
:1058300014BF02260426CBE744F2121336889E4298
:105840000CBF06260326C3E70126C1E7BB69012B6F
:105850007FF4B8ACB8E400BF004E8000D4890000EB
:105860000050045004510450045004500000002023
:105870004FF4807313B501931E4B01AA1A601122D5
:105880001D491E4CC3E9021240F6110103F110023A
:105890005A601B4AC3E906411A6120321A6221226A
:1058A00003F1200159610121164C5962C3E90A42F2
:1058B000154A82E813002021D160BFF35F8F4FF0BB
:1058C000A3410B60BFF35F8FBFF35F8F0A61BFF32C
:1058D0005F8FBFF35F8F03234B63BFF35F8FBFF314
:1058E0005F8F8B63BFF35F8FFEF732FD431CFBD0EE
:1058F00002B010BDFC160020040000202000002093
:105900007802002010000020EC1600202DE9F0475E
:105910004D4C96B00DF14F0501F10F08D4E90C3252
:10592000134307460E4625F01F054FEA181829D0E5
:10593000D4E90C2318EB020243F10003B3F5803FD6
:105940004BD2FEF789FA4FF00008FEF7AFFB05F1E6
:105950001009102201233D4911F8010D013A0344B9
:105960000B704FEA1323F7D12846FFF781FF8246D9
:10597000002849D0FEF784FA504616B0BDE8F0473B
:1059800000F0AABEA26B324B9A42DAD000231A462C
:10599000E2540133402BFBD16846FFF7B7FAB8B9A0
:1059A0006846FEF77FFCB0B9034602460DF80320B7
:1059B0000133302BFAD100230122C4E90C23244BFC
:1059C000A36300F089FE0028B2D016B0BDE8F087CE
:1059D0006FF03F00F5E70E20F3E76846FFF796FA11
:1059E00078B96846FEF75EFC0028EED103460DF854
:1059F000003001303028FAD100220023C4E90C2302
:105A00009FE76FF09200E0E7AC4607EB08026346C1
:105A100003CB4B45106051609C4602F10802F6D161
:105A2000D4E90C3208F11008013342F10002464576
:105A3000C4E90C328DD1FEF723FA002016B0BDE880
:105A4000F047FEF72FBC00BF78020020A80200201C
:105A5000B4A5B4A5034BC3F80005D3F80024D207BE
:105A6000FBD5704700B0045038B50D4B0546C068F3
:105A7000DC6D00F09CFE844203D2E86800F097FEE3
:105A8000044640F216226243A96864425032224022
:105A900001232846891A00F090FEC00F38BD00BFD0
:105AA000B812002030BFFFF7FDBF00BFEFF3088042
:105AB000EFF3098101B57246FDF792FE01BD00BF0B
:105AC000002080F31488BFF36F8F002080F30A88D2
:105AD00080F30B880F4880F30888FEF78DF80020CC
