:040000030000417147
:020000040000FA
:10000000683B002071410000EB5700005D4100009B
:100010005D4100005D4100005D4100005D41000068
:10002000000000000000000000000000D1410000BE
:100030005D410000000000005D4100005D410000E6
:10004000110C0000110C0000110C0000110C00003C
:10005000110C0000110C0000110C0000110C00002C
:10006000110C0000110C0000110C0000110C00001C
:10007000110C0000110C0000110C0000110C00000C
:10035000110C0000110C00009D100000110C000099
:10036000110C0000110C0000110C0000110C000019
:10037000110C0000110C0000110C0000110C000009
:10038000110C0000110C0000110C0000110C0000F9
:10039000110C0000110C0000110C0000110C0000E9
:1003A000110C0000110C0000110C0000110C0000D9
:1003B000110C0000110C0000110C0000110C0000C9
:1003C000110C0000110C0000110C0000110C0000B9
:1003D000110C0000110C0000110C0000110C0000A9
:1003E000110C0000110C0000110C0000110C000099
:1003F000110C0000110C0000110C0000110C000089
:10040000110C0000110C0000110C0000110C000078
:10041000110C0000110C0000110C0000110C000068
:10042000110C0000110C0000110C0000110C000058
:10043000110C0000110C0000110C0000110C000048
:10044000110C0000110C0000110C0000110C000038
:10045000110C0000110C0000110C0000110C000028
:10046000110C0000110C0000110C0000110C000018
:10047000110C0000110C0000110C00000822F0B556
:10048000002789B004F04DF8CB6A0C4603930B6B40
:10049000064604934B6B684605938B6BCDE9017759
:1004A0000693CB6B6946079313466A46009704F0A0
:1004B00072F831460546304604F06DF8216B05446C
:1004C0000391616B68460491A16B0591E16BCDE9E5
:1004D0000617694604F05FF831460544304604F0DB
:1004E0005AF80544206ACDE904770090606A0397C2
:1004F0000190A06A0290A06B0690E06B07903046D6
:1005000004F049F80544606AD4F838C00090A06A45
:10051000CDF810C00190E06AD4F83CC00290606B46
:10052000CDE905C00390206A0790304604F033F807
:100530000544E06ACDE904770090206B03970190B1
:10054000606B0290206A0690A06A0790304604F023
:1005500009F8236B2D1A0093636B30460193A36B4C
:100560000293E36B0393636A0693E36A079308239A
:1005700003F0F8FF636B2D1A0093A36B30460193D1
:10058000E36B0293236A0393636A0493A36ACDE93E
:100590000537236B0793082303F0E4FFA36B2D1AA1
:1005A0000093E36B3046CDE90137636A0393A36A96
:1005B0000493E36A0593636B0793082303F0D2FF68
:1005C0002D1A10D50823314630460C4A03F0E3FFBC
:1005D0002D18F7D409B0F0BD082331463046074A3C
:1005E00003F0C0FF2D1A002DF6D108223146034832
:1005F00003F0A3FF0128EFD1ECE700BFA85C0000E7
:100600002DE9F04F002503689DB003934368DFF8A0
:10061000B89104938368DDE903470593C3680693A3
:100620000369DDE905AC0793436908938369DDE954
:10063000072B0993C3699E460A93099B009351F8BF
:1006400025600CAB96FA86F843F8258059F8046BC0
:100650004FEAF22383EAB213464483EA72633344D7
:10066000009E02EA0B0826EA020686EA08063344E0
:10067000734487EA0A064FEA743E8EEAB40E2640B7
:1006800007EA0A0886EA08068EEAB45E0135B6442F
:10069000102D03EB0C067344D446DDF800E040F067
:1006A00084804A490B91294601350DF1700E05F001
:1006B0000F0C0EEB8C0C5CF840CC01F00F094FEAEC
:1006C000BC48CDF804C088EAFC1801F10E0C0CF00F
:1006D0000F0C0EEB8C0C5CF840CC09314FEAFC4E51
:1006E000CDF808C08EEA7C4E01F00F010DF1700CC0
:1006F0000CEB81010CEB890951F8401C59F840CCF6
:10070000402D8C44019988EAD1080299C4448EEAAC
:10071000912EF44406EA02084FEAF62E2BEA06016F
:1007200081EA08018EEAB61EDDF82C808EEA766E2C
:10073000714458F804EF49F840CC71446144DDF845
:1007400000C04FEA733E614484EA070CCDF82C8068
:100750008EEAB30E0CEA030C04EA07088EEAB35ED5
:100760008CEA080CF4448C4401EB0A0ECDF800B07E
:10077000BA4622D103996144016004991944059B4A
:10078000416023448360069B3B44C360079B7344E2
:100790000361089B33444361099B134483610A9BB3
:1007A0005B44C3611DB0BDE8F08FBA46CDF800B020
:1007B000274693461C46324641E793462746324633
:1007C0001C46764663466EE7A45B0000E05B0000D3
:1007D000036803F01F025F2B02604FEA53129ABFB7
:1007E000024B53F822000020704700BF985B0000C6
:1007F00007B5019001A8FFF7EBFF019B00EB830019
:10080000D0F88020044B134043F00203C0F880303E
:1008100003B05DF804FB00BFF0F0FCFF014B1B6868
:10082000184700BFE00100202DE9F047058B044682
:10083000280717460CD501290CBF45F0100545F0D7
:100840002005258387F31188BFF36F8FBDE8F087FC
:10085000022905F0070540F09480204604F039FA9B
:10086000052864D801A353F820F000BF4508000014
:10087000830900002F090000F10800000B090000A7
:100880001D09000001F007035A1F012A1FD800228A
:1008900021F00701062BD4F8008089B2C4E90022B8
:1008A00009D1434603E0628B013262831B68002B4F
:1008B000F9D141F002012046218304F00AFA4FF0F9
:1008C000000900286DD041F02001218369E0042B4C
:1008D0000AD121F0070189B22046218304F0F9F9F9
:1008E00010B141F0200121834FF00008C14658E0CB
:1008F0002369D3F80090238B23F0070343F006030A
:100900004FF00008238346464BE02369D3F8049058
:10091000238B23F0070343F00403F1E72369D3F8A3
:100920000890238B23F0070343F00503E8E74FF01B
:100930000008C146E7E7012243F00803238387F359
:100940001188BFF36F8F002A3BD1B8F1000F4AD155
:10095000B9F1000F02D020462C49C847EFF31187A8
:10096000202383F31288BFF36F8F238B23F00803B8
:100970009BB22383D9063FD523F01002228303F0D4
:1009800007056669218B002EBFF67CAF00239946D0
:10099000D4F8008021F00701C4E9003341F00101DF
:1009A0002183238B03F0070AAA4502D0A268002AFC
:1009B000C1D1B8F1000F02D1B9F1000FDAD0002295
:1009C000BAE7A1680029C0D00D680029BDD0334620
:1009D000524620464F68B8471DB12B6829461D4630
:1009E000F3E72B46FAE74146334652462046D8F80D
:1009F000008004F05DF9A8E79A067FF523AF23F0A5
:100A00002002228303F0070527E700BF0B4D0000FB
:100A1000002210B50C4B1C7884420FD00132042AFE
:100A200003F11003F7D16FF0010010BDD2685078C8
:100A3000C00706D5107820B90B60F6E7DA68002AFF
:100A4000F4D16FF01200F0E7EC5A000010B51B4B28
:100A5000986A9C6A10F0100F14BF1120102014F037
:100A6000080F9C6A18BF1220A40709D5586B986A12
:100A7000000604D519B1996A21F08001996213200A
:100A80000E4B996A11F0010F996A18BF142011F0EA
:100A9000200F996A18BF1520CC0658BF9B6A074BD8
:100AA000996A890642BF596A21F400515962996ACC
:100AB00041F0FF0199620023137010BD00ED00E0CA
:100AC00010B5184B986A9C6A10F4805F14BF172009
:100AD000162014F4006F9C6A18BF1820A40509D5CD
:100AE000986B986A000404D519B1996A21F4004101
:100AF000996219200B4B996A11F4806F996A18BF9B
:100B00001A20C9050CD49B6A13F4005F18BF1C207F
:100B100004498B6A43F47F438B620023137010BD3A
:100B20001B20F5E700ED00E0154B9A6A12F0007FFC
:100B30009A6A14BF1E201D2012F0807F9A6A18BF87
:100B40001F2012F4801F9A6A18BF022012F4002F8F
:100B50009A6A18BF212012F4802F9A6A18BF2220A7
:100B600012F4003F9A6A18BF232012F4803F9A6A59
:100B700018BF24206FEA02426FEA12429A6270475D
:100B800000ED00E0002318460649D1F89020C2F39A
:100B90000722934200DB7047C1F89830C1F8A000EB
:100BA0000133F6E700ED00E0002807DB01234109EF
:100BB000034A00F01F00834042F82130704700BF15
:100BC00000E100E000280CDB01220649430900F0A7
:100BD0001F008240203341F82320BFF34F8FBFF323
:100BE0006F8F704700E100E00028ACBF00F160406B
:100BF000064B4FEA4111C9B2ABBF00F5614000F0AE
:100C00000F0080F800131954704700BF14ED00E086
:100C1000EFF30583034A103B02EBC301496852F826
:100C2000330008477064000030B50F4AD2F89030A6
:100C3000C3F30723013B984213D80C7A0B6864F383
:100C400004031D46CB68640923F01F0343EA4403F1
:100C500043F00103C2F89800C2F89C50C2F8A030DB
:100C600030BD6FF01500FBE700ED00E0254B264A94
:100C70004FF47A611A600122244B2548C3F80424FA
:100C8000D0F82436C3F30802C3F309434B4382F47C
:100C900080722049883201FB02334FF4FA215B0055
:100CA000B3FBF1F201FB12331B49B3F57A3F28BFC6
:100CB0000132C1F80429D0F820364FF47A60C3F32A
:100CC0000802C3F30943434342F21C5082F480728A
:100CD00002F2172200FB02334FF47A701B0AB3FBB7
:100CE000F0F200FB12330020B3F5FA7F4FF001035E
:100CF00028BF0132C1F81C27C1F80009C1F800362D
:100D0000704700BFDC0100200020A107002008E0A0
:100D100000C0FF00F82A008000001250084B70B598
:100D2000C31A0D4607499B10044659434022064802
:100D300004F070F82B4601462046BDE87040184785
:100D400004120020B76DDBB6F4580000402373B5E1
:100D50000B4C0093041B0B460D460A49A41061433B
:100D60000646094A094804F081F8014628B1304690
:100D70002B4602B0BDE87040184702B070BD00BFFE
:100D800004120020B76DDBB6DF4E0000F4580000FF
:100D9000014B1B68184700BFF411002070B50221F9
:100DA000044640F20510FFF71FFF1D4B1A79002A79
:100DB0002FD11C4A1A6001221A711B4B197941BBB1
:100DC0001A491A7119601A4B197911BB19481A710D
:100DD0001860194BC3F84014184B1B6A9B0603D4C8
:100DE00040F20510FFF7E0FE2369ABB11C220021A1
:100DF000184604F014FD01251C22114E05640661FD
:100E000024690021A01804F00AFD0020E662E564D0
:100E100070BD6FF00400FBE76FF01500F8E700BF4E
:100E2000F4110020DD160000FC110020910D0000DF
:100E300058120020F14E000000E0105000E100E0E8
:100E4000805B00000A2810B5044603D10D21044838
:100E500000F06EFB0248E1B200F06AFB204610BDD4
:100E6000645900000023024A0020C1E900237047B2
:100E700000D0170000487047785B0000024B0B6001
:100E800001231360704700BF705B0000024B034AF0
:100E90000020C3F80C25704700B00450800000808B
:100EA0004209022A034670B503D0012A18D0CAB1FC
:100EB00070BD0E4E326951680029F9D0012503F04A
:100EC0001F030C689D400029F2D08A682A4002D096
:100ED00030464B6898473CB1236821461C46F2E7F0
:100EE000034EE7E7034EE5E72346F6E72C590000FB
:100EF00010590000485900002DE9F74F4368027A65
:100F000003EBC2029A4204D86FF0010003B0BDE8BF
:100F1000F08F5C798C4200F0B4800833F2E7D8F8A7
:100F20000020C2F3C323082BC2F3080100F2A680FD
:100F30005848C55C40F2FF13994208BF4FF0FF319B
:100F4000B2F1D05F4FEA126310D2192B12D8DFE84A
:100F500003F014233734282F3411111111111111FA
:100F600011111111111111113A484B4E382B41D06A
:100F70004E2B25D06FF08500C8E7C4F804164B1C33
:100F800029D001A80191FFF723FC019B4FF0010933
:100F900007FA03F343604EE0C4F80C164FF0000A62
:100FA00039E04FF00009C4F800164A1C13D03AE0AB
:100FB0004FF00109C4F80416F7E7C4F80816EDE786
:100FC000C4F81016DBE7C4F86015B8F802304A1C04
:100FD00003F0010323D108F1040846459FD1002006
:100FE00094E7C4F86415F0E7C4F86815EDE7C4F8B1
:100FF0006C15EAE701A80191FFF7EAFB4FF0010A3F
:10100000019B00EB8300D0F8803023F0E04343F0F5
:101010008043C0F88030481CDDD0D1460DE0002B65
:10102000AFD14FF0010901A80191FFF7D1FB019B5E
:1010300007FA03F383604FF0010AD8F800B001A863
:101040001BF4004F1CBF4FF001094FF0000A019143
:10105000FFF7BEFB019B104900EB8300D0F8802016
:10106000CBF3412B2B0243EA8B0343EA0A031140E3
:101070000B4343EA4903C0F88030ACE76FF015003A
:1010800044E7D3F800801E790127046808EB860640
:10109000A3E700BF105E0000F0F0FCFF684620F000
:1010A00007018D4601B5034BBDE80140D3F830314F
:1010B0008546704700600C5038B505460221C620B1
:1010C000FFF792FDC620FFF76FFD6C680121E06815
:1010D000FFF712FF6B6819686369C1F82435E28B6A
:1010E000A38BA07E1343228C1343628C1343627E36
:1010F0009BB20243207E02431343C1F86C356968FA
:101100000B68D3F8002242F48022C3F800220822A0
:10111000C3F800254A6A0121C3F83C270022C3F81E
:1011200040271965D3F830110029FBD0C3F80025FA
:101130002846BDE83840014903F0DCBEE54F000019
:10114000F0B5816885B01039054621F00F0403F031
:1011500021FE6A460A4B03F11007164618685968C3
:10116000083303C6BB423246F7D110236A462146F4
:10117000284603F0F9FD003818BF012005B0F0BD86
:10118000725D0000064BD3F840231C2A05D1D3F82A
:101190004403431E5842584170470020704700BF27
:1011A00000C0FF0003689A070CD50368DB070DD564
:1011B0000922074BC3F80C250F22C3F8042501228E
:1011C0001A60FEE7034B0360EF3B0360704700BF0C
:1011D00000801050F000FA50034A4309D35C00F03D
:1011E0001F001844C0B27047005E0000F0B506460C
:1011F000002487B0114F019117F8012B06AB03EBC8
:10120000D20313F8143C02F00702D34013F0010399
:1012100006D10134032CEFD10023184607B0F0BDEE
:10122000074A03AD07CA85E8070055F824100A6A83
:1012300046F824200A62002AEBD0EEE7195E00008F
:10124000105A0000124B70B553F82050013053F87B
:101250002060AE4200D870BD6C68B4B1237EDB075D
:1012600011D4636953B12046984738B10028B8BFFC
:101270004042FF28A8BFFF20E3681870E268537857
:1012800043F0010353700835E3E72B689847FAE70A
:10129000485B00000B4B1A689A420FD072B1D2E93A
:1012A00004321B1A62EBE072B3F1004F72F10001DD
:1012B00004DA002AACBF1846002070476FF00040E7
:1012C000704700BFCC0100202DE9F047454BDFF807
:1012D00018C193F808E0DFF814910CEB0E0191F8B7
:1012E00054504349D9E90032D1E900418A4208BF4C
:1012F000A34205F10C054FEA0E1120D1B0F1806F29
:101300001DDA4001012838BF01201B1842F10002FC
:10131000C9E900325CF835300CEBC50462681B1873
:101320004CF8353001F1A04342F1000240F000409A
:1013300003F562236260C3F82805BDE8F0872D4EEF
:101340002D4FD6E90048D7E90067A41948EB0708F4
:101350004FF0200A26464746E0FB0A67B34272EB8D
:101360000700C9E9006731D21B1B62EB0802C82BDA
:1013700072F10002B4BF012300230CEBC5024CF84C
:1013800035605760C7F3130213B301F1A04303F5AF
:101390006223C3F82065C3F82425184B4FEA8E0E4C
:1013A00073441A68002AC8D04FF0FF346FF04042EF
:1013B000134DD5E90001844272EB010CF9D3B04220
:1013C00071EB0707B9D200221A60B6E70023D4E711
:1013D00001F1A04303F56223C3F82065C3F8242577
:1013E000ABE700BFC0010020400000200002002049
:1013F00018020020200200201002002000210E50C0
:1014000040270E502DE9F84F3B4D1C46D5E900060C
:10141000111A63EB06074B09202143EAC763E3FB7C
:101420000106C5E9000635480025C0E9002400246E
:10143000334AC2E90045EFF3118581F31288BFF307
:101440006F8FDFF8C0A00126DAF800004FF00047E8
:10145000504508BF0020DFF8B090DFF8B080C9F831
:1014600000304FEAE37ED8E900C150B1D0E9044B27
:10147000A3427EEB0B0217DAE21A6BEB0E04C0E913
:101480000424002013EB0C0341EB0E01C8E90031EA
:10149000C9F80000FFF7FEFEFFF716FF85F311887D
:1014A000BFF36F8FBDE8F88F14EB0C0341EBE471D1
:1014B000C8E90031D0E9003213605A600023C0E966
:1014C0000467C0E9003385F31188BFF36F8F836829
:1014D0009847EFF31185202383F31288BFF36F8FB2
:1014E000D9F80030DAF800001B1B504508BF002077
:1014F000C9F80030B5E700BF200200201802002024
:1015000010020020CC010020F01100200802002071
:10151000044B1868044BB0FBF3F0044B43F0010399
:10152000184700BFDC01002040420F00205A000095
:101530002DE9F04104460D464768EFF305838BB172
:101540002021EFF311831A4681F31288BFF36F8FC6
:1015500060680068D0F83001A8B983F31188BFF340
:101560006F8FEEE71C4B1B78002BE9D04FF0200863
:10157000642663681B68D3F83031D3B9FFF7C8FF1E
:10158000013EF6D1F4E77B6A00201D706368796A3A
:101590001B68C3F83C170121C3F84017C3F830019A
:1015A000D3F83001196582F31188BFF36F8FBDE85E
:1015B000F081EFF311831A4688F31288BFF36F8F1F
:1015C00061680968D1F830110029DCD183F31188F2
:1015D000BFF36F8FCCE700BF6613002038B504233C
:1015E0000A4C42F21075C4F80833012363610023EA
:1015F000C4F80831D4F80831D4F84C34DB0303D5EF
:10160000FFF786FF013DF7D138BD00BF00E0105065
:1016100010B51D4B1D4CD3F84C14D3F84C2411F4C9
:10162000803F19D002F00302012A01D08AB90022BA
:10163000154BC3F840240022C3F80821D3F8082131
:1016400001221A6122688AB9D3F80821002AFBD046
:1016500014E0FFF7C3FFEAE7D3F84824D107E6D543
:10166000D3F850249207F4D422681AB10422C3F8A4
:10167000042310BDD3F80821002AFBD00022C3F8B0
:101680000821D3F80831F4E700E010505812002088
:101690000C22104B014602FB0033002030B4D3E98A
:1016A0000E529863EFF31180202484F31288BFF365
:1016B0006F8F1C6C04F0C00444F002041C6480F3BF
:1016C0001188BFF36F8F1DB12B4630BC02481847FD
:1016D00030BC704704120020F4580000022808D0E3
:1016E000042808D1044B186C10F0070003D1FFF751
:1016F000CFBF0120FBE77047041200202DE9F0471F
:1017000006460F46904699460024DDF820A0A245E3
:1017100001D800200FE0AAEB0405B5F5806F28BFC3
:101720004FF4806530462B46094A04EB080103F06C
:10173000F9FA10B10120BDE8F0872B463846044A7B
:1017400004EB090103F010FB0028F3D12C44DEE781
:101750005402002038B50D4B0546C068DC6D03F01F
:101760009FFA844203D2E86803F09AFA044640F2F2
:1017700016226243A968644250322240012328465F
:10178000891A03F0FAFDC00F38BD00BF78110020A0
:101790002DE9F04147680646BD6885B395F8744069
:1017A0006CBB4622214605F1140095F8758004F0C3
:1017B00036F821461A4A2B6852F838C08C4524D195
:1017C0004FF0000840F20D14C3F84481D3F84421CF
:1017D000144A934214BF2046DB20FFF7E5F90123AA
:1017E00085F874302B66BB680F4A0221DB20C3E901
:1017F0000328FFF7F9F902212046FFF7F5F93046F3
:10180000BDE8F041094903F075BBCAB2920002F588
:101810008070442A04BF1C501A580131CEE700BF23
:10182000605B000000A00D50A10E00008944000084
:10183000031E70B5144629DB164DAB4226D8C3F5FE
:10184000BE1303F580539A4220D8CAB142F2010375
:10185000114DC5F80035A9B104F003F8BFF35F8F4F
:10186000D5F81834DB0706D4C4F308041CB10123EF
:10187000AB60BFF35F8F4FF40052074BC3F80025F6
:10188000002070BDFF2103F0CAFFE7E76FF01500ED
:10189000F7E700BFFFCF170000B0045010B50C1ED3
:1018A00010461A460CDB084B9C4209D8C4F5BE14FE
:1018B00004F58054A24203D803F0D3FF002010BDEA
:1018C0006FF01500FBE700BFFFCF170010B4EFF378
:1018D0001180202282F31288BFF36F8F2B490B688F
:1018E00043F0020413F001030C6017D0284BD3F827
:1018F0000C3413F4803311D0EFF3118182F312888A
:10190000BFF36F8F234A136C03F0C00343F002034D
:10191000136481F31188BFF36F8F012380F3118863
:10192000BFF36F8F1BB1002010BCFFF7B1BE184A88
:10193000C2F81031D2F81011C2F81831D2F81811CB
:10194000C2F81431D2F81431134BD3F840331C2BA6
:1019500004BF012393600023C2F80031D2F80031A4
:10196000012313600D4B1B6853B9094BD3F80021B9
:10197000002AFBD00022C3F80021D3F8003102E096
:101980007123C2F8043310BC704700BF541200200A
:1019900000E010500412002000C0FF00FC110020E5
:1019A00070B5EFF31185202383F31288BFF36F8F97
:1019B000154A136823F00201116013F001021BD1D4
:1019C0007121124B42F21074C3F8081301215960BF
:1019D000C3F80021D3F800210D4A0C4ED2F8402361
:1019E0001C2A08BFD960D6F80C3413F4803308D011
:1019F000FFF78EFD013CF6D185F31188BFF36F8FA1
:101A000070BD044A5371F7E75412002000E01050F3
:101A100000C0FF00FC11002038B5084B5A78D207EF
:101A200009D51C783CB9064D284602F0EBFB204650
:101A3000044B1D6038BD6FF01200FBE7FA01002077
:101A4000450E0000E00100202DE9F04F804658F8D7
:101A500004BB90F87540DBF814136A4BC9B253F815
:101A6000342007468BB0584641F4003103F022FB86
:101A70008203054639D50023CDE907330993614B2D
:101A8000E60003EBC404636807A819460093FFF758
:101A9000ADFB331D03934FF0000A5B4B0DF11C09A6
:101AA0000293029A574912F8013B0292039A02EB01
:101AB000D3028A5C03F0070322FA03F3DB071AD48C
:101AC0000AF1010ABAF1030F09F10409E9D14FF44F
:101AD00000310022584603F0EDFA009907A8FFF7FD
:101AE00085FB0028D7D125F400350124002D73D1C2
:101AF0000BB0BDE8F08F454B53440493D9F8006018
:101B0000002EDDD096FAA6F6B6FA86F6049B1C786F
:101B100046EA44142046FFF75FFB07EB4000818A4A
:101B2000F208C1F3820305930193012319F802001F
:101B300006F0070603FA06F620EA060009F8020096
:101B400006A80694FEF744FE069A11F0100F02F163
:101B5000200250F82260059BC6F3014623D0404680
:101B6000019A214603F058FB06A80694FEF730FEC2
:101B7000069BF6B2203350F82330C3F301439E4254
:101B800007D10021204603F0BCFA3146204603F07D
:101B9000B8FA06A80694FEF71BFE0122069B02FA7D
:101BA00003F30362AAE7022E14BF02210321204699
:101BB000059303F0A6FA059B032B03D0022E07D151
:101BC000012BE6D121464046019A03F025FBE0E7D0
:101BD000032EDED1022BF4E795FAA5F3B3FA83F3D3
:101BE00004FA03F225EA020503F5A2725BF822204B
:101BF00007EB43034046B3F86410C2F3014203F01D
:101C00000BFB73E7605B0000195E0000195E0000CB
:101C10000121F8B54E4BD3E8EF2FC3E8E01F0028B1
:101C2000F9D1002A3ED14B4B996099685A6001F076
:101C300003010129DA6035D1DA609A68032A31D8C4
:101C4000EFF31184202282F31288BFF36F8F4FF6D7
:101C5000FF754149888E00F00702C88EA84235D032
:101C6000062A33D8DFE802F01232043212321200B0
:101C700001230130C88684F31188BFF36F8F8BB1C5
:101C800000233449354803F013F80BE000201860B6
:101C9000086AC0B9C1E90733C2B9224602212F48F8
:101CA000FEF7C2FDEFF3058292B1EFF3118120231D
:101CB00083F31288BFF36F8F0122002601252027AE
:101CC000274B284C2EE003600B62E5E70023D2E7A8
:101CD000254B1B78002BE8D00421214BC3F80813B7
:101CE0001146EAE772B686F31188BFF36F8FBFF330
:101CF0004F8F20BF81F31188BFF36F8F62B6D3F887
:101D0000400410F0FF000DD1D3F808C1BCF1000F62
:101D100008D0C3F80801D3F80801C3F84054C4F848
:101D2000A0711D61D3F84CC4D3F84C041CF4803F5F
:101D3000D8D000F003000128D4D12AB181F3118852
:101D4000BFF36F8F0020F8BD0422C3F80423F9E726
:101D5000EC110020DC1100200412002020120020D1
:101D600000E0105000E100E06613002030B50D46A1
:101D7000816887B0102302AA1039044602F0D2FF0E
:101D8000002802DA012007B030BD1022204602A947
:101D900003F046F900283FD11022204902A803F0A1
:101DA0006DFD00280CBF012302232B70A1680123C5
:101DB000203921F00F0120460DF10702203902F0F1
:101DC000B1FF0028DEDB9DF80730204603F00F024C
:101DD0001B096A702B7101220DF1070103F020F934
:101DE00010B96B78042B03D901236B7000232B717E
:101DF000A2682046203A22F00F02103AA91C03F0F4
:101E000021F90028BED1A2682046203A22F00F0214
:101E1000E91C03F017F9B6E70323C6E7725D00007B
:101E20002DE9F04FADF5477D502204900691AEA804
:101E3000002103F0F4FCA44CA44BA54DCDE9A6432E
:101E40000024A44BA44ECDE9A853A44B049ACDE999
:101E5000AA63A34BAC9303F17453A3F52303A3F636
:101E60009243AD93049B52891B891344049AD6680C
:101E70001E44A6422BD8A6A912A803F0BDFA049BC3
:101E800006981C89DB68A6AA1C442146042302F09C
:101E900049FF099098B946F60812BDF89812049BBC
:101EA00091425B8944D1BDF89A12994207D104232B
:101EB0000698A6AA214402F035FF00283AD04FF038
:101EC000FF33039303980DF5477DBDE8F08F351B75
:101ED000B5F5807F28BF4FF4807521462B46814A97
:101EE000069802F01FFF07460028E8D1A846DFF851
:101EF000F491B8F1010801D22C44BAE7C09B5A1CF6
:101F0000C09219F8011B03F546736B443F2A03F88E
:101F1000581CEED9B0A9A6A8FEF772FBAE9BAF9AEB
:101F200013F5007342F10002CDE9AE32C097E0E74D
:101F3000002BC4D146F60713BDF898229A42BED1B1
:101F4000049B69485B89C16D23440893089ABDF8D6
:101F50009A32134440F216220A93436A5B6802FBEA
:101F600001315A424F311140826A406D013A5A4361
:101F70004343521A5B1A9A4228BF1A460A9B93425D
:101F80009DD8231D4FF0FF34059303940A9B059AB7
:101F9000934240F2BF82049B5B8923B1089B93422A
:101FA00004BF043305930423DDE905108AAA02F077
:101FB000B9FE002883D1059ABDF82832111D089A70
:101FC000BDF82A928A4209D84FF6FF75474830F883
:101FD000022BAA423FF473AF9A42F8D1102B0AD0D9
:101FE000222B00F08780012B1CD0059A09F10403F5
:101FF0001A440592CAE7B9F1200F7FF460AF4B464F
:102000000698A6AA02F08EFE00287FF458AF4A4632
:10201000A6A912A803F032FC00287FF450AF0123D8
:102020000993E2E7B9F1200F3FF649AF4B46069816
:10203000A6AA02F077FE044600287FF440AF5A2596
:102040000146502292A803F0EAFB204B1E4A204989
:10205000CDE98A231F4B2048CDE98C131F4B244E1A
:10206000CDE98E031E4B909303F17453A3F5230324
:10207000A3F692439193A49B5A1CA49216F8011BB9
:1020800003F546736B443F2A03F8C81C0CD994A986
:102090008AA8FEF7B5FA929B939A13F5007342F162
:1020A0000002CDE99232A494013DE4D28AA97AA833
:1020B00003F0A2F94A46A6A97AA803F0DFFB041EA2
:1020C00018BF0124644290E767E6096A85AE67BBE2
:1020D00072F36E3C3AF54FA57F520E518C68059B0A
:1020E000ABD9831F6612002078110020545D0000D8
:1020F000825D0000002C7FF478AFB9F1800F3FF6CD
:10210000DEAE4B460698A6AA02F00CFE00287FF42D
:10211000D6AEC1490DAD0D913023284662AA5B3180
:1021200003F0C8F8002840F0AD8113680D9E2846E2
:102130001E44314630236AAA03F0BCF8002840F060
:10214000A1810D9FF31B002B40F39C813B78284617
:102150007A9313687BAA1F44394606237AAC03F0AE
:10216000A9F8002840F08E810D9A6168A26053188A
:102170009F420D9340F07381A84B0C2200211B68F5
:102180008AA89847D4F80480B8F1070F40F07A8104
:102190004246A349A06803F071FB002840F0728119
:1021A0008B9A082A40F06E819E498C9803F066FB5A
:1021B000002840F067810DAF03233146384662AAFC
:1021C00003F078F8002840F05D811368002B00F0E0
:1021D00059810D9D591E11602A78002A40F05281C4
:1021E0002B446A1C9E420D9240F04C81412940F0E4
:1021F0004981A6AB03EB0906236031463023204614
:102200008AAA03F057F8002840F03C817A9B8A9A0A
:102210000DF5F47B13449E42C0F03481324659469A
:102220006AA803F037F9002840F02C81324659465D
:1022300072A803F02FF90390002840F023816B78F7
:10224000042B40F01F812022399061906990A91CD5
:10225000584602F007FD5AAF202205F1220182A85C
:1022600002F000FD62AC202238466AA902F0FAFCB6
:10227000204672A9202202F0F5FC0821384602F01F
:102280001DF9002840F0FE80204602F017F90646AE
:10229000002840F0F7800A466348394602F04DF9BD
:1022A000012840F0EF80082221465F4802F045F9FE
:1022B00001280B9040F0E6802AAC0DF1680A082353
:1022C000594A204602F0E6FA504608218AAD219686
:1022D00002F0E9F8202212A902F0C4FC08235146BA
:1022E0002846224602F07CF9294650464E4A02F022
:1022F00009FA082339462846224602F071F9294690
:10230000494A22A802F0FEF90822484F59462846B9
:1023100002F007F982A992A802F003F9394642A80F
:1023200002F0FFF807F120014AA802F0FAF8294666
:10233000204607920092A7F1400342AA02F0D0F98A
:10234000A7F14402009292AB2A464AA942A802F0A1
:1023500020FC21462046079BA7F1400202F09AFA92
:102360002246A7F14403284692A902F0F4FB0799FC
:102370005046CDE910B5CDE90E6702F0B7F80799E0
:10238000054622A802F0B2F8A842B8BF284685B296
:1023900005F1FF3B0FFA8BFB5946504602F09DF8C2
:1023A0005946824622A802F098F8003818BF01204A
:1023B000BAF1000A18BF4FF0010A0EAB4AEA400A10
:1023C00053F82A10079A32A802F0ABF820313AA845
:1023D00002F0A7F81146204602F065F80B9B023D7B
:1023E0002360A7F140032DB20793002D50DA082394
:1023F000214620460E4A32AD02F04CFA22462846CB
:102400000C4B3AA902F0A7FB08222946064802F025
:1024100094F8012815D00FE0825D00002C5B0000CD
:10242000E65D0000DD5D0000C85C0000E85C0000C7
:10243000A85C0000A45C000008232846384A02F08B
:1024400091F85AA955F8283051F82820B8F1010818
:1024500083EA020346EA0306F4D2B6B112E0525C04
:102460000DAD8A920133394628468BAA0D9302F0AE
:10247000F2FE38B90D9B8B9A8C9313449F420D93B7
:102480003FF480AE4FF0FF3303934FF0FF34ACE5E1
:10249000244B22463AA932A802F080FA29461AA80B
:1024A00002F01BF82946074622A802F016F8031E80
:1024B00018BF0123381E18BF012040EA43000EABAD
:1024C00053F8201019B3082242A802F02AF84AA8AB
:1024D000203102F026F801462246124B42A802F0B3
:1024E0003AFB082342AA009332A9079B52A802F0A4
:1024F000F7F80C4B32AA00934AA93AAB42A802F073
:1025000048FB21462046074B52AA02F097F9013DAD
:102510002DB26AE7099B012B7FF4D1ACD2E400BF56
:10252000C85C0000A45C00002C232DE9F341204D81
:102530000F4603FB0055D5F82080B8F1000F01D1FC
:1025400003F065F9EB682E8940461E4404233146AA
:102550000DEB030202F0E6FB044620B10124204605
:1025600002B0BDE8F08146F60813BDF804206D897D
:102570009A421AD1BDF806309D4201D00324EEE7FD
:10258000042340460DEB0302A91902F0CBFB0028FF
:10259000E4D146F60713BDF804209A42EED1BDF807
:1025A00006302B4433443B60D9E7002DF1D0E5E7FA
:1025B00078110020F0B5214C0546266A85B0F068F8
:1025C00002F06EFB40F216235843B368503083424A
:1025D00001D203F01CF96A79E16D012A12BFB2221F
:1025E00000220F462C7918BF4A4304F1FF3401FB47
:1025F00004342B68A4EB000418BF4F00013B1444C3
:10260000F06807FB034402F04BFB0746304602F03C
:10261000C1FB0F2201460DF1010003F000F92B79F7
:102620006A468DF8003021463B46304602F09CFB5E
:10263000003818BF012005B0F0BD00BF78110020A0
:10264000F7B50221E420FEF7CFFA884B884CD3F887
:10265000182722F44032C3F818272278002A73D1B1
:10266000D3F8101521F00201C3F81015D3F8101596
:1026700041F00101C3F810150521C3F8A416042187
:10268000C3F8AC160723672101F001000244013BA7
:10269000D2B24FEA5101F7D1052A59D119464FF06C
:1026A000010C734E00256720CFB204E00CFA02F251
:1026B00020EA0200013590FAA0F25FFA85FE774524
:1026C000B2FA82F2F2D8013132750529224482F839
:1026D000547006F10C06E5D10121002565489A08E1
:1026E00001FA02F212F0670F18BF1D500433302BAD
:1026F000F5D1E420FEF758FA5C4B5F49D3F810257A
:1027000003F5C07322F00202C3F8902340F6FF7273
:10271000C3F8A82100221A60A3F5807004338B420D
:102720000260F8D10127514D544E2F663068544B4A
:10273000B0FBF3F05D235843524B3B43984727705F
:10274000D5F81035980706D56FF0770003B0F0BDC7
:102750006FF08B00FAE7D5F8103543F00203C5F8A7
:102760001035D5F8482712F0010202BFD5F84837D6
:1027700043F00103C5F848373C4BD3F84017D3F872
:1027800044174900F9D42AB9D3F8482722F00102A6
:10279000C3F848273A4A3368B3FBF2F3334A03EBF2
:1027A0004313002B5BD0D2F84017D2F8445715F0F2
:1027B00080454FD14FF0FF330193EFF31186202373
:1027C00083F31288BFF36F8F019B626801A81340E7
:1027D000019302F032FF00283EDB01226368824051
:1027E00023EA02036360284B1872284686F3118897
:1027F000BFF36F8F002835D1234BA1681A7A0123CC
:1028000093401943A1604FF0FF356FF04041DFF86E
:102810007CC0DCE90067B54271EB070EF9D31C49B7
:1028200026F01F05C1E900574FF0FF364FF0FF3784
:102830000C251849C1E90067A11891F8541005FB4F
:10284000014415492275E1600021084A2161C2F85E
:1028500024337BE7013BA4E76FF00B00C6E76FF082
:10286000730073E76FF00B0070E700BF00200E509D
:102870004000002000210E50B0210E50DC0100204D
:1028800040420F00405A0000C001002040270E5077
:102890002002002018020020051400002DE9F04F4E
:1028A000D50640F2063548BF4FF00309D0F8048042
:1028B00002EA050598F8103058BFC2F3401989B0F4
:1028C00001F01F06B5F5837F144646EA43168DF8DE
:1028D0000A9043D00DD8062D42D005D8A5B1022DBF
:1028E00012D06FF0150036E0B5F5807FF9D10125E3
:1028F0000AE040F202239D4234D0B5F5407F33D048
:10290000B5F5007FEDD1042520032FD50123D8F89C
:1029100004208B405360D8F808707FBB05A805964B
:10292000FDF756FF059BC4F3004100EB8300D0F890
:10293000802081F00101C4F3404343EA410322F4C3
:10294000706243EA890322F00F0243EA052313432E
:10295000C0F88030002009B0BDE8F08F0925D3E72A
:102960000825D1E70625CFE70525CDE7620341BF5E
:102970000123D8F804208B409360CCE731463846D9
:102980000DF10B0202F035FC14F44039019030D106
:102990003046FEF721FC07EB4004A38ADB0719D57C
:1029A000384602F000FC3146384602F0BDFB40B12B
:1029B000A28A3B68520B03EB8203C3F81095C3F85D
:1029C00010953846314602F0C5FB00233046A382FD
:1029D000FDF70EFF019B002BBCD1D8F808309DF805
:1029E0000B1093F87500314B03EB800002F049FBAC
:1029F000B0E7002303AACDE90623384605AACDE9AE
:102A00000333059302F033FE0028A3D114F40033FE
:102A1000D8F808903BD03046FEF7DEFB04F4803B4C
:102A2000074684F48034314648469DF80AA0C4F332
:102A3000004402F084FB20B9484602F075FB0028F0
:102A400088D109EB4707BB8A03F01C031BB1BBF11C
:102A5000000F3FF47FAF05A80596FDF7B9FE059B73
:102A600000EB8300D0F8803023F4706323F00F0371
:102A700043EA8A0343EA440343EA052343F001039C
:102A8000C0F88030BB8A43F00303BB82A2E7CDE9E4
:102A9000063331460DF10A03484605AA059302F0B4
:102AA000E6FD00287FF456AF94E700BFD401002074
:102AB0002DE9F041456801F01F04287C88B044EA04
:102AC0004014A868002800F0BB80B2F5001F06D1B2
:102AD000214602F068FB002008B0BDE8F08168687C
:102AE0006E7CB2F5800F46624FF0000603A8039695
:102AF000466065D1B3F1007F14BF052304238DF830
:102B00000C300023CDE906030593EB680DF10706B1
:102B1000CB4013F0010F5ED1B2F1A07F5BD102A8D0
:102B20000294FDF755FE029B203350F82330DA075C
:102B300051D4AF6832462146384602F05AFB16306F
:102B40000AD197F87500414B03EB800002F075FD48
:102B5000002878DB8DF8070004962146A86805AAAE
:102B600002F085FD0028B7D1AD682146284602F065
:102B7000DBFA80462046FEF72FFB2F6800F108069F
:102B8000B8F1000F39D0284602F0D9FA002834D124
:102B900005EB4606B3885B0B990001F58072B850CF
:102BA000BA582A680A44D2F8101541F00101C2F857
:102BB00010150122296802FA03F3C1F814338AE7D9
:102BC000B3F1C06F05D0B3F1007F14BF012302231E
:102BD00095E7032393E7AF6832462146384602F073
:102BE00008FB0028B9D197F87500184B9DF807101D
:102BF00003EB800002F045FAAFE7D7F8143305EB9A
:102C000046059B035CBF4FF40033C7F81433AB8811
:102C1000C3F38203042B0FD0052B0FD002A802941C
:102C2000FDF7D6FD029BC168D94001F001010231D8
:102C3000204602F066FA4EE70321F9E70221F7E7A2
:102C40006FF0850048E76FF00B0045E7D4010020E6
:102C5000F8B50126324C334DD4F80C3303F0710330
:102C600043B901252E4C304ED4F80C3303F00C033D
:102C70005BBBF8BDB3FA83F30021C3F11F039A00D5
:102C800002F5807292B202F1A04202F58712116041
:102C900006FA03F7042B1268D8B2C4F8087308D0F8
:102CA000062B10D02B689847D4F80C3303F071032F
:102CB000D6E702236B71C4F81411D4F81431202321
:102CC000C4F80433EEE76971ECE7B3FA83F3002745
:102CD000C3F11F039A0002F5807292B202F1A04282
:102CE00002F58712176005FA03F1022B1268D8B2B9
:102CF000C4F8081310D1D4F84C34D4F84C349B07E2
:102D00000AD10423C4F84054C4F804332561D4F82C
:102D10000C3303F00C03ABE733689847F7E700BFC9
:102D200000E01050FC11002058120020F7B5284B8D
:102D3000284CD3F82C6304F188070EB903B0F0BD1A
:102D400096FAA6F00123B0FA80F08340DA432249D4
:102D500026EA0306231893F85450830019440C23E1
:102D600003FB0543DB6873B3D7E8EF3F03EA020CCC
:102D7000C7E8EECFBEF1000FF6D1C340DB0719D58F
:102D8000020102F1A04202F56222D2F82435D2F803
:102D90002025D1F800C0BCF1000FCED04FF0000CC0
:102DA000C1F800C00C2101FB054529690091E968C3
:102DB0008847C2E705F10C0304EBC30C54F8332039
:102DC000DCF80430E5E70A68002AB6D00B60B4E707
:102DD00000200E504000002000210E500FB430B5EE
:102DE00087B00AAC54F8045B01941022002102A8B9
:102DF00002F015FD02238DF80A30064B22462946C3
:102E000002A8039301F00AFA07B0BDE8304004B00D
:102E1000704700BF1D0800001FB50A4B6A461C6AB8
:102E20001023A1682046103901F07CFF034628B129
:102E3000227845210448FFF7D1FF0024204604B042
:102E400010BD00BF78110020235E000000222DE994
:102E5000F04F8FB00446CDE9082201F017FBDFF8F0
:102E60008081002840D05F4DD8F80030AB4206D1B9
:102E7000104609A9FFF758FB08B102F0C8FCD8F8C2
:102E80002C30AB4205D1012008A9FFF74DFB0028EB
:102E9000F3D1DDE90835AB4284BF1D460993A56037
:102EA0004FF0000949215048FFF798FFD8F8243027
:102EB0005F684B463B44AB424E4609F10109F9D3EA
:102EC000204601F0E3FA002837D040F21622D8F865
:102ED0005C30D8F82850534300225033013D3A4427
:102EE0009A420ED2013DFAE7FFF796FF0028C4D0C0
:102EF00004F1080101F02CFF0028BED1A568099556
:102F0000CEE74D4519D857213848FFF767FFB21C67
:102F100007FB05F357217A433548FFF75FFF01238D
:102F2000E371344B1A68002A03DD57213248FFF75A
:102F300055FF00200FB0BDE8F08FD8F82050002DCD
:102F40009BD0D8F84C60002E97D063682B4A03F0D2
:102F5000FF2393423CD12368012B39D130460AA983
:102F6000FEF704FF002888D19DF82820012A35D0DB
:102F7000234B2449032A08BF0B469DF82B204921E7
:102F800002929DF82A20204801929DF82920009263
:102F90001E4AFFF723FF9DF82830032B18D1304637
:102FA000FEF7D8FB00287FF468AF304602F01FFB25
:102FB00000287FF462AF3046A16802F0F2FA0028E0
:102FC0007FF45BAF3046FEF7BBF800287FF455AFC7
:102FD0006379012B40F0A480CB469BE00C4BCCE7FF
:102FE000781100203DB8F3965E5E0000875E000019
:102FF000B65E000054060020385F000000010004A7
:103000005A5E0000545E0000F75E0000E75E0000BC
:103010004F5E00002368C3F101024A445A4577D34A
:10302000D8F82420012B52F83B10D2F800A002EB74
:10303000CB0252F8082C0491A2EB0A02A1EB0A0180
:1030400005910692079342D1E268022A39D02846B8
:10305000FEF780FB00287FF410AFD8F84C000CA9D5
:10306000FEF784FE00287FF408AFE279012A11D030
:103070000E2A3FF602AF8DF82820A968284620398D
:1030800021F00F01079B0AAA203902F05EFA0028FE
:103090007FF4F3AE9DF83330012B05D1284602F0C2
:1030A000A6FA00287FF4E9AE2846A16802F079FA72
:1030B00000287FF4E2AE2846FEF742F800287FF4AD
:1030C000DCAE3046FEF746FB00287FF4D6AEAB6898
:1030D000059A9A42BFF4D1AE9A44049BAAEB030A24
:1030E00057453FF6CAAE134629462846069A00972A
:1030F000FEF704FB00287FF4C0AE2046FFF75AFA23
:1031000023680133236018B13C4A1368013313600C
:103110000BF1FF3BBBF1000F7FF47CAF0123236079
:1031200002234FF00108DFF8D8B06371C8453FF6BD
:10313000F8AE236843455ED8DBF824204FEAC80385
:1031400052F83810083B0791DBF85010D2F800A075
:10315000C85809680590069101460698091A049115
:103160002179012945D1D158AA68A1EB0A039342DC
:10317000BFF483AE5244521A97423FF67EAE2946C0
:103180003046049A0097FEF7B9FA00287FF475AE2E
:103190002046FFF70FFA0223237118B1174A13686C
:1031A00001331360B368049A9A42BFF466AE069A7C
:1031B0001A441346059A9B1A9F423FF65EAE079A41
:1031C00031462846049B0097A2EB0A02FEF796FAC6
:1031D00000287FF452AE2046FFF7ECF92368013354
:1031E00023600123237130B1044A13680133136053
:1031F00001E00229D6D008F1010897E75406002023
:10320000781100202DE9F743314E07460D46002482
:10321000B0464FF02C091DB1284601F037F908B12E
:10322000224632E0FFF7F8FD30B901200CB1002F43
:1032300048D003B0BDE8F08301A901F089FD034641
:103240000028F2D1D8F82420019851681A460A447F
:10325000904203F10103FAD86A79012A0CD1002CBB
:10326000DED128682246984298BF214609FB028297
:10327000106AA8B902F0CBFA022AD1D12A68012A31
:1032800005D99A42CCD884F001020021EEE7C7D1DB
:1032900024B12A79023A18BF0122F6E72246E5E76F
:1032A0002023324601F03EFD0028BED11DB1326818
:1032B000084B9A4208D1631C022B4FF0010406F11F
:1032C0002C06A8D10020B4E74FF0FF30AEE700BFD6
:1032D000781100203DB8F39630B585B069460120DD
:1032E00002F022F9044610B1FF2005B030BD0220E3
:1032F00002A902F019F9012808D1224649213048D3
:10330000FFF76CFD2F4B8DF80C40029300229DF8C7
:1033100000109DF808002C4C2378042B06D0052BB8
:103320002ED14B1E18BF0123002B38D06378042BFD
:1033300005D0052B2BD1431E18BF01237BB3A378E7
:10334000042B03D09DF803509D4228D1E378042B31
:1033500003D09DF80B509D4221D12379042B1AD123
:103360006379023BDBB2022B25D9184B18480022A7
:103370004921FFF733FD6079831E022BB5D9B3E7EE
:10338000A3EB010CDCF1000343EB0C03CCE71D1AAB
:103390006B426B41D2E79DF802509D42E0D0013272
:1033A000032A04F10604B7D10A4800224921FFF795
:1033B00015FD012099E7084A52F82330D6E700BFEF
:1033C000795F000003010303EE5D0000675F00000A
:1033D000C45F0000E85F0000305B00002DE9F047AB
:1033E0004FF02C0808FB00F8DFF8B490044609EB16
:1033F0000806376A8A460FB902F009FA454205F015
:103400002C054D4404222946384601F009FE10B926
:103410003069C3061BD5BCB13846FEF79BF99AF854
:103420000730042B0CD1D9F820000028E4D0FEF797
:1034300091F9024640B949211A48FFF7CFFC03E051
:10344000FFF74AFF0428EED00120BDE8F087316A7B
:103450000029D1D059F80820134B9A4204D0BCB9A6
:10346000124A45211248E8E7F26833899B18F6D2E0
:103470007289D218F3D28B689A42F0D240F60C636C
:103480001842ECD12846FEF7CBFC0028DDD0E6E759
:103490000023BA681946384601F06FFF054AE0E795
:1034A00078110020206000003DB8F3960E60000007
:1034B0005F6000001660000001252DE98048A04BE8
:1034C00091B003201D70FDF7BDFE0420FDF7BAFE8C
:1034D00049219C48FFF782FC49219B48FFF77EFC6D
:1034E0009A4C60220021204602F099F9284604F106
:1034F0002001FDF78DFA002840F0CD80022004F174
:103500004C01FDF785FA002840F0C580B226904AAC
:10351000284602F5B2630CA9626223650C9601F09D
:10352000DFFEC8B1B22257218A48FFF757FC0123BA
:103530009D4284F8583021D1844D95F858308DF84B
:103540003730013B042B00F21582DFE813F0E20173
:10355000C301C301F8010F020C9B0220226D0CA9CC
:10356000A3620C9601F0BCFE08B10925DAE70C9BBA
:103570006365236AD86801F093FBE0650021084683
:10358000FFF740FE28B1002257217348FFF726FCC1
:103590000AE0A66A656DAE420BD06B1C9E4208D055
:1035A00057216E48FFF71AFC0122684B83F8582018
:1035B000C2E7B22E71D800231F46626A216D043221
:1035C00004319D426CD1236AD86801F069FBE36C39
:1035D000D86801F065FBAE4205D9636A03EBC50309
:1035E0005B68BB4262D101230C9303F101230D936D
:1035F0000023206A08A9CDE90E33FEF7B7FB0028A7
:1036000049D19DF82020012A55D0554B5549032A10
:1036100008BF0B469DF82320492102929DF82220E5
:10362000514801929DF821200092504AFFF7D6FBA5
:10363000E06C0AA9FEF79AFB804660BB9DF8282043
:10364000012A3AD0464B4749032A08BF0B469DF84A
:103650002B20492102929DF82A20434801929DF88F
:1036600029200092424AFFF7B9FB9DF82090B9F15A
:10367000010F24D19DF82230032B20D19DF8283052
:10368000012B1CD049213B48FFF7A8FB0223266AE7
:103690000F93002E7AD102F0BAF85721364881E70D
:1036A00052F8337051F83300874202D05721334823
:1036B00078E7013385E7324BACE7314BC7E7492167
:1036C0003048FFF78BFB00230F930CA800F0DEFEC1
:1036D00080F001000CA9C0B2FFF794FD0546002858
:1036E0007FF451AF0CA800F0D1FE184E002840F036
:1036F000D2800CA8FFF7AAFB9DF8373086F8583027
:10370000033B012B06D801F080FF18B1FF230546CB
:1037100086F858309DF83730023B022B06D801F06E
:103720004FFF054610B1FF2386F8583096F8583001
:10373000FF2B40F0A58045211348FFF74FFBAAE778
:103740006613002087600000A06000007811002050
:1037500058060020D0600000126100003E610000A9
:103760005A5E0000545E0000F75E0000D161000068
:10377000E75E0000DF61000076610000A5610000E7
:103780004F5E0000FE610000626200003378013B82
:10379000012B71D8F06840F21627D4F85CB001F024
:1037A0007FFA7843B36850308342FFF474AF1B1A3A
:1037B00004934FF0FF354B46B9465FFA8BFB0693F7
:1037C000049BCDF8149009F1FF3919FB0B313046F9
:1037D00001230AAA01F0A6FA031E07934CDB01227B
:1037E00030460AA901F01CFC079B90B3069A93424D
:1037F00001D008F10108013FE1D1B8F1010F03DD6B
:1038000045216748FFF7EAFA691C07D0B12D26DC8D
:1038100040F2011301350C95ADF83430B168012345
:10382000203921F00F0130460AAA203901F07AFA36
:1038300010BB012230460AA901F0F2FB10B10123AE
:103840008DF828309DF8283003F00F038DF83730BD
:103850003BE7059AB5F1FF3F08BF1546CBE70223CA
:10386000B23D8DF835306B1005F00105013301359F
:103870000C938DF83450D1E700225721494885E652
:10388000002D7FF408AF29462846FFF7BBFC00282F
:103890003FF48AAEFFE69DF83770012F0ED1FFF797
:1038A0001BFD831E022B054604D838460CA9FFF7E2
:1038B00095FD00B9284686F858003DE601200CA980
:1038C000FFF78CFD18B1052386F8583034E69DF8D3
:1038D0003730F9E795F840202B7D9A422FD80AD34C
:1038E00095F841206B7D9A4229D804D3B5F842203F
:1038F000EB8A9A4223D2002249212B48FFF76EFA25
:103900000023E06C1946826801F037FD012384F83A
:10391000583095F85830FF2B3FF40DAF0021012BA4
:103920000A912BD100210846FFF758FD074650BBEE
:103930000A9B01330A930A9B012B2CD0FEE70CA8AB
:10394000FFF784FA95F85830DA1E012A0AD801F0F8
:103950005CFE18B901F034FE0028DAD0FF2385F8A8
:10396000583098E6023B012BD3D8F3E701F04DFE27
:103970000028CED0FF2385F85830CAE70846FFF765
:1039800041FC0028CED04FF0FF378FB145210748CA
:10399000FFF724FAFEE72B6AD3F804A0F5E700BF8F
:1039A00015620000386200006E620000A96200002B
:1039B000524649217C48FFF711FAE38A49210093D6
:1039C000637D227D7948FFF709FA49217848FFF79E
:1039D00005FA2389774C784EA04658F8045F534483
:1039E0003360ED4367234FF0010ADFF8D09105F013
:1039F0006705C9F82833002D40F0B280E420FDF7B8
:103A0000E1F86E4BD3F8482722F00102C3F84827AB
:103A1000D3F8102522F00102C3F81025D3F81025A1
:103A200022F00202C3F8102501225A669A66257018
:103A3000EFF31182202383F31288BFF36F8F604866
:103A4000818E01F00701022940F0A880C38E013B5E
:103A50009BB2C386002B40F0A1801C30FCF7E4FE33
:103A6000584B594A1B684FF47A70B3FBF2F34FF08E
:103A700000085843554B4FF0FF3743F00103984778
:103A80004FF0010BC146DFF848A15AF8044BC4F8C7
:103A90000873C4F30830FDF795F80021C4F82CB082
:103AA000C4F85091D4F85031C4F84C91D4F84C314A
:103AB000C4F82491D4F82431C4F80095D4F804361D
:103AC0000C93D4F80C360D93D4F810360E93D4F82A
:103AD00008360F93C4F80476C4F80C76C4F8107650
:103AE000C4F808760CAC54F8040B431C01D0FCF766
:103AF0007FFE01310429F6D108F10108B8F1030F66
:103B0000C3D101224FF0FF31324B5A60DA60C3F863
:103B10000813BFF36F8F72B600232F4A03F1200002
:103B20000133102B42F82010F8D14FF0FF3105F18E
:103B300060030135102D42F82310F8D10024274BE3
:103B4000C3F80444FDF71EF884F30B8884F30A8855
:103B5000234B3068984745212248FFF73FF9FEE79D
:103B6000A3680AFA07F202EA030111F0670F1CBF0B
:103B70009343A3606368DB4303F0670313420AD0F7
:103B8000002209EB0713C3F82C25EA0703D54046AA
:103B9000F9B201F076FA6D0801372CE782F311884B
:103BA000BFF36F8F5CE700BFCC620000FB620000D8
:103BB0001963000040000020D811002000200E50A2
:103BC00004120020DC01002040420F00305A0000A7
:103BD0003C5B000000E0105000E100E0002008E045
:103BE000010000203E63000008B50548FFF7F6F825
:103BF0000448FFF7F3F80448FFF7F0F8002008BD89
:103C0000596300008A630000BD63000030B53B4B80
:103C100004465B6800208BB0C3F3080380F311886F
:103C2000BFF36F8F02F07F45B5F17F4F08D102F0EF
:103C30000C05082D04D012F0080F0CBF20460846D2
:103C40000022033B8DF80720032B03D8DFE803F0A5
:103C50000A4C504900209DF80730002B4CD102A996
:103C600001F09FF8254BDA6A9107F3D4DA6A002A4B
:103C7000F0DBDA6A5200EDD55A69816942F480724C
:103C80005A61BFF34F8FBFF36F8F31F8022C596920
:103C900021F480715961BFF34F8FBFF36F8F02F42E
:103CA0007F43B3F55F4F04D1D2B2022A01D100683D
:103CB000D1E7124B9A6AD2B22AB101210DF1070263
:103CC000FCF7C4FEC7E79A6A12F47F4F05D00121C2
:103CD0000DF10702FCF7F4FEBDE79B6AB3F5803FE8
:103CE000B8D3FCF721FFB6E700210DF10702E7E7A3
:103CF00000210DF10702EDE70BB030BD00ED00E053
:103D000010B572B6002484F31388FCF73BFF2346FA
:103D10004FF0FF300C4A03F120010133102B42F821
:103D20002100F8D100234FF0FF30074A03F1600172
:103D30000133102B42F82100F8D162B6BFF34F8F48
:103D4000BFF36F8F10BD00BF00E100E08FB59D4A4B
:103D50009D4B22F07F029A60BFF34F8FBFF36F8FAE
:103D6000D3F88820994822F47002C3F88820984A32
:103D70000021121A01F053FD9648974A9749121AEA
:103D800001F06FFD9648974A9749121A01F069FDB4
:103D900040F20F14002210B201210132FCF724FF7F
:103DA000A242F8D10020FDF74DFA904B03F50062D6
:103DB00082F3088883F30A880021E022824B8C4E2C
:103DC00083F82220D97719765976997683F82010CE
:103DD0005A6A42F4E0225A6283F823105A6942F088
:103DE00010025A615A6942F480625A615A6922F09B
:103DF00008025A6110221A614FF0FF329A62DA62A9
:103E0000D3F8902012F47E4F29D0BFF35F8F794A08
:103E1000C3F89410C3F8C02002227748C3F8981062
:103E2000C3F89C20C3F8A0000120C3F8980000F15B
:103E30000050C3F89C0000F57F3000F2E230C3F878
:103E4000A0003270D3F89000C0F3072082422FDB2D
:103E50000522C3F89420BFF34F8FBFF36F8F6749DC
:103E600034784D68A4461DB11F2D43D86FF015045A
:103E700001203470FDF7E6F90220FDF7E3F9002395
:103E800083F30B885E4C5F4DA4F5205686F30B88B8
:103E900084F30988002004498847184619461A46C1
:103EA000A84702488047FEE7EF570000FD57000093
:103EB000C3F89820C3F8A0100132C3E7C7F89800F0
:103EC0002046D7F8A03003F01F031343C7F8A030F3
:103ED00000F07EFF6FE0C7F89800D7F89C3060468E
:103EE00063F30405C7F89C50F2E7D145F3D100F025
:103EF0006FFFBDE7E806B9D10B68DA06B6D143E833
:103F000000F21D4412F4803F5FFA82F805F1FF3A97
:103F100008BF6FF015084AE800F2D703D0B2A5D564
:103F20004045A3D14445A1DD274FC7F89880D7F875
:103F30009C20C7F89880D7F8A09022F01F029342E7
:103F400049F01F09D1D0013BD14523F01F02B5D064
:103F5000C7F89880D7F8A030204603F01F0313431A
:103F6000C7F8A03000F034FF10F1160F3FF47EAF19
:103F7000C7F89880D7F89C209DF8083009F1FF39E0
:103F800062F304038DF80830D7F8A030009525F0CF
:103F90001F059DF808204D445B08A5EB0A0501307C
:103FA00063F3471225F01F056946C0B28DF808205B
:103FB0000395FCF739FE10F1160F3FF457AF441C80
:103FC00056E700BF0000000000ED00E00002002006
:103FD000681300204000002000020020286D00002F
:103FE0000000002040000020E86C0000683B00203A
:103FF00067130020AAFF4400E1CF17008C5B00008C
:10400000683B0020B934000008B50548FEF7E6FE1D
:10401000002383F31188BFF36F8F0423184602DF58
:10402000EA63000008B501233F4A4048C2F800385F
:104030003F4AD2F840231C2A04BF3E4AC2F80C343F
:10404000FDF7B0F80830FDF7ADF80830FDF7AAF835
:104050000830FDF7A7F800F5F470FDF7A3F8364A2D
:10406000D2F88C3043F44063C2F88C300022D30085
:1040700003F57F0303F54043D3F8001401310AD060
:10408000D3F8001439B1D3F800140132D3F8043452
:10409000402A0B60EBD1244BD3F84024002A3ED0B9
:1040A000FDF770F848B1224BD3F83423234B9A42E2
:1040B0009EBF1D4B224AC3F84026FDF763F818B196
:1040C000204B214AC3F8AC27FDF75CF848B13422F5
:1040D000154BC3F82426D3F83C2622F40022C3F85B
:1040E0003C261A4BD3F80026D20744BF6FF00102DA
:1040F000C3F80026164BD3F8182522F00302C3F8A4
:104100001825D3F8182542F00302C3F818250A4AE7
:10411000D2F88C3043F44063C2F88C3008BDC8221A
:10412000C3F84024BCE700BF0000125000C50D508A
:1041300000C0FF000030055000ED00E0001D0A182F
:1041400040E0A91E00A0085078000A0400E01050CA
:1041500000B0045030BFFFF7FDBF00BFEFF3088091
:10416000EFF3098101B57246FFF750FD01BD00BFB5
:10417000002080F31488BFF36F8F002080F30A883B
:1041800080F30B880F4880F30888FFF74BFF00206F
:104190000D490860BFF34F8FFFF7B2FD202080F379
:1041A00011880A484FF40061401880F30988EFF342
:1041B00014800221084380F31488BFF36F8FFFF748
:1041C000C5FD0000683B002094ED00E0683B002046
:1041D0001EF0040F0CBFEFF30880EFF30980816934
:1041E00011F8021C0229FFD001B5724601F0F8FA5D
:1041F00001BD00BF08B5024B1B689847002008BDF1
:1042000060120020034B044A1860937843F00203C5
:104210009370704760120020E40100202DE9F04FF8
:104220008378154685B007469A07D0F8048040F198
:104230009F8000260878002800F09C80252808D060
:1042400001F1010A01363946C047002880F2868014
:104250008AE091F801B001F1020ABBF1250FF1D01B
:10426000002401211F2C25D8ABF12002102A06D8EA
:1042700001FA02F0824B18420ED1032A5AD0ABF158
:104280003002092A08D9BBF12A0F33D1630605F1A0
:10429000040501D444F020041AF801BBBBF1000F5F
:1042A000E0D139462520C04700285DDB023639467B
:1042B0005846C9E77F2CE2D9BBF16C0F29D021D831
:1042C000BBF1680F2CD0BBF16A0F30D0BBF14C0FA3
:1042D0002DD0ABF16302122A00F2A480DFE802F0D5
:1042E0002C4EA2A2A2A24EA2A2A2A2A2AC9CA2A2C8
:1042F00031A27600BBF12E0FDED160063AD444F035
:104300004004C9E7BBF1740FC6D0BBF17A0FC3D02C
:10431000DFE7220648BF44F4007444F08004BBE7A2
:10432000E30548BF44F4007444F48074B4E744F4F3
:104330002074B1E71024AFE70136394615F8040BB5
:1043400082E72C684F4B002C08BF1C46A1464B4609
:1043500019F8010B20B9341B04351E19514669E7C1
:104360003946C0470028F2DABB7843F00403BB703B
:104370004FF0FF36304605B0BDE8F08F20061CD563
:10438000A10549BF073555F8040B25F0070555F879
:10439000080B00280DF104094FF00A02BCBF44F4D9
:1043A00080644042494601F042FA6405A0EB0909E5
:1043B00056D44C460DF1040B5EE0E20555F8040BB3
:1043C000E7D5A3054CBF40B200B2E2E724F01004E9
:1043D0000A22A4B2200633D5A10549BF073555F8F6
:1043E000040B25F0070555F8080B10B924F010044C
:1043F000A4B20DF10409494601F019FAE306A0EB55
:104400000909D6D539463020C0470028ACDBBBF1BE
:10441000000F1ED10136CCE744F0100410224FF0FB
:10442000780BD7E74BF02002782A7FF43AAFCBF134
:10443000780242F01002CDE708224FF0000BC9E7E6
:10444000E30555F8040BD0D5A1054CBFC0B280B22E
:10445000CBE7023639465846C0470028A9DA83E739
:10446000013639462D20F7E7013C39461BF8040098
:10447000C0470028FFF678AF002CF5D14E446DE719
:10448000812801001C5E0000002070474379012B49
:1044900007D10368012B04D10079431E58425841CB
:1044A000704700207047002310B51C465AB2914255
:1044B00000DC10BD40F823400133F7E700231A4623
:1044C00010B55CB2A14203DCB2FA82F0400910BD23
:1044D00050F8234001332243F3E701234A1150F8F7
:1044E000220001F01F018B40184070474B1E10B591
:1044F0005BB2041D1A0603D45A1E54F8221071B17F
:1045000001335BB24BB103F18042013A50F82220F3
:10451000B2FA82F2C2EB43139BB218B210BD13463B
:10452000E8E7002310B55CB2A24200DC10BD51F8F0
:10453000234040F823400133F5E710B5013A52B269
:10454000130601D5002010BD50F8224051F822304A
:104550009C4205D802F1FF32F2D24FF0FF30F2E771
:104560000120F0E7F0B5002406469C46204665B2DF
:10457000AC4500DCF0BD51F8247052F824303D1AEF
:10458000ED1AAF4218BF002046F8245038BF40F063
:1045900001000134EBE7F0B500240646204665B281
:1045A000AB4200DCF0BD51F8247052F824503D4479
:1045B0000544AF4218BF002046F8245088BF40F0A1
:1045C00001000134EBE7002300EB8101884200D3B6
:1045D000704751F8042D43EA52030B60D307F5E707
:1045E0002DE9F74F00273C463D464FFA87F999459C
:1045F00016DB4FF0FF364FF0000806EB430601963E
:10460000019F53FA88FE4FFA8EFEBE455FFA88F688
:1046100028DB00EBC30040F8044C03B0BDE8F08F8A
:104620004FF0000EF04602EB870A51F82EC05AF800
:1046300004694FF0000BACFB066C36195CEB050C03
:1046400028BF4FF0010B0EF1010E34464FFA8EF6E3
:10465000B1456546D844E8DA40F827404546644607
:104660000137C2E7A9460025013676B202EB8E0A71
:1046700077B2BB4205DC40F82E4008F101084C46F9
:10468000BEE76FF00307774351F826C05AF807706A
:104690004FF0000BA7FB0C7C3F195CEB090C28BF0B
:1046A0004FF0010BE1463C465D440136E0E770B552
:1046B0009DF910601D4633460446FFF76CFF30B984
:1046C000324621462846FFF738FF012807D03346F7
:1046D0002A4621462046BDE87040FFF743BF70BD23
:1046E00070B59DF910601D4633460446FFF73AFF4A
:1046F00038B133462A4621462046BDE87040FFF7D0
:104700004ABF70BD2DE9F04F1D46A7B006ABCDE9FD
:1047100004310290294610469046FFF7E7FEC0EBB1
:10472000851424B22146002CB8BF04F11F01634256
:1047300003F01F0316AF384641F3471104F01F067C
:1047400058BF5E42FFF7AFFE002E4FEA81002CDD1E
:10475000002213463844C6F1200E9D421AD8012685
:10476000AB00039307EB8503019305F1FF3826ABFC
:104770004FEA450903EB8808002C55DA26AB03EB1A
:1047800086062A4656F8881C0298FFF7CAFE27B00C
:10479000BDE8F08F58F823C001330CFA06F10A4344
:1047A00040F8042B2CFA0EF2D7E72A46414638444B
:1047B000FFF7B7FED3E75AF8883C53F8212026AB21
:1047C00003EB810353F8403C6344D31A34BF4FF0EA
:1047D000010B4FF0000B9A4204D0BBF1000C18BF44
:1047E0004FF0010C5EF8882C013042F8213041B2C4
:1047F0004945E0DBA6EB0C035E42294638465E41A4
:10480000FFF7E1FE039B294698336B4453F8402C95
:1048100058F8403C019843EAC273013C48F8403CD8
:1048200024B2FFF7D0FEA7E7002026AB86F0010EEA
:10483000844603EB860A03EB8E0ED8E730B50546B7
:104840001C4691B0684693F90030FFF7C9FE6946EF
:104850002846D4F8AC30984711B030BD70B5036825
:10486000054613F00106144605D013460A460146D4
:10487000FFF791FE064621462846FFF7A4FE46B103
:1048800004F18042013A55F8223043F0004345F8E4
:10489000223070BDF0B50F460646A1B01946384625
:1048A00015461C46FFF70AFE28B1304621B0BDE888
:1048B000F040FFF7F8BD224639466846FFF731FE63
:1048C000294608A8FFF72DFE10A82146FFF7EBFDAB
:1048D000012318A81093FFF7E6FD2246684608A9B1
:1048E000FFF72BFE30B92246304610A9FFF719FE1C
:1048F00021B0F0BD009BDA0709D421466846FFF7D6
:1049000062FE2246294610A8FFF7A8FFE5E7089BAC
:10491000DB0707D4214608A8FFF755FE22462946A3
:1049200018A8F1E7012823461CD108AA6946684661
:10493000FFF718FE21466846FFF745FE224618A9F4
:1049400010A8FFF7FAFD013005D110A923462A4629
:104950000846FFF720FE10A92346084618AAFFF7CD
:1049600001FECEE76A4608A8FFF7FCFD214608A82D
:10497000FFF729FE224610A918A8FFF7DEFD013037
:1049800005D118A923462A460846FFF704FE18A9B0
:104990002346084610AAFFF7E5FDBFE72DE9F047DB
:1049A00093F900600446894692B031461046154698
:1049B0001F46FFF783FD002840F095803B464A469E
:1049C00049460AA8FFF73AFF3B4621460AAA02A831
:1049D000FFF734FF0AAA114610463B46FFF72EFFA9
:1049E0003B462A4649464846FFF728FF07F1040898
:1049F0003B462A4629462846FFF720FF43462A46DB
:104A0000214620460096FFF752FE43462A46294695
:104A100028460096FFF74BFE43462A462146284685
:104A20000096FFF75DFE3B462A4621462046FFF7EB
:104A300005FF43462246214628460096FFF737FEEB
:104A400043462A46214620460096FFF730FE23685B
:104A5000DB074BD53346424621462046FFF79BFDF8
:104A6000824631462046FFF7AEFD06F18043013B0A
:104A700054F8232042EACA7244F823203B462246D7
:104A800021462846FFF7DAFE43462946284602AA71
:104A90000096FFF725FE43462946284602AA0096BF
:104AA000FFF71EFE02A9084643462A460096FFF776
:104AB00017FE3B462146204602AAFFF7BFFE0AAA80
:104AC0004346104621460096FFF70AFE3246294625
:104AD0002046FFF726FD49462846FFF722FD4846B7
:104AE0000AA9FFF71EFD12B0BDE8F0873146204647
:104AF000FFF769FDC2E72DE9F0418AB0044615468B
:104B00000E461C22002103A800F089FE032395F91C
:104B1000008032463146204602932F1D2B46FFF778
:104B20008DFE3B462146204602AACDF80080FFF7C5
:104B3000D7FD2B46324621462046FFF77FFE3B46F7
:104B400021462046CDF8008005F18402FFF7AFFD35
:104B50000AB0BDE8F081F0B51C46074615460E4682
:104B600089B011466846FFF769FE23466A46394612
:104B70003846FFF763FE23462A4669466846FFF734
:104B80005DFE23466A4631463046FFF757FE09B0C0
:104B9000F0BD2DE9F0478AB0DDF848A0144656462E
:104BA00080461D46894616F9047B02463346214657
:104BB00002A80097FFF794FD02AA5346114610463B
:104BC000FFF73CFE53464146404602AAFFF736FE39
:104BD00053462146204602AAFFF730FE33464A4696
:104BE000294628460097FFF77BFD53462A4629466B
:104BF00002A8FFF723FE02A9334642460846009763
:104C0000FFF76EFD02A93346224608460097FFF7DC
:104C100067FD33464246214620460097FFF760FD78
:104C20005346224649464846FFF708FE334641466A
:104C3000204602AA0097FFF753FD53462246294615
:104C40002846FFF7FBFD33464A462946284600978B
:104C5000FFF746FD3A46204602A9FFF762FC0AB07C
:104C6000BDE8F087F8B50E46D11C48BF911D14462B
:104C700041F38701FFF717FC0025671E6AB2A242C5
:104C800005F1010500DBF8BDBB1A23F00301B25C9E
:104C900003F00303DB009A40435813434350EDE70E
:104CA00008B58368DB689847006808BD0020704736
:104CB00030B400258C68CB6004F00304032C14BFCF
:104CC0002C464C688D6014B1A44630BC604730BCA3
:104CD0007047038B13F0070306D10368002B18BF3E
:104CE000032008BF00207047022B05D1408BB0FA8B
:104CF00080F0400980007047012B04D10368002B2D
:104D000018BF0520EDE70020704710B4EFF31182C3
:104D1000202484F31288BFF36F8F416110BC0121FE
:104D2000FBF782BD002930B404460DDB8068884261
:104D30000AD9401A834207D8E0686468214484682D
:104D40002468A44630BC60476FF0150030BC704743
:104D500010B484680A46203C24F00F04A4F130010A
:104D6000042310BCFFF7DEBF002930B404460DDB7E
:104D7000806888420AD9401A834207D8E06864688C
:104D8000214484686468A44630BC60476FF0150015
:104D900030BC704708B5C0688368DB6898474079C5
:104DA00008BD012801D1EFF30583EFF31183202320
:104DB00083F31288BFF36F8FEFF3118283F31288AE
:104DC000BFF36F8FFEE70021012008B5FFF7E9FF71
:104DD00030B50C684B6885B00A894D890094013B59
:104DE00024F01F04234402F01F0242EA451223F07C
:104DF0001F0369468DF808200393FBF715FF05B0E4
:104E000030BD0C220369C9B202FB0133186C00F0FB
:104E10000700704770B50346C9B20069EFF3118609
:104E2000202484F31288BFF36F8F0C2505FB010447
:104E3000246C14F0C00401D0A24211D1012205FB60
:104E400001000264002086F31188BFF36F8F30B930
:104E50000C225B6802FB01335B689847002070BD41
:104E60004FF0FF30EFE78022FFF7D4BFF8B5069F81
:104E700005460469C9B2EFF3118C202080F3128833
:104E8000BFF36F8F0C2606FB0146306C00F0070E57
:104E9000BEF1010F10D1376400268CF31188BFF3E7
:104EA0006F8F3EB90C2041430C44C4E90E236B685C
:104EB0005B5898473046F8BD00F0C00087420CBFF1
:104EC0006FF077064FF0FF36E7E713B580240094C4
:104ED000FFF7CCFF02B010BD6FF08500704710B433
:104EE0001C240069CBB204FB0300002110BC104756
:104EF000FBF74EBF38B50C4603210546A0470028F6
:104F000002DA10F1860F04D101212846A04700EAF9
:104F1000E07038BD436800205B68DB680B60704759
:104F2000436802EA01005B6821EA02015860002040
:104F300099607047436800205B6859607047436818
:104F400000205B689960704743685B681A6821EAD3
:104F500002001140586000209960704730B5036925
:104F6000586800B30024884219D108688CB99C683D
:104F70005860A14200D19860002008602AB15A68A8
:104F80000A609A68596002B9996000200FE02846CB
:104F9000E9E720609868814208BF9C60ECE70568FB
:104FA0000446002DF3D1002AE9D16FF0150030BD81
:104FB00043681B68D3F88004C3F8800470474268D4
:104FC0001368D3F84C0150B10020926A12780A702D
:104FD000C3F84C01D3F84C2101229A6270474FF07C
:104FE000FF307047012970B50D4616D14668002183
:104FF000F0683468FBF780FF0823C4F80035337A83
:105000004BB9B26AC4F80427C4F80857C4F84C3145
:10501000D4F84C31A562002070BD6FF08500FBE72D
:1050200038B515460C4659B1FFF7B4FE2146254464
:1050300011F8013B834203D1A942F9D1012038BDC7
:105040000020FCE738B50C460123114622460546F0
:10505000FFF768FE00280FDB012221462846FFF7F4
:10506000DFFF18B103230020237038BD2378012B04
:1050700014BF02230123F6E70120F6E703460020D0
:10508000184710B50368CB40DB0710D401238B40D1
:10509000026843EA0201D0E8EF4F944204D1C0E82D
:1050A000EC1FBCF1000FF6D1F2D1002010BD6FF063
:1050B0001500FBE7F0B504460020012705468446AD
:1050C00095420AD1D4F8443133B10023C4F84431B5
:1050D000D4F8443140F40030F0BDEBB29B0003F54E
:1050E00080769B0807FA03F3194208D054F806E0CB
:1050F000BEF1000F03D044F806C0A659184301358D
:10510000DEE707B5019001A8FBF762FB019B00EB0E
:105110008300D0F8803023F4403343EA0141C0F8E3
:10512000801003B05DF804FB10B504460846FCF798
:1051300053F804EB4004207DC0F3401010BD10B5BF
:1051400004460846FCF748F804EB4004207DC0F311
:10515000400010BD10B504460846FCF73DF804EBCE
:105160004000838ADA051DD5C3F3432123F4F853A5
:10517000838204F1120204F1580032F8023F13F462
:10518000807F03D0C3F3432399420BD08242F4D1F2
:10519000002204EBC1035A6004F16000BDE8104036
:1051A000FFF76FBF10BD38B504460D46FFF7BCFFD3
:1051B000C8B12046FFF7C3FFA8B90846FCF70CF8B2
:1051C000012304EB4000828A2168520B9340C1F80E
:1051D0001833236803EB8203D3F8102522F003026F
:1051E000C3F8102538BD2846BDE838400021FFF738
:1051F00088BF70B504461546FFF796FF48B10846CC
:10520000FBF7EAFF04EB40040020A38A5B0B2B7042
:1052100070BD6FF01500FBE770B5044608461646F2
:10522000FBF7DAFF083034F810300D46DA0509D5FF
:10523000C3F3432304EBC3023146284654F833300A
:1052400052689847A3682BB131462846E268BDE80A
:105250007040184770BD70B504680D1B002D02DC4E
:105260006FF05F0070BD94F900602378002E0ADBB8
:10527000631C0360237813600368C91A13688B42A8
:10528000EED80020EEE703F07F035C1E032C0ED85F
:105290009D42E5DD002414600468013B0134046094
:1052A0005E1C1568E8D0247844EA0524F3E76FF023
:1052B0006300D7E770B404680E1B002E07DD267864
:1052C0009E4208D10134046070BCFFF7C4BF6FF088
:1052D0005F0070BC70476FF06100FAE7FCF77EB9C1
:1052E0002DE9F04F87B00E46C0B203A91746FBF771
:1052F0008FFB044600283AD1039B002B37D0D3E91B
:10530000018AD86804A9836805AA5B69D6F8009069
:105310009847059B25460193214623460498C2449D
:105320000430019A914204D13360204607B0BDE8B1
:10533000F08F4FF0000CD0F800E050F8042C9445AA
:1053400002D301310830ECE7A8450CD8AA45EBD9C7
:1053500099450FD907EBC302A5EB080B47F833B00B
:10536000C2F804E0013375440CF1010CE5E76FF07D
:105370001504DAE76FF00B04D7E72DE9F043064692
:105380000D461F46144685B02AB38368994230D231
:105390005B1A93422DD3C068FFF782FC81463046EA
:1053A000FFF7F8FC10220146684600F038FA2C445A
:1053B000C9F100089FB105EA0808A4EB09054545B5
:1053C00009D04B466A4629463046FFF7CDFC18B94E
:1053D0005FB1454506D8002005B0BDE8F08308EA76
:1053E0000408ECE7A5EB0905E9E74D44A845E6D834
:1053F000F1E74FF0FF30EFE7F8B50C468A6E05464F
:10540000D1E90831D0001B1841F10001C4E908318D
:105410008021501C38282244A0664FF0000782F8F3
:10542000281004F128060BD9C0F140023946304457
:1054300000F0F5F920463146FBF7E2F83846A7665A
:10544000C0F138020021304400F0E9F9236A626AB1
:105450001BBA12BA3146C4E918232046FBF7D0F82C
:105460002B1D211F243551F8042F0433100E03F88F
:10547000080C100C03F8070C100A03F8060C03F8CC
:10548000052CAB42EFD170220021204600F0C7F975
:105490000120F8BD2DE9F3410D46044611460223D3
:1054A000284601AAFFF706FF064618BB019F1F2FDB
:1054B00012D92B68A7F12002134403F1200253F8FC
:1054C000041B934244F8041BF9D12B683B442B6026
:1054D000304602B0BDE8F081C7F1200842460146DF
:1054E000204600F09CF93A46296804EB080000F0D9
:1054F000B8F9EAE76FF00206EAE7084611461A46ED
:1055000021B103431B0701D1FCF792B96FF01500DD
:10551000704741EA02030846C3F30B0109B9FCF7DF
:1055200087B96FF01500704713B50C46C0B201A9DA
:10553000FBF76EFA30B92146019802B0BDE8104081
:10554000FCF714BC012002B010BD2DE9FF471D4639
:105550000646C0680F469046FFF7A2FB6C1E044447
:1055600040420440102C01D900F051F93046FFF7B9
:1055700011FC82462A464146684600F072F95146BF
:10558000621B0DEB050000F04AF923466A463946D6
:105590003046FFF7E9FB003818BF012004B0BDE832
:1055A000F087042307B5019181680DEB03022039D0
:1055B00021F00F013039FFF7C8FF03B05DF804FB9D
:1055C00007B5012001A9FBF723FA70B9012301985F
:1055D0006A4681688DF80030203921F00F011039BA
:1055E000FFF7B3FF03B05DF804FB0120FAE70123E6
:1055F00007B5816801AA203921F00F018DF8043028
:10560000FFF7A3FF03B05DF804FB1FB5012001A95C
:10561000FBF7FEF910B1012004B010BD019C02A9F6
:105620002046FCF7A3FB0028F5D19DF80B30032B97
:10563000F2D12046FFF7DBFFEEE7024610B5116816
:1056400091B1B1FA81F3C3F11F000123834021EA34
:105650000303D2E8EF4F8C4204D1C2E8EC3FBCF127
:10566000000FF6D1EBD110BD6FF00B00FBE72DE979
:10567000F743174604460846FBF7AEFDD7F800800F
:105680000D460646B8F1000F25D02046FFF757FD1E
:1056900040B12046FFF748FD20B16FF0150003B080
:1056A000BDE8F08301A80195FBF792F8019B98F8FB
:1056B000002000EB8300D0F8803023F00F0343EA92
:1056C0008203C0F8803004EB4602938A23F0020381
:1056D00043F0010393827B689BB12946204693F8EF
:1056E0000080D3F80490FFF72AFD78B1B9F1000FDC
:1056F000D3D104EB4602938A23F01C0343EA8803C8
:105700009382BB68002B45D10020C8E704EB46001C
:10571000838A23F4604323F020038382B9F1000FCE
:10572000E7D0B8F1030FB8D87B6821685B6893F8BD
:1057300000C04FEA8C031944B8F1000F04D1C1F83E
:105740001085C1F81085D4E7D1F8102522F00302A6
:10575000C1F8102522681344D3F8102522F44732EB
:1057600022F47C72C3F8102541F6F072D3F81015BC
:1057700002EA051242EA08420A43C3F8102504EB84
:105780004C03A3F86450838A43EA4C3343F020036C
:105790008382AEE72946D3E900782046FFF7DAFC9A
:1057A000002FB1D063689F4208D004F16000FFF77A
:1057B00044FF002806DA6FF00B0070E7A3689845F5
:1057C000F3D1002004EBC003C3E9017804EB4604E5
:1057D000A38A43EA402343F48073A38294E770478B
:1057E00008B501460068FFF7DCFAFEF7B3BC61B606
:1057F00062B680F31188BFF36F8F7047EFF31180AB
:10580000202383F31288BFF36F8F7047704708B56A
:10581000FEF7FAFB08B5FEF7EDFC002008BD0244D8
:105820000346934200D1704703F8011BF9E7F0B536
:10583000C2F13705044602F01F020846EDB22746C2
:10584000B4FBF2F602FB16413446CBB2092984BF01
:105850005B19DBB2BA4203F1300300F8013BEED929
:10586000F0BD0A44431E914200D1704710B511F8B3
:10587000014B914203F8014FF9D110BD01390244A7
:1058800010B5904201D1002005E0037811F8014FD6
:10589000A34201D0181B10BD0130F2E76D0C0000CF
:1058A0000000000041260000000000000000000091
:1058B000F458000000000000105900000000000033
:1058C00048590000000000002C59000000000000B2
:1058D00064590000191A000000000000111C0000AB
:1058E000000000000000000080590000E93B0000BB
:1058F000000000005E640000D45A0000D859000087
:10590000FC010020041200209D0D0000000000009A
:1059100031640000485A0000B4590000F40100202E
:105920002802002091170000000000003C640000E5
:105930005C5A0000B4590000F60100203402002037
:10594000911700000000000047640000705A00003A
:10595000B4590000F8010020400200209117000017
:105960000000000053640000A85A0000F459000031
:10597000FA0100204C020020B910000000000000D5
:1059800007640000000000009C590000FE01002098
:10599000000000008D0E0000000000009D180000B7
:1059A000FB54000013550000750E0000650E00004A
:1059B0007D0E00009D280000154F0000214F0000C3
:1059C000354F00003F4F0000494F0000B12A000052
:1059D0005D4F000000000000D94E0000674E00003F
:1059E000CB4E000000000000034E0000000000004D
:1059F00000000000BF4F000031150000B14F000053
:085A0000F36300000300000045
:105A100000A0105000820D5000040550000000004E
:105A20000338FDD8704700000000000000000000AF
:105A30000338FDD87047000000000000000000009F
:105A40000338FDD870470000FFFF010000820D50B1
:105A5000D00000200000000001000000FF0700004F
:105A600000040550000000000000000002000000DB
:105A70007F00000000A0105048010020000000003E
:105A8000000000002400000026000002250600019E
:105A900027060003845A00000400000000600C5038
:105AA000945A00000100000000600C50000000004B
:105AB000000000009C5A000000C201000000D60156
:105AC00000000000000000400010000065120020EF
:105AD00064120020CD180000A1190000FB63000033
:105AE00011160000DD5200000164000000000000FB
:105AF0000000000000F800008059000001000000D4
:105B00000000010000200B0080590000020000008E
:105B100000200C0000200B00805900000300000052
:105B20000040170000900000805900001F5800003E
:105B300020640000256400002A64000000A00450D6
:105B400000600C50004010509C580000AC58000001
:105B5000DC580000E4580000EC580000F458000045
:105B60000800000002000000040000000100000026
:105B70007D010000001000001000000001FF000087
:105B80004D0D00001D0D0000000000000000002071
:105B9000400000000600010000A0105000820D50DF
:105BA00000040550982F8A4291443771CFFBC0B54D
:105BB000A5DBB5E95BC25639F111F159A4823F92D8
:105BC000D55E1CAB98AA07D8015B8312BE85312431
:105BD000C37D0C55745DBE72FEB1DE80A706DC9BF2
:105BE00074F19BC1C1699BE48647BEEFC69DC10F9E
:105BF000CCA10C246F2CE92DAA84744ADCA9B05CDA
:105C0000DA88F97652513E986DC631A8C82703B09C
:105C1000C77F59BFF30BE0C64791A7D55163CA06AA
:105C200067292914850AB72738211B2EFC6D2C4DB6
:105C3000130D385354730A65BB0A6A762EC9C281A4
:105C4000852C7292A1E8BFA24B661AA8708B4BC23A
:105C5000A3516CC719E892D1240699D685350EF464
:105C600070A06A1016C1A419086C371E4C7748271B
:105C7000B5BCB034B30C1C394AAAD84E4FCA9C5B91
:105C8000F36F2E68EE828F746F63A5781478C884E2
:105C90000802C78CFAFFBE90EB6C50A4F7A3F9BEC4
:105CA000F27871C608200001FFFFFFFFFFFFFFFF32
:105CB000FFFFFFFF000000000000000000000000E8
:105CC00001000000FFFFFFFF512563FCC2CAB9F3CA
:105CD000849E17A7ADFAE6BCFFFFFFFFFFFFFFFFA3
:105CE00000000000FFFFFFFF96C298D84539A1F4DD
:105CF000A033EB2D817D0377F240A463E5E6BCF889
:105D000047422CE1F2D1176BF551BF376840B6CB53
:105D1000CE5E316B5733CE2B169E0F7C4AEBE78E4F
:105D20009B7F1AFEE242E34F4B60D2273E3CCE3BC4
:105D3000F6B053CCB0061D65BC86987655BDEBB366
:105D4000E7933AAAD835C65A9D490000F74A0000A1
:105D50007D0400000100020010001100120020006C
:105D600021002200230024003000310032003300E3
:105D7000FFFF10002DE15D29410B8D77679C110F0E
:105D80001F8A3059301306072A8648CE3D02010685
:105D9000082A8648CE3D03010703420004E6142288
:105DA000C4075C4CA5A970EB18696E2D9FCBAD1A8A
