:020000040000FA
:10000000584800207D590000C96900006959000066
:1000100069590000695900006959000069590000D8
:10002000000000000000000000000000DD5900009A
:10003000695900000000000069590000695900007A
:10004000810800008108000081080000810800008C
:10005000810800008108000081080000810800007C
:10006000810800008108000081080000810800006C
:10007000810800008108000081080000810800005C
:10008000810800008108000081080000810800004C
:10009000810800008108000081080000810800003C
:1000A000810800008108000081080000810800002C
:1000B000810800008108000081080000810800001C
:1000C000810800008108000081080000810800000C
:1000D00081080000810800008108000081080000FC
:1000E00081080000810800008108000081080000EC
:1000F00081080000810800008108000081080000DC
:1001000081080000810800008108000081080000CB
:1001100081080000810800008108000081080000BB
:1001200081080000810800008108000081080000AB
:10013000810800008108000081080000810800009B
:10014000810800008108000081080000810800008B
:10015000810800008108000081080000810800007B
:10016000C11B000081080000810800008108000018
:10017000810800008108000081080000810800005B
:10018000810800008108000081080000810800004B
:10019000810800008108000081080000810800003B
:1001A000810800008108000081080000810800002B
:1001B000810800008108000081080000810800001B
:1001C000810800008108000081080000810800000B
:1001D00081080000810800008108000081080000FB
:1001E00081080000810800008108000081080000EB
:1001F00081080000810800008108000081080000DB
:1002000081080000810800008108000081080000CA
:1002100081080000810800008108000081080000BA
:1002200081080000810800008108000081080000AA
:10023000810800008108000081080000810800009A
:10024000810800008108000081080000810800008A
:10025000810800008108000081080000810800007A
:10026000810800008108000081080000810800006A
:10027000810800008108000081080000810800005A
:10028000810800008108000081080000810800004A
:10029000810800008108000081080000810800003A
:1002A000810800008108000081080000810800002A
:1002B000810800008108000081080000810800001A
:1002C000810800008108000081080000810800000A
:1002D00081080000810800008108000081080000FA
:1002E00081080000810800008108000081080000EA
:1002F00081080000810800008108000081080000DA
:1003000081080000810800008108000081080000C9
:1003100081080000810800008108000081080000B9
:1003200081080000810800008108000081080000A9
:100330008108000081080000810800008108000099
:100340008108000081080000810800008108000089
:1003500081080000810800000D0D000081080000E8
:100360008108000081080000810800008108000069
:100370008108000081080000810800008108000059
:100380008108000081080000810800008108000049
:100390008108000081080000810800008108000039
:1003A0008108000081080000810800008108000029
:1003B0008108000081080000810800008108000019
:1003C0008108000081080000810800008108000009
:1003D00081080000810800008108000081080000F9
:1003E00081080000810800008108000081080000E9
:1003F00081080000810800008108000081080000D9
:1004000081080000810800008108000081080000C8
:1004100081080000810800008108000081080000B8
:1004200081080000810800008108000081080000A8
:100430008108000081080000810800008108000098
:100440008108000081080000810800008108000088
:100450008108000081080000810800008108000078
:100460008108000081080000810800008108000068
:10047000810800008108000081080000036803F083
:100480001F025F2B02604FEA53129ABF024B53F8D0
:1004900022000020704700BF5488000007B501907B
:1004A00001A8FFF7EBFF019B00EB8300D0F8802051
:1004B000044B134043F00203C0F8803003B05DF8F2
:1004C00004FB00BFF0F0FCFF014B1B68184700BFA6
:1004D0004C0200202DE9F047058B044628071746FB
:1004E0000CD501290CBF45F0100545F020052583EA
:1004F00087F31188BFF36F8FBDE8F087022905F0FD
:10050000070540F09480204605F07AFC052864D861
:1005100001A353F820F000BFF10400002F060000F3
:10052000DB0500009D050000B7050000C9050000BF
:1005300001F007035A1F012A1FD8002221F00701EA
:10054000062BD4F8008089B2C4E9002209D14346C1
:1005500003E0628B013262831B68002BF9D141F00A
:1005600002012046218305F04BFC4FF000090028D2
:100570006DD041F02001218369E0042B0AD121F0E4
:10058000070189B22046218305F03AFC10B141F001
:10059000200121834FF00008C14658E02369D3F8B9
:1005A0000090238B23F0070343F006034FF000086D
:1005B000238346464BE02369D3F80490238B23F032
:1005C000070343F00403F1E72369D3F80890238B72
:1005D00023F0070343F00503E8E74FF00008C146A6
:1005E000E7E7012243F00803238387F31188BFF371
:1005F0006F8F002A3BD1B8F1000F4AD1B9F1000F3B
:1006000002D020462C49C847EFF31187202383F3FB
:100610001288BFF36F8F238B23F008039BB22383D1
:10062000D9063FD523F01002228303F0070566693F
:10063000218B002EBFF67CAF00239946D4F80080B2
:1006400021F00701C4E9003341F001012183238B2C
:1006500003F0070AAA4502D0A268002AC1D1B8F166
:10066000000F02D1B9F1000FDAD00022BAE7A16879
:100670000029C0D00D680029BDD03346524620461F
:100680004F68B8471DB12B6829461D46F3E72B4636
:10069000FAE74146334652462046D8F8008005F036
:1006A0009EFBA8E79A067FF523AF23F02002228362
:1006B00003F0070527E700BF395E000010B51B4BAC
:1006C000986A9C6A10F0100F14BF1120102014F0CB
:1006D000080F9C6A18BF1220A40709D5586B986AA6
:1006E000000604D519B1996A21F08001996213209E
:1006F0000E4B996A11F0010F996A18BF142011F07E
:10070000200F996A18BF1520CC0658BF9B6A074B6B
:10071000996A890642BF596A21F400515962996A5F
:1007200041F0FF0199620023137010BD00ED00E05D
:1007300010B5184B986A9C6A10F4805F14BF17209C
:10074000162014F4006F9C6A18BF1820A40509D560
:10075000986B986A000404D519B1996A21F4004194
:10076000996219200B4B996A11F4806F996A18BF2E
:100770001A20C9050CD49B6A13F4005F18BF1C2013
:1007800004498B6A43F47F438B620023137010BDCE
:100790001B20F5E700ED00E0154B9A6A12F0007F90
:1007A0009A6A14BF1E201D2012F0807F9A6A18BF1B
:1007B0001F2012F4801F9A6A18BF022012F4002F23
:1007C0009A6A18BF212012F4802F9A6A18BF22203B
:1007D00012F4003F9A6A18BF232012F4803F9A6AED
:1007E00018BF24206FEA02426FEA12429A627047F1
:1007F00000ED00E0002318460649D1F89020C2F32E
:100800000722934200DB7047C1F89830C1F8A0007E
:100810000133F6E700ED00E0002807DB0123410982
:10082000034A00F01F00834042F82130704700BFA8
:1008300000E100E000280CDB01220649430900F03A
:100840001F008240203341F82320BFF34F8FBFF3B6
:100850006F8F704700E100E00028ACBF00F16040FE
:10086000064B4FEA4111C9B2ABBF00F5614000F041
:100870000F0080F800131954704700BF14ED00E01A
:10088000EFF30583034A103B02EBC301496852F8BA
:10089000330008479092000030B50F4AD2F89030EC
:1008A000C3F30723013B984213D80C7A0B6864F317
:1008B00004031D46CB68640923F01F0343EA440385
:1008C00043F00103C2F89800C2F89C50C2F8A0306F
:1008D00030BD6FF01500FBE700ED00E0254B264A28
:1008E0004FF47A611A600122244B2548C3F804248E
:1008F000D0F82436C3F30802C3F309434B4382F410
:1009000080722049883201FB02334FF4FA215B00E8
:10091000B3FBF1F201FB12331B49B3F57A3F28BF59
:100920000132C1F80429D0F820364FF47A60C3F3BD
:100930000802C3F30943434342F21C5082F480721D
:1009400002F2172200FB02334FF47A701B0AB3FB4A
:10095000F0F200FB12330020B3F5FA7F4FF00103F1
:1009600028BF0132C1F81C27C1F80009C1F80036C0
:10097000704700BF480200200020A107002008E0C7
:1009800000C0FF00F82A008000001250084B70B52C
:10099000C31A0D4607499B10044659434022064896
:1009A00005F0D0FA2B4601462046BDE870401847B6
:1009B000B0160020B76DDBB644720000402373B55B
:1009C0000B4C0093041B0B460D460A49A4106143CF
:1009D0000646094A094805F0E1FA014628B13046C1
:1009E0002B4602B0BDE87040184702B070BD00BF92
:1009F000B0160020B76DDBB60F6000004472000037
:100A0000014B1B68184700BFA016002070B50221DB
:100A1000044640F20510FFF71FFF1D4B1A79002A0C
:100A20002FD11C4A1A6001221A711B4B197941BB44
:100A30001A491A7119601A4B197911BB19481A71A0
:100A40001860194BC3F84014184B1B6A9B0603D45B
:100A500040F20510FFF7E0FE2369ABB11C22002134
:100A6000184606F075FB01251C22114E056406612F
:100A700024690021A01806F06BFB0020E662E56403
:100A800070BD6FF00400FBE76FF01500F8E700BFE2
:100A9000A01600208D170000A8160020010A0000F3
:100AA000041700202160000000E0105000E100E089
:100AB0003C8800000A2810B5044603D10D210448E3
:100AC00000F08EFD0248E1B200F08AFD204610BD24
:100AD000B47200000023024A0020C1E900237047DD
:100AE00000D017000048704734880000024B0B60AC
:100AF00001231360704700BF2C880000024B034A9B
:100B00000020C3F80C25704700B00450800000801E
:100B10004209022A034670B503D0012A18D0CAB18F
:100B200070BD0E4E326951680029F9D0012503F0DD
:100B30001F030C689D400029F2D08A682A4002D029
:100B400030464B6898473CB1236821461C46F2E783
:100B5000034EE7E7034EE5E72346F6E77C72000025
:100B600060720000987200002DE9F74F4368027A26
:100B700003EBC2029A4204D86FF0010003B0BDE853
:100B8000F08F5C798C4200F0B4800833F2E7D8F83B
:100B90000020C2F3C323082BC2F3080100F2A68091
:100BA0005848C55C40F2FF13994208BF4FF0FF312F
:100BB000B2F1D05F4FEA126310D2192B12D8DFE8DE
:100BC00003F014233734282F34111111111111118E
:100BD00011111111111111113A484B4E382B41D0FE
:100BE0004E2B25D06FF08500C8E7C4F804164B1CC7
:100BF00029D001A80191FFF741FC019B4FF00109A9
:100C000007FA03F343604EE0C4F80C164FF0000AF5
:100C100039E04FF00009C4F800164A1C13D03AE03E
:100C20004FF00109C4F80416F7E7C4F80816EDE719
:100C3000C4F81016DBE7C4F86015B8F802304A1C97
:100C400003F0010323D108F1040846459FD1002099
:100C500094E7C4F86415F0E7C4F86815EDE7C4F844
:100C60006C15EAE701A80191FFF708FC4FF0010AB3
:100C7000019B00EB8300D0F8803023F0E04343F089
:100C80008043C0F88030481CDDD0D1460DE0002BF9
:100C9000AFD14FF0010901A80191FFF7EFFB019BD4
:100CA00007FA03F383604FF0010AD8F800B001A8F7
:100CB0001BF4004F1CBF4FF001094FF0000A0191D7
:100CC000FFF7DCFB019B104900EB8300D0F880208C
:100CD000CBF3412B2B0243EA8B0343EA0A03114077
:100CE0000B4343EA4903C0F88030ACE76FF01500CE
:100CF00044E7D3F800801E790127046808EB8606D4
:100D0000A3E700BFCB8A0000F0F0FCFF684620F0AC
:100D100007018D4601B5034BBDE80140D3F83031E2
:100D20008546704700600C5038B505460221C62044
:100D3000FFF792FDC620FFF76FFD6C680121E068A8
:100D4000FFF712FF6B6819686369C1F82435E28BFD
:100D5000A38BA07E1343228C1343628C1343627EC9
:100D60009BB20243207E02431343C1F86C3569688D
:100D70000B68D3F8002242F48022C3F80022082234
:100D8000C3F800254A6A0121C3F83C270022C3F8B2
:100D900040271965D3F830110029FBD0C3F800258E
:100DA0002846BDE83840014905F03CB9156100000E
:100DB000F0B5816885B01039054621F00F0405F0C3
:100DC00081F86A460A4B03F11007164618685968FD
:100DD000083303C6BB423246F7D110236A46214688
:100DE000284605F059F8003818BF012005B0F0BDBD
:100DF000668A0000064BD3F840231C2A05D1D3F89D
:100E00004403431E5842584170470020704700BFBA
:100E100000C0FF0003689A070CD50368DB070DD5F7
:100E20000922074BC3F80C250F22C3F80425012221
:100E30001A60FEE7034B0360EF3B0360704700BF9F
:100E400000801050F000FA50034A4309D35C00F0D0
:100E50001F001844C0B27047BB8A0000F0B50646B8
:100E6000002487B0114F019117F8012B06AB03EB5B
:100E7000D20313F8143C02F00702D34013F001032D
:100E800006D10134032CEFD10023184607B0F0BD82
:100E9000074A03AD07CA85E8070055F824100A6A17
:100EA00046F824200A62002AEBD0EEE7D48A00003C
:100EB00060730000124B70B553F82050013053F8A6
:100EC0002060AE4200D870BD6C68B4B1237EDB07F1
:100ED00011D4636953B12046984738B10028B8BF90
:100EE0004042FF28A8BFFF20E3681870E2685378EB
:100EF00043F0010353700835E3E72B689847FAE79E
:100F0000048800000B4B1A689A420FD072B1D2E9E4
:100F100004321B1A62EBE072B3F1004F72F1000170
:100F200004DA002AACBF1846002070476FF000407A
:100F3000704700BF3802002001680E4A0346914204
:100F400015D1C169A2F11022A2F1EF1291420ED186
:100F50008268012A0BD8C26812B101698A4206D0A0
:100F6000586928B19B691B1A5842584170470120A3
:100F7000704700BF55AA00FF70B50E4B9E68B6B112
:100F80003046FFF7D9FF044618B9F3687BB93569D5
:100F90000DB9204670BD2846FFF7CEFF28B9EB6893
:100FA000B34204D12E462D69F2E70446F1E701244D
:100FB000EFE700BF7416002010B5034B0A461B680C
:100FC00000210446984710BDF487000010B5044680
:100FD00009B1FFF7F1FF034B2046BDE810401B6845
:100FE000184700BF2402002070B5446A05460E462B
:100FF00044B9074B01201B689847686228B1204616
:10100000AE6270BD6FF08A00FBE76FF08C00F8E70E
:10101000280200200022074BC3F81021C3F80C213E
:10102000C3F80021C3F80421C3F80821C3F8142130
:10103000704700BF0050045008B5FFF7EBFF0123D5
:101040000360104B0A6832B9D3F80C211AB9D3F8EF
:101050000821002AF6D00B687BB90B4B99420ED0C1
:10106000A3F58473D3F80831002B14BF6FF002008E
:101070004FF0FF30FFF7CEFF08BD0020FAE74FF03A
:10108000FF30F7E7005004500851045038B50C46C3
:1010900059B1074D0749C5F800050748FFF7CCFFD0
:1010A00010B9D5F80835236038BD6FF00100FBE7B3
:1010B00000500450105104500C50045070B51C4E98
:1010C00044680288B6EB142F43884FEA142514D1E4
:1010D0004069184B98420CD003F5FF437D3303441D
:1010E000012B21D8B2F5105F1ED1022300200B6026
:1010F00070BD47F212139A42F6E70F48854213D1AA
:1011000002F44F40B0F5824F08D144F21210073379
:10111000DB08824204BF5B000133E7E7B2F5885F7A
:10112000E3D10733DB08E1E76FF08600E0E700BFBB
:10113000004E800001C0FF7F4B4E800010B5F820AC
:1011400005F030F918B9F92005F02CF910B16FF05D
:10115000920010BDF823094C09490A48C4F800352B
:10116000FFF76AFF0028F2D1F9230648C4F80035DA
:10117000FFF762FF0028ECD0E9E700BF0050045001
:101180000451045004500450C36870B57BB9C3695E
:1011900000F128021A60C369474A9A604368C2692D
:1011A000DB6843F48063D360C3691033C361836A2F
:1011B0009B0532D40368C268DD6800F1EC04302D71
:1011C00034BF08261026082E0CBF092611261D69DB
:1011D0006B1E1340EB1AB34238BF5B191C44D50099
:1011E00004F8015C03F1EB045209044400F1ED053D
:1011F000A5425CD1802280F8EC20426AC469C432E6
:101200002260C26993604468C269E468D460C269BC
:101210001032C26102691A4402610269C469D31CB6
:1012200023F003039B1A54F8042C42EA032244F8E7
:10123000042CC26952F8084C234443F0005342F88E
:10124000083C026A0368DB6811600168026AC968C9
:1012500003339160026A23F0030302F1100101627B
:101260000168C96899420BD0002111610168026AC6
:10127000C9685B1A43F080439360036A10330362CA
:10128000836A13F4806311D102685169D268914274
:101290000CD0026A13600268016A5369D2689B1A13
:1012A00043F080438B60036A1033036270BD04F81F
:1012B000012D120A9CE700BF04000020B1F5DE7F7B
:1012C00003461DD30268106810F040001BD10F497F
:1012D000596012680E499A6203F12C021A6203F1F6
:1012E00028025A62DA671322C3E9211203F18C0241
:1012F000DA61084AC3E903005A6101229A60704723
:101300006FF0220070476FF002007047AC7400006D
:10131000040000208911000010B5154BD86C28BBC3
:101320001A684FF0010C91690824C1F30B02482A96
:101330001A6528BF482211F4003F5A6508BF0022F1
:101340009A65CA0358BFC3E9140001F47002B2F5EC
:10135000700F08BF586D0029B8BF0022C3E918C438
:10136000B8BFC3E9182201225865DA64014810BDEC
:10137000B8070020040800202DE9F047454BDFF8AE
:1013800018C193F808E0DFF814910CEB0E0191F806
:1013900054504349D9E90032D1E900418A4208BF9B
:1013A000A34205F10C054FEA0E1120D1B0F1806F78
:1013B0001DDA4001012838BF01201B1842F100024C
:1013C000C9E900325CF835300CEBC50462681B18C3
:1013D0004CF8353001F1A04342F1000240F00040EA
:1013E00003F562236260C3F82805BDE8F0872D4E3F
:1013F0002D4FD6E90048D7E90067A41948EB070844
:101400004FF0200A26464746E0FB0A67B34272EBDC
:101410000700C9E9006731D21B1B62EB0802C82B29
:1014200072F10002B4BF012300230CEBC5024CF89B
:1014300035605760C7F3130213B301F1A04303F5FE
:101440006223C3F82065C3F82425184B4FEA8E0E9B
:1014500073441A68002AC8D04FF0FF346FF040423E
:10146000134DD5E90001844272EB010CF9D3B0426F
:1014700071EB0707B9D200221A60B6E70023D4E760
:1014800001F1A04303F56223C3F82065C3F82425C6
:10149000ABE700BF2C020020A0000020900200203B
:1014A000E8020020F0020020E002002000210E509F
:1014B00040270E502DE9F84F3B4D1C46D5E900065C
:1014C000111A63EB06074B09202143EAC763E3FBCC
:1014D0000106C5E9000635480025C0E900240024BE
:1014E000334AC2E90045EFF3118581F31288BFF357
:1014F0006F8FDFF8C0A00126DAF800004FF0004738
:10150000504508BF0020DFF8B090DFF8B080C9F880
:1015100000304FEAE37ED8E900C150B1D0E9044B76
:10152000A3427EEB0B0217DAE21A6BEB0E04C0E962
:101530000424002013EB0C0341EB0E01C8E9003139
:10154000C9F80000FFF7DEFCFFF716FF85F31188EE
:10155000BFF36F8FBDE8F88F14EB0C0341EBE47120
:10156000C8E90031D0E9003213605A600023C0E9B5
:101570000467C0E9003385F31188BFF36F8F836878
:101580009847EFF31185202383F31288BFF36F8F01
:10159000D9F80030DAF800001B1B504508BF0020C6
:1015A000C9F80030B5E700BFF0020020E8020020D3
:1015B000E0020020380200209C160020D802002003
:1015C000044B1868044BB0FBF3F0044B43F00103E9
:1015D000184700BF4802002040420F00707300000F
:1015E0002DE9F04104460D464768EFF305838BB1C2
:1015F0002021EFF311831A4681F31288BFF36F8F16
:1016000060680068D0F83001A8B983F31188BFF38F
:101610006F8FEEE71C4B1B78002BE9D04FF02008B2
:10162000642663681B68D3F83031D3B9FFF7C8FF6D
:10163000013EF6D1F4E77B6A00201D706368796A89
:101640001B68C3F83C170121C3F84017C3F83001E9
:10165000D3F83001196582F31188BFF36F8FBDE8AD
:10166000F081EFF311831A4688F31288BFF36F8F6E
:1016700061680968D1F830110029DCD183F3118841
:10168000BFF36F8FCCE700BF5220002038B5042392
:101690000A4C42F21075C4F8083301236361002339
:1016A000C4F80831D4F80831D4F84C34DB0303D53E
:1016B000FFF786FF013DF7D138BD00BF00E01050B5
:1016C00010B51D4B1D4CD3F84C14D3F84C2411F419
:1016D000803F19D002F00302012A01D08AB900220A
:1016E000154BC3F840240022C3F80821D3F8082181
:1016F00001221A6122688AB9D3F80821002AFBD096
:1017000014E0FFF7C3FFEAE7D3F84824D107E6D592
:10171000D3F850249207F4D422681AB10422C3F8F3
:10172000042310BDD3F80821002AFBD00022C3F8FF
:101730000821D3F80831F4E700E010500417002026
:101740000C22104B014602FB0033002030B4D3E9D9
:101750000E529863EFF31180202484F31288BFF3B4
:101760006F8F1C6C04F0C00444F002041C6480F30E
:101770001188BFF36F8F1DB12B4630BC024818474C
:1017800030BC7047B016002044720000022808D018
:10179000042808D1044B186C10F0070003D1FFF7A0
:1017A000CFBF0120FBE77047B01600202DE9F047BE
:1017B00006460F46904699460024DDF820A0A24533
:1017C00001D800200FE0AAEB0405B5F5806F28BF13
:1017D0004FF4806530462B46094A04EB080104F0BB
:1017E00039FB10B10120BDE8F0872B463846044A8A
:1017F00004EB090104F050FB0028F3D12C44DEE790
:101800002C03002038B50D4B0546C068DC6D04F094
:10181000DEFA844203D2E86804F0D9FA044640F2C2
:1018200016226243A96864425032224001232846AE
:10183000891A04F025FEC00F38BD00BF1016002025
:101840002DE9F04147680646BD6885B395F87440B8
:101850006CBB4622214605F1140095F8758005F011
:1018600077FC21461A4A2B6852F838C08C4524D19F
:101870004FF0000840F20D14C3F84481D3F844211E
:10188000144A934214BF2046DB20FEF7C5FF012314
:1018900085F874302B66BB680F4A0221DB20C3E950
:1018A0000328FEF7D9FF02212046FEF7D5FF304678
:1018B000BDE8F041094904F0B5BBCAB2920002F597
:1018C0008070442A04BF1C501A580131CEE700BF73
:1018D0001C88000000A00D50110B0000135D0000DB
:1018E0000022144B10B51A60134B144A00211A60E1
:1018F000134B144A1A60144B13F003020FBF4FF43A
:10190000006402F2FC74C2F104029B1818462246DD
:1019100005F01EFC0D4A0E49C2E900040160A1F168
:101920001021203CA1F1EF1190604460C161D060B2
:10193000002010BD8416002028020020951F000002
:10194000240200208120000052180020741600207C
:1019500055AA00FFF8B51E4D064695F8C0320F4651
:1019600093B300242B462246197FE1B13CB90229EA
:1019700005D1196A19B91979002918BF1C46013215
:10198000102A03F12C03EFD114B96FF08C0008E09A
:10199000204604F0FAFC204604F0B1FD20B16FF0BF
:1019A000960000240EE01C46237F002BF7D1012374
:1019B000237736B1074B651BAD105D4305F18045BC
:1019C000356000203C60F8BD6FF08800E9E700BF9B
:1019D00024080020A38B2EBA031E70B5144629DB01
:1019E000164DAB4226D8C3F5BE1303F580539A4279
:1019F00020D8CAB142F20103114DC5F80035A9B192
:101A000005F0C8FBBFF35F8FD5F81834DB0706D4A9
:101A1000C4F308041CB10123AB60BFF35F8F4FF424
:101A20000052074BC3F80025002070BDFF2105F0D0
:101A30008FFBE7E76FF01500F7E700BFFFCF170058
:101A400000B0045010B50C1E10461A460CDB084BB3
:101A50009C4209D8C4F5BE1404F58054A24203D8B0
:101A600005F098FB002010BD6FF01500FBE700BFEC
:101A7000FFCF170010B4EFF31180202282F31288F9
:101A8000BFF36F8F2B490B6843F0020413F001037F
:101A90000C6017D0284BD3F80C3413F4803311D0DA
:101AA000EFF3118182F31288BFF36F8F234A136C17
:101AB00003F0C00343F00203136481F31188BFF302
:101AC0006F8F012380F31188BFF36F8F1BB100204C
:101AD00010BCFFF735BE184AC2F81031D2F8101109
:101AE000C2F81831D2F81811C2F81431D2F81431F2
:101AF000134BD3F840331C2B04BF01239360002306
:101B0000C2F80031D2F80031012313600D4B1B687D
:101B100053B9094BD3F80021002AFBD00022C3F8A7
:101B20000021D3F8003102E07123C2F8043310BC65
:101B3000704700BF0017002000E01050B0160020D2
:101B400000C0FF00A816002070B5EFF31185202318
:101B500083F31288BFF36F8F154A136823F00201D5
:101B6000116013F001021BD17121124B42F210746B
:101B7000C3F8081301215960C3F80021D3F80021EC
:101B80000D4A0C4ED2F840231C2A08BFD960D6F863
:101B90000C3413F4803308D0FFF712FD013CF6D16A
:101BA00085F31188BFF36F8F70BD044A5371F7E757
:101BB0000017002000E0105000C0FF00A816002011
:101BC000684620F007018D4601B5194BD3F8002176
:101BD000DAB1BFF35F8F4FF0A3418A6ABFF35F8F23
:101BE000BFF35F8F4FF0FF300863BFF35F8F0021BB
:101BF000C3F80011D3F800310E4B196819680A4375
:101C00001A60BDE8014085467047D3F808110029E5
:101C1000F7D00220084909688860C3F80821D3F882
:101C20000831064B1A681A6842F00102E8E700BF63
:101C300000800450FC020020B8070020F8020020B9
:101C400038B5084B5A78D20709D51C783CB9064DEF
:101C5000284603F0E5FE2046044B1D6038BD6FF0BA
:101C60001200FBE78A020020B50A00004C020020A7
:101C70002DE9F04F804658F804BB90F87540DBF82A
:101C800014136A4BC9B253F8342007468BB0584638
:101C900041F4003104F0A6FA8203054639D5002349
:101CA000CDE907330993614BE60003EBC404636895
:101CB00007A819460093FFF7D1F8331D03934FF09F
:101CC000000A5B4B0DF11C090293029A574912F866
:101CD000013B0292039A02EBD3028A5C03F00703F2
:101CE00022FA03F3DB071AD40AF1010ABAF1030F4F
:101CF00009F10409E9D14FF400310022584604F0FB
:101D000071FA009907A8FFF7A9F80028D7D125F4A0
:101D100000350124002D73D10BB0BDE8F08F454B89
:101D200053440493D9F80060002EDDD096FAA6F64D
:101D3000B6FA86F6049B1C7846EA44142046FFF760
:101D400083F807EB4000818AF208C1F38203059310
:101D50000193012319F8020006F0070603FA06F6BC
:101D600020EA060009F8020006A80694FEF786FBA2
:101D7000069A11F0100F02F1200250F82260059B24
:101D8000C6F3014623D04046019A214604F0DCFA0E
:101D900006A80694FEF772FB069BF6B2203350F8B5
:101DA0002330C3F301439E4207D10021204604F0B3
:101DB00040FA3146204604F03CFA06A80694FEF7A5
:101DC0005DFB0122069B02FA03F30362AAE7022EDF
:101DD00014BF022103212046059304F02AFA059B33
:101DE000032B03D0022E07D1012BE6D1214640461A
:101DF000019A04F0A9FAE0E7032EDED1022BF4E702
:101E000095FAA5F3B3FA83F304FA03F225EA02057F
:101E100003F5A2725BF8222007EB43034046B3F8B8
:101E20006410C2F3014204F08FFA73E71C880000CB
:101E3000D48A0000D48A00000121F8B54E4BD3E8C3
:101E4000EF2FC3E8E01F0028F9D1002A3ED14B4B09
:101E5000996099685A6001F003010129DA6035D16F
:101E6000DA609A68032A31D8EFF31184202282F3D2
:101E70001288BFF36F8F4FF6FF754149888E00F0CF
:101E80000702C88EA84235D0062A33D8DFE802F010
:101E9000123204321232120001230130C88684F358
:101EA0001188BFF36F8F8BB100233449354803F09D
:101EB00096FF0BE000201860086AC0B9C1E907333B
:101EC000C2B9224602212F48FEF704FBEFF3058238
:101ED00092B1EFF31181202383F31288BFF36F8F48
:101EE0000122002601252027274B284C2EE00360E5
:101EF0000B62E5E70023D2E7254B1B78002BE8D0E7
:101F00000421214BC3F808131146EAE772B686F3A1
:101F10001188BFF36F8FBFF34F8F20BF81F31188FC
:101F2000BFF36F8F62B6D3F8400410F0FF000DD1FD
:101F3000D3F808C1BCF1000F08D0C3F80801D3F8EA
:101F40000801C3F84054C4F8A0711D61D3F84CC413
:101F5000D3F84C041CF4803FD8D000F003000128D3
:101F6000D4D12AB181F31188BFF36F8F0020F8BD5F
:101F70000422C3F80423F9E79816002088160020ED
:101F8000B0160020CC16002000E0105000E100E068
:101F900052200020F8B5374A1368D3B19368C3B113
:101FA000002865D0002963D001FB00F4B4FBF0F0F9
:101FB00088425DD1201D5BD8A1070CD024F003001E
:101FC0000430D36803E05D68854206D29B69002B2C
:101FD000F9D11846F8BD2046F3E7D3F808C0BCF1A4
:101FE000000F02D0012005F0E2F82D1A232D03F195
:101FF00020061CD801219960D3E90501A8B18161AF
:10200000996909B1586948610021C3E9051113694B
:10201000DB0703D5FEF7B0FF0028E3D122460021FD
:10202000304605F095F80346D3E7D160E8E700F1C4
:102030002007D919203DC1E9015CCB601D69DFF89B
:1020400038C00D6143F807C00C4FCF6105B1E9609E
:102050005D694D619F698F6145B1A9618D6905B168
:10206000696101251961C3E90105CDE7D160F5E793
:102070000023AEE77416002055AA00FF669911EE02
:1020800070B50546002860D03B4E3368002B5CD00D
:10209000B268002A59D0834203D872681344984228
:1020A00002D3012005F083F8A0F120042046FEF7BA
:1020B00043FF0028F5D155F8183C012BF1D155F814
:1020C000143C45F8180CC3B19A68002A3ED155F863
:1020D0001C2C02F120015A680A445A6055E9053265
:1020E0001A6155F8145C2B6903B1DD60204620228B
:1020F000002105F02DF823462C462069002832D017
:102100008268002A2FD163684268203313446360D9
:1021100003692361D4E90523D2B903BB4369636131
:102120008269A261EBB19C61A36903B15C6123691F
:1021300003B1DC602022002105F00AF833699B0717
:1021400003D5FEF719FF0028ABD170BD0346D4E7D5
:102150009361A369002BE1D062695A61DEE7F36005
:10216000F7E7F460E0E7002BE8D1F368A36103B17F
:102170005C61F460E2E700BF7416002030B50D46E4
:10218000816887B0102302AA1039044603F062FE6A
:10219000002802DA012007B030BD1022204602A933
:1021A00003F0D6FF00283FD11022204902A805F0F5
:1021B00005F800280CBF012302232B70A16801231E
:1021C000203921F00F0120460DF10702203903F0DC
:1021D00041FE0028DEDB9DF80730204603F00F02A9
:1021E0001B096A702B7101220DF1070103F0B0FF8A
:1021F00010B96B78042B03D901236B7000232B716A
:10220000A2682046203A22F00F02103AA91C03F0DF
:10221000B1FF0028BED1A2682046203A22F00F026A
:10222000E91C03F0A7FFB6E70323C6E7668A0000B0
:102230002C232DE9F341204D0F4603FB0055D5F823
:102240002080B8F1000F01D104F07AFFEB682E89ED
:1022500040461E44042331460DEB030203F0FAFD11
:10226000044620B10124204602B0BDE8F08146F6C4
:102270000813BDF804206D899A421AD1BDF80630C2
:102280009D4201D00324EEE7042340460DEB0302F8
:10229000A91903F0DFFD0028E4D146F60713BDF8C5
:1022A00004209A42EED1BDF806302B4433443B6003
:1022B000D9E7002DF1D0E5E710160020F0B5214C4C
:1022C0000546266A85B0F06803F081FD40F21623CA
:1022D0005843B3685030834201D204F031FF6A7929
:1022E000E16D012A12BFB22200220F462C7918BFDD
:1022F0004A4304F1FF3401FB04342B68A4EB0004CF
:1023000018BF4F00013B1444F06807FB034403F07F
:102310005EFD0746304603F0D5FD0F2201460DF164
:10232000010004F015FF2B796A468DF80030214634
:102330003B46304603F0B0FD003818BF012005B021
:10234000F0BD00BF10160020F7B50221E420FEF713
:1023500083FA884B884CD3F8182722F44032C3F80C
:1023600018272278002A73D1D3F8101521F0020122
:10237000C3F81015D3F8101541F00101C3F810157A
:102380000521C3F8A4160421C3F8AC16072367215E
:1023900001F001000244013BD2B24FEA5101F7D1F2
:1023A000052A59D119464FF0010C734E00256720BC
:1023B000CFB204E00CFA02F220EA0200013590FAF2
:1023C000A0F25FFA85FE7745B2FA82F2F2D80131C7
:1023D00032750529224482F8547006F10C06E5D1C5
:1023E0000121002565489A0801FA02F212F0670FF0
:1023F00018BF1D500433302BF5D1E420FEF70CFA42
:102400005C4B5F49D3F8102503F5C07322F002023C
:10241000C3F8902340F6FF72C3F8A82100221A6087
:10242000A3F5807004338B420260F8D10127514D2F
:10243000544E2F663068544BB0FBF3F05D23584385
:10244000524B3B4398472770D5F81035980706D56F
:102450006FF0770003B0F0BD6FF08B00FAE7D5F8AE
:10246000103543F00203C5F81035D5F8482712F0AF
:10247000010202BFD5F8483743F00103C5F84837D9
:102480003C4BD3F84017D3F844174900F9D42AB984
:10249000D3F8482722F00102C3F848273A4A3368A4
:1024A000B3FBF2F3334A03EB4313002B5BD0D2F8B8
:1024B0004017D2F8445715F080454FD14FF0FF3305
:1024C0000193EFF31186202383F31288BFF36F8FFC
:1024D000019B626801A81340019304F0C0F8002832
:1024E0003EDB01226368824023EA02036360284BDB
:1024F0001872284686F31188BFF36F8F002835D1F4
:10250000234BA1681A7A012393401943A1604FF02D
:10251000FF356FF04041DFF87CC0DCE90067B54271
:1025200071EB070EF9D31C4926F01F05C1E90057CE
:102530004FF0FF364FF0FF370C251849C1E900670F
:10254000A11891F8541005FB014415492275E1606A
:102550000021084A2161C2F824337BE7013BA4E74C
:102560006FF00B00C6E76FF0730073E76FF00B00BE
:1025700070E700BF00200E50A000002000210E5088
:10258000B0210E504802002040420F00A07300000E
:102590002C02002040270E50F0020020E80200200C
:1025A000B51400002DE9F04FD50640F2063548BFBE
:1025B0004FF00309D0F8048002EA050598F81030BE
:1025C00058BFC2F3401989B001F01F06B5F5837FEB
:1025D000144646EA43168DF80A9043D00DD8062DCE
:1025E00042D005D8A5B1022D12D06FF0150036E00B
:1025F000B5F5807FF9D101250AE040F202239D4222
:1026000034D0B5F5407F33D0B5F5007FEDD104254A
:1026100020032FD50123D8F804208B405360D8F82D
:1026200008707FBB05A80596FDF728FF059BC4F33E
:10263000004100EB8300D0F8802081F00101C4F359
:10264000404343EA410322F4706243EA890322F0E3
:102650000F0243EA05231343C0F88030002009B07D
:10266000BDE8F08F0925D3E70825D1E70625CFE798
:102670000525CDE7620341BF0123D8F804208B4034
:102680009360CCE7314638460DF10B0203F049FE6A
:1026900014F44039019030D13046FEF7D5FB07EBFA
:1026A0004004A38ADB0719D5384603F014FE3146EF
:1026B000384603F0D1FD40B1A28A3B68520B03EBD0
:1026C0008203C3F81095C3F810953846314603F0DD
:1026D000D9FD00233046A382FDF7E0FE019B002BCD
:1026E000BCD1D8F808309DF80B1093F87500314B29
:1026F00003EB800003F05DFDB0E7002303AACDE902
:102700000623384605AACDE90333059303F0C1FF3C
:102710000028A3D114F40033D8F808903BD03046F9
:10272000FEF792FB04F4803B074684F48034314684
:1027300048469DF80AA0C4F3004403F098FD20B970
:10274000484603F089FD002888D109EB4707BB8A7A
:1027500003F01C031BB1BBF1000F3FF47FAF05A8D2
:102760000596FDF78BFE059B00EB8300D0F88030CB
:1027700023F4706323F00F0343EA8A0343EA44031C
:1027800043EA052343F00103C0F88030BB8A43F0DD
:102790000303BB82A2E7CDE9063331460DF10A03FC
:1027A000484605AA059303F074FF00287FF456AF4E
:1027B00094E700BF400200202DE9F041456801F098
:1027C0001F04287C88B044EA4014A868002800F060
:1027D000BB80B2F5001F06D1214603F07CFD00202E
:1027E00008B0BDE8F08168686E7CB2F5800F466283
:1027F0004FF0000603A80396466065D1B3F1007F51
:1028000014BF052304238DF80C300023CDE9060303
:102810000593EB680DF10706CB4013F0010F5ED175
:10282000B2F1A07F5BD102A80294FDF727FE029BC4
:10283000203350F82330DA0751D4AF6832462146AE
:10284000384603F06EFD16300AD197F87500414BFB
:1028500003EB800003F003FF002878DB8DF807000E
:1028600004962146A86805AA03F013FF0028B7D1F3
:10287000AD682146284603F0EFFC80462046FEF76F
:10288000E3FA2F6800F10806B8F1000F39D02846A6
:1028900003F0EDFC002834D105EB4606B3885B0B52
:1028A000990001F58072B850BA582A680A44D2F8E3
:1028B000101541F00101C2F810150122296802FA31
:1028C00003F3C1F814338AE7B3F1C06F05D0B3F155
:1028D000007F14BF0123022395E7032393E7AF682A
:1028E00032462146384603F01CFD0028B9D197F83E
:1028F0007500184B9DF8071003EB800003F059FC9E
:10290000AFE7D7F8143305EB46059B035CBF4FF4E4
:102910000033C7F81433AB88C3F38203042B0FD002
:10292000052B0FD002A80294FDF7A8FD029BC168F9
:10293000D94001F001010231204603F07AFC4EE754
:102940000321F9E70221F7E76FF0850048E76FF010
:102950000B0045E740020020F8B50126324C334D0C
:10296000D4F80C3303F0710343B901252E4C304EDB
:10297000D4F80C3303F00C035BBBF8BDB3FA83F35C
:102980000021C3F11F039A0002F5807292B202F196
:10299000A04202F58712116006FA03F7042B1268B1
:1029A000D8B2C4F8087308D0062B10D02B6898470B
:1029B000D4F80C3303F07103D6E702236B71C4F82B
:1029C0001411D4F814312023C4F80433EEE76971EC
:1029D000ECE7B3FA83F30027C3F11F039A0002F573
:1029E000807292B202F1A04202F58712176005FAD6
:1029F00003F1022B1268D8B2C4F8081310D1D4F82E
:102A00004C34D4F84C349B070AD10423C4F8405406
:102A1000C4F804332561D4F80C3303F00C03ABE79E
:102A200033689847F7E700BF00E01050A816002071
:102A300004170020F7B5284B284CD3F82C6304F179
:102A400088070EB903B0F0BD96FAA6F00123B0FADC
:102A500080F08340DA43224926EA0306231893F8DC
:102A60005450830019440C2303FB0543DB6873B304
:102A7000D7E8EF3F03EA020CC7E8EECFBEF1000F44
:102A8000F6D1C340DB0719D5020102F1A04202F5DD
:102A90006222D2F82435D2F82025D1F800C0BCF14A
:102AA000000FCED04FF0000CC1F800C00C2101FB8C
:102AB000054529690091E9688847C2E705F10C03DB
:102AC00004EBC30C54F83320DCF80430E5E70A6863
:102AD000002AB6D00B60B4E700200E50A000002002
:102AE00000210E5038B50A4D04462B682BB98021C1
:102AF000084802F087FE40B920230020054A013B28
:102B000052F823202B60226038BD0220FCE700BF72
:102B1000B00700203007002070B588B001AE054630
:102B200018220C463046002104F012FB012044EA32
:102B300005240794059002F009FFBA23094A0A49BF
:102B4000C2F800351046C2F80465FEF775FA04466F
:102B5000002002F0FBFE002C0CBF20466FF092001C
:102B600008B070BD005004500051045010B5044628
:102B7000012002F0EBFE064B0649C3F8004506486B
:102B8000FEF75AFA0446002002F0E0FE204610BD8F
:102B90000050045008510450085004500FB430B590
:102BA00087B00AAC54F8045B01941022002102A8FB
:102BB00004F0CEFA02238DF80A30064B224629464D
:102BC00002A8039302F058FF07B0BDE8304004B0FC
:102BD000704700BFC90400001FB50A4B6A461C6A53
:102BE0001023A1682046103903F034F9034628B1B8
:102BF000227845210448FFF7D1FF0024204604B085
:102C000010BD00BF10160020E58B000000222DE94A
:102C1000F04F8FB00446CDE9082203F07CF8DFF8CE
:102C20008081002840D05F4DD8F80030AB4206D1FB
:102C3000104609A9FFF7FCFA08B104F081FAD8F8A8
:102C40002C30AB4205D1012008A9FFF7F1FA00288A
:102C5000F3D1DDE90835AB4284BF1D460993A56079
:102C60004FF0000949215048FFF798FFD8F8243069
:102C70005F684B463B44AB424E4609F10109F9D32C
:102C8000204603F048F8002837D040F21622D8F842
:102C90005C30D8F82850534300225033013D3A4469
:102CA0009A420ED2013DFAE7FFF796FF0028C4D002
:102CB00004F1080103F0E4F80028BED1A5680995E5
:102CC000CEE74D4519D857213848FFF767FFB21CAA
:102CD00007FB05F357217A433548FFF75FFF0123D0
:102CE000E371344B1A68002A03DD57213248FFF79D
:102CF00055FF00200FB0BDE8F08FD8F82050002D10
:102D00009BD0D8F84C60002E97D063682B4A03F014
:102D1000FF2393423CD12368012B39D130460AA9C5
:102D2000FFF72CFA002888D19DF82820012A35D0F9
:102D3000234B2449032A08BF0B469DF82B20492129
:102D400002929DF82A20204801929DF829200092A5
:102D50001E4AFFF723FF9DF82830032B18D1304679
:102D6000FEF750FD00287FF468AF304603F069FCA1
:102D700000287FF462AF3046A16803F053FC0028BE
:102D80007FF45BAF3046FEF713F800287FF455AFB1
:102D90006379012B40F0A480CB469BE00C4BCCE741
:102DA000101600203DB8F396208C0000498C0000DE
:102DB000788C00002C070020FA8C00000001000431
:102DC0001C8C0000168C0000B98C0000A98C00003F
:102DD000118C00002368C3F101024A445A4577D39D
:102DE000D8F82420012B52F83B10D2F800A002EBB7
:102DF000CB0252F8082C0491A2EB0A02A1EB0A01C3
:102E000005910692079342D1E268022A39D02846FA
:102E1000FEF7F8FC00287FF410AFD8F84C000CA99E
:102E2000FFF7ACF900287FF408AFE279012A11D04E
:102E30000E2A3FF602AF8DF82820A96828462039CF
:102E400021F00F01079B0AAA203903F0BFFB0028DD
:102E50007FF4F3AE9DF83330012B05D1284603F003
:102E6000F0FB00287FF4E9AE2846A16803F0DAFB06
:102E700000287FF4E2AE2846FDF79AFF00287FF491
:102E8000DCAE3046FEF7BEFC00287FF4D6AEAB6861
:102E9000059A9A42BFF4D1AE9A44049BAAEB030A66
:102EA00057453FF6CAAE134629462846069A00976C
:102EB000FEF77CFC00287FF4C0AE2046FFF7FEF949
:102EC00023680133236018B13C4A1368013313604F
:102ED0000BF1FF3BBBF1000F7FF47CAF01232360BC
:102EE00002234FF00108DFF8D8B06371C8453FF600
:102EF000F8AE236843455ED8DBF824204FEAC803C8
:102F000052F83810083B0791DBF85010D2F800A0B7
:102F1000C85809680590069101460698091A049157
:102F20002179012945D1D158AA68A1EB0A0393421E
:102F3000BFF483AE5244521A97423FF67EAE294602
:102F40003046049A0097FEF731FC00287FF475AEF6
:102F50002046FFF7B3F90223237118B1174A13680B
:102F600001331360B368049A9A42BFF466AE069ABE
:102F70001A441346059A9B1A9F423FF65EAE079A83
:102F800031462846049B0097A2EB0A02FEF70EFC8E
:102F900000287FF452AE2046FFF790F923680133F2
:102FA00023600123237130B1044A13680133136095
:102FB00001E00229D6D008F1010897E72C0700208C
:102FC000101600202DE9F743314E07460D46002428
:102FD000B0464FF02C091DB1284602F09CFE08B106
:102FE000224632E0FFF7F8FD30B901200CB1002F86
:102FF00048D003B0BDE8F08301A902F041FF0346C9
:103000000028F2D1D8F82420019851681A460A44C1
:10301000904203F10103FAD86A79012A0CD1002CFD
:10302000DED128682246984298BF214609FB0282D9
:10303000106AA8B904F084F8022AD1D12A68012ABA
:1030400005D99A42CCD884F001020021EEE7C7D11D
:1030500024B12A79023A18BF0122F6E72246E5E7B1
:103060002023324602F0F6FE0028BED11DB13268A0
:10307000084B9A4208D1631C022B4FF0010406F161
:103080002C06A8D10020B4E74FF0FF30AEE700BF18
:10309000101600203DB8F39608B50548FFF77EFDF1
:1030A0000448FFF77BFD0448FFF778FD002008BDCA
:1030B000298D00005A8D00008D8D0000002210B572
:1030C0000C4B1C7884420FD00132042A03F1100308
:1030D000F7D16FF0010010BDD2685078C00706D557
:1030E000107820B90B60F6E7DA68002AF4D16FF0A7
:1030F0001200F0E76074000030B585B06946012029
:1031000003F01DFC044610B1FF2005B030BD0220C5
:1031100002A903F014FC012808D1224649213048B5
:10312000FFF73CFD2F4B8DF80C40029300229DF8D9
:1031300000109DF808002C4C2378042B06D0052B9A
:103140002ED14B1E18BF0123002B38D06378042BDF
:1031500005D0052B2BD1431E18BF01237BB3A378C9
:10316000042B03D09DF803509D4228D1E378042B13
:1031700003D09DF80B509D4221D12379042B1AD105
:103180006379023BDBB2022B25D9184B1848002289
:103190004921FFF703FD6079831E022BB5D9B3E700
:1031A000A3EB010CDCF1000343EB0C03CCE71D1A8D
:1031B0006B426B41D2E79DF802509D42E0D0013254
:1031C000032A04F10604B7D10A4800224921FFF777
:1031D000E5FC012099E7084A52F82330D6E700BF02
:1031E000CC8D000003010303A68A0000BA8D000005
:1031F000178E00003B8E0000A074000030B53B4BE2
:1032000004465B6800208BB0C3F3080380F3118889
:10321000BFF36F8F02F07F45B5F17F4F08D102F009
:103220000C05082D04D012F0080F0CBF20460846EC
:103230000022033B8DF80720032B03D8DFE803F0BF
:103240000A4C504900209DF80730002B4CD102A9B0
:1032500002F03FFE254BDA6A9107F3D4DA6A002ABE
:10326000F0DBDA6A5200EDD55A69816942F4807266
:103270005A61BFF34F8FBFF36F8F31F8022C59693A
:1032800021F480715961BFF34F8FBFF36F8F02F448
:103290007F43B3F55F4F04D1D2B2022A01D1006857
:1032A000D1E7124B9A6AD2B22AB101210DF107027D
:1032B000FDF704FAC7E79A6A12F47F4F05D001219F
:1032C0000DF10702FDF734FABDE79B6AB3F5803FC5
:1032D000B8D3FDF761FAB6E700210DF10702E7E781
:1032E00000210DF10702EDE70BB030BD00ED00E06D
:1032F00010B572B6002484F31388FDF77BFA2346D9
:103300004FF0FF300C4A03F120010133102B42F83B
:103310002100F8D100234FF0FF30074A03F160018C
:103320000133102B42F82100F8D162B6BFF34F8F62
:10333000BFF36F8F10BD00BF00E100E08FB59D4A65
:103340009D4B22F07F029A60BFF34F8FBFF36F8FC8
:10335000D3F88820994822F47002C3F88820984A4C
:103360000021121A03F0F4FE9648974A9749121A60
:1033700003F010FF9648974A9749121A03F00AFF84
:1033800040F20F14002210B201210132FDF764FA5D
:10339000A242F8D10020FDF78DFD904B03F50062AD
:1033A00082F3088883F30A880021E022824B8C4E46
:1033B00083F82220D97719765976997683F82010E8
:1033C0005A6A42F4E0225A6283F823105A6942F0A2
:1033D00010025A615A6942F480625A615A6922F0B5
:1033E00008025A6110221A614FF0FF329A62DA62C3
:1033F000D3F8902012F47E4F29D0BFF35F8F794A23
:10340000C3F89410C3F8C02002227748C3F898107C
:10341000C3F89C20C3F8A0000120C3F8980000F175
:103420000050C3F89C0000F57F3000F2E230C3F892
:10343000A0003270D3F89000C0F3072082422FDB47
:103440000522C3F89420BFF34F8FBFF36F8F6749F6
:1034500034784D68A4461DB11F2D43D86FF0150474
:1034600001203470FDF726FD0220FDF723FD002327
:1034700083F30B885E4C5F4DA4F5205686F30B88D2
:1034800084F30988002004498847184619461A46DB
:10349000A84702488047FEE7CD690000DB690000CD
:1034A000C3F89820C3F8A0100132C3E7C7F898000A
:1034B0002046D7F8A03003F01F031343C7F8A0300D
:1034C00002F01EFD6FE0C7F89800D7F89C30604608
:1034D00063F30405C7F89C50F2E7D145F3D102F03D
:1034E0000FFDBDE7E806B9D10B68DA06B6D143E8AF
:1034F00000F21D4412F4803F5FFA82F805F1FF3AB2
:1035000008BF6FF015084AE800F2D703D0B2A5D57E
:103510004045A3D14445A1DD274FC7F89880D7F88F
:103520009C20C7F89880D7F8A09022F01F02934201
:1035300049F01F09D1D0013BD14523F01F02B5D07E
:10354000C7F89880D7F8A030204603F01F03134334
:10355000C7F8A03002F0D4FC10F1160F3FF47EAF94
:10356000C7F89880D7F89C209DF8083009F1FF39FA
:1035700062F304038DF80830D7F8A030009525F0E9
:103580001F059DF808204D445B08A5EB0A05013096
:1035900063F3471225F01F056946C0B28DF8082075
:1035A0000395FDF779F910F1160F3FF457AF441C5E
:1035B00056E700BF0000000000ED00E09002002090
:1035C00054200020A000002090020020489B000012
:1035D00060000020A0000020089B00005848002048
:1035E00053200020AAFF4400E1CF170048880000C4
:1035F00058480020114B000008B50548FFF7CEFAE7
:10360000002383F31188BFF36F8F0423184602DF72
:10361000618E000008B501233F4A4048C2F80038D7
:103620003F4AD2F840231C2A04BF3E4AC2F80C3459
:10363000FDF7F0FB0830FDF7EDFB0830FDF7EAFB86
:103640000830FDF7E7FB00F5F470FDF7E3FB364AC1
:10365000D2F88C3043F44063C2F88C300022D3009F
:1036600003F57F0303F54043D3F8001401310AD07A
:10367000D3F8001439B1D3F800140132D3F804346C
:10368000402A0B60EBD1244BD3F84024002A3ED0D3
:10369000FDF7B0FB48B1224BD3F83423234B9A42B9
:1036A0009EBF1D4B224AC3F84026FDF7A3FB18B16D
:1036B000204B214AC3F8AC27FDF79CFB48B13422CC
:1036C000154BC3F82426D3F83C2622F40022C3F875
:1036D0003C261A4BD3F80026D20744BF6FF00102F4
:1036E000C3F80026164BD3F8182522F00302C3F8BE
:1036F0001825D3F8182542F00302C3F818250A4A02
:10370000D2F88C3043F44063C2F88C3008BDC82234
:10371000C3F84024BCE700BF0000125000C50D50A4
:1037200000C0FF000030055000ED00E0001D0A1849
:1037300040E0A91E00A0085078000A0400E01050E4
:1037400000B00450074A1368591C11604BB9064A6F
:103750004820D2F8003443F00703C2F80034FDF7E4
:103760005BB87047B40700200080045010B5124BBE
:103770001C68013C1C60ECB94820FDF75BF807228F
:103780000E4BC3F80823D3F8002422F00702C3F835
:103790000024C3F80041D3F80021C3F80441D3F852
:1037A00004214FF48072C3F80841D3F80831044B68
:1037B000C3F8882110BD00BFB4070020008004506A
:1037C00000E100E0BFF35F8F4FF0A3430022DA6116
:1037D000BFF35F8FBFF35F8F4FF0FF321A63BFF30A
:1037E0005F8FBFF35F8F3422DA61BFF35F8F0122F7
:1037F000014BC3F804237047008004500368DA6863
:10380000D203FCD4DB6825481840B0F5806F30D077
:1038100016D840282FD008D810282ED020282ED0F7
:10382000003818BF012040007047B0F5807F28D0D5
:10383000B0F5007F27D0802814BF02200B207047EE
:10384000B0F5804F21D00BD8B0F5805F1FD0B0F518
:10385000005F1ED0B0F5006F14BF02200620704735
:10386000B0F5004F17D0B0F5803F14BF0220032001
:103870007047112070470A2070470C2070470920BC
:1038800070470820704707207047142070470520B4
:103890007047042070470F20704700BFF0FF010001
:1038A00038B50025124B04461A68036102605A6855
:1038B00042609A6882600F4A9A668564FFF742FF09
:1038C00004220D4BC3F804230C4A2368D968C903AA
:1038D00007D403F580535B6A13F4A02F01D138BDE0
:1038E00020BF1368002BFBD0136813681560ECE74A
:1038F000B8070020A873000000800450F8020020E0
:10390000042210B50446054BC3F80823FFF72EFF29
:103910002369034A9A660023636410BD0080045043
:10392000A87300002DE9F04393B004460026FFF78A
:1039300009FFFFF747FF0DF11F05234F25F01F0576
:1039400001231022214911F8010D013A03440B70A3
:103950004FEA1323F7D1A81901F006FFA9468046C4
:1039600038B1FFF703FF404613B0BDE8F04302F063
:1039700086BFD7E90C321036013342F10002302EF7
:10398000C7E90C32DCD1FFF7F1FE54B104F130028B
:1039900099F8003014F8011B4B40A24209F8013B92
:1039A000F6D12E46084C0FCE0FC496E80F002035F6
:1039B00084E80F0095E80F00103484E80F00002021
:1039C00013B0BDE8F08300BF98020020C8020020B9
:1039D00038B52B4B1B7843B12A4B1A68002A41D0CB
:1039E0001A6819680021196032B9BFF35F8F4FF070
:1039F000A3439A6ABFF35F8FBFF35F8F4FF0A34477
:103A0000E36BBFF35F8F12F0240F03F023032BD07F
:103A1000BFF35F8FE569BFF35F8FBFF35F8F102345
:103A20006363BFF35F8F184B1868184BB0FBF3F05C
:103A3000174B43F001039847BFF35F8F0023636385
:103A4000BFF35F8FBFF35F8FE36BBFF35F8F5B06E7
:103A5000F8D425B1BFF35F8FE561BFF35F8F6FF0DF
:103A60001F0038BD20BFB8E74FF0FF30002BF8D162
:103A7000BFF35F8F2063BFF35F8F1846F1E700BF8E
:103A800052200020FC0200204802002040420F008B
:103A900080730000BFF35F8F094A1368BFF35F8F25
:103AA00043F48071BFF35F8F1160BFF35F8F23F426
:103AB0008073BFF35F8F1360BFF35F8F704700BFEA
:103AC0000010805138B5044602F01AF9256885B90E
:103AD0004FF412722946201D03F03AFB084B28468A
:103AE00063608023C4F8C431052384F848522360FE
:103AF00038BD204603F011F86FF08800F8E700BFEA
:103B0000608800002DE9F04FAA4D91B06A782B78BB
:103B1000022A02D1072B00F0A6809A0706D40121C1
:103B2000A54A43F0020382F8C0122B7013F001047F
:103B300040F09080A14FDFF888823B68434500F059
:103B40000681FFF7FFFD9F4B01211C609E4B482023
:103B50001C609E4AFCF780FE9D4B9E4952F8040B68
:103B600043F8040B8B42F9D19B4C9C4B246123609E
:103B700003F5C0436360FDF7CFFB236DF820B3F579
:103B8000007FCCBF4FF480634FF40073A36002F05A
:103B900009FC28B9F92002F005FC002800F0CF80CC
:103BA00008AE2021304601F02DFE0446002848D101
:103BB0004FF4807301AC2046019302F0FCF8DDF86D
:103BC000049002F039FE002840F0A58019F00303AC
:103BD000009040F0AE801A46184619464FF0010A90
:103BE000DFF8FCC15CF804EB19EA0E0F07D00AFA03
:103BF00002F00143012001F07F0143EA0E0301328C
:103C0000072AEFD128B19DF8032061F347028DF810
:103C1000032039EA030340F08F80BDF80230F8201A
:103C200023F4F87343F0C003ADF8023002F0BAFB9E
:103C3000F0B96FF08A042021304602F062FF002CB8
:103C40007DD0FFF793FD2A7842F001032B70002C02
:103C500040F082806A780AB902226A705C075CBF11
:103C600043F004032B700024204611B0BDE8F08F10
:103C7000F92002F097FB0028DBD00221F820FEF7A4
:103C80004BFF8346002846D14FF0010A554BCDF833
:103C900014A00693009B079396E80F0084E80F009A
:103CA000504601F053FEF8234F4A5049C2F8003500
:103CB0001046C2F80445FDF7BFF98146584601F0A9
:103CC00045FEB9F1000F24D11C21204602F019FF56
:103CD0004FF0FF33DFF818C1CDF814A0CDE906C3CB
:103CE00010AB13E90F0084E80F00504601F02EFEE0
:103CF000F9233D4A3D49C2F800351046C2F8044553
:103D0000FDF79AF98246484601F020FEBAF1000F0D
:103D100004D002F091FD6FF092048CE720461C2144
:103D200002F0EFFEBA20FEF721FF0446002882D001
:103D3000F1E76FF086047EE76FF085047BE7FDF71F
:103D4000FDF90446FFF712FD1CB9C7F800800024F6
:103D500079E76FF0920476E7500742BF22F0040241
:103D600042F001032B70990717D5134E1027B04668
:103D70004FF0010A4FF003093046C6F820A086F83C
:103D80001C9002F0BCFB013F06F12C06F4D12B780D
:103D900088F8C07223F002032B7000230421154819
:103DA0006B70FDF709F92B78DA0744BF23F00103A4
:103DB0002B7059E7E80A0020240800202002002088
:103DC00011736500FC020020F8020020BC740000A2
:103DD00000C080511CD38051B807002000208051C2
:103DE000D887000040008151005004500051045019
:103DF00050008151EC0A00206029F8B504460E46B7
:103E00002CD80378033303F00303012B21D86FF080
:103E1000210002F034FD054640B9124932462046E1
:103E200003F0B8F960210F4802F06BFE2846F8BD98
:103E300063780D492B440D48C7F80035FDF7FCF8B1
:103E400050B901352378C3F382039D42F0D300209B
:103E5000DFE70025064FF5E70220DAE76FF0890576
:103E6000E4E700BF00000020045104500450045057
:103E7000005004502DE9F04F88461D46864953688E
:103E800085B0B1EB132F1446DDE90E7A06464FEAF2
:103E9000132203D0814B9A4240F0F780804BF318F5
:103EA00068F10002032B72F10002C0F0F180029B66
:103EB0003046C3F30D0302A9029302F06CFB48B92C
:103EC000B6F1F80348F1FF38022B78F1000804D26C
:103ED0006FF0860005B0BDE8F08F9DF80B10029BD7
:103EE00049089DF80A90BDF80A800191C3F3853B0B
:103EF00002F0A2FCC9F302190199C8F3C11810B16C
:103F00006FF09200E6E79DF8080010F00F0340F014
:103F1000B08008F1FF32D2B2022A00F2AD80DFF8A1
:103F200084C100F030081CF802C05F4AB8F1100FDD
:103F30004CEA020262602AD15C4B2360204603A94E
:103F4000FDF7BCF80028C3D1039B9F42C0F09A80C4
:103F500044F21212218809F1FF39914204BF042270
:103F600005F8012BCAF800309DF808302A78C3F311
:103F7000011363F3010208BF07F1FF372A70B9F19B
:103F8000050F3BD8DFE809F06E5E5E5E47668C4643
:103F90001846474ABCF1000F1CD1039003A801F05A
:103FA0000AFF039BBBF1280FA360A9D147F242127D
:103FB00013F4A05F44F2421318BF134623803D4B15
:103FC000E36009F1FF33052B18D8DFE803F0220F77
:103FD0001A1C171F1CF0010F04D0062B4FD852F8E3
:103FE000231008434FEA5C0C0133D3E7C0236380FE
:103FF000B8F1000FA2D16FF096006BE76FF0980058
:1040000068E7FF23F3E74FF48073F0E74FF4C073E2
:10401000EDE78023EBE703232A78B8F1200F08BFF0
:10402000023363F384022A706E70238803F44F42D4
:10403000B2F5824F18D13946284605B0BDE8F04F99
:10404000FFF7DABE44F212122388934214BF022310
:104050000423E1E744F21212238893420CBF0623A3
:104060000323D9E70123D7E7B3F5885F7FF432AFA5
:10407000E1E76FF088002DE76FF091002AE76FF01D
:10408000830027E76FF0890024E76FF08B0021E7BA
:104090006FF085001EE700BF004E80004B4E800091
:1040A000FF3F0080B88A0000004B4E800110800165
:1040B000D8870000000800060023F0B50E468DB03A
:1040C0000B607649054691F8C032002B00F0D08095
:1040D00000F140430F2B63D82C2202FB03110B7F0E
:1040E000022B03D14B69984200F0CE80314600206C
:1040F000FDF730FC0446002840F0CD8001223368F3
:1041000001465D61336805A85A6035681C2203F0DA
:104110001FF86B69624903F14042A2F580528A425E
:10412000CDE9024400F29E805E4A934251D00132B2
:1041300093424ED0023A93424BD0DFB2384604A9A4
:1041400002F029FA044600BBBDF81230C3F3C113D4
:10415000013BDBB2022B00F28280534AD35C534A0C
:104160001A4303B16B690A93002306923846194635
:10417000CDE9003305AAFFF77DFE10F18A0F044652
:104180002AD0002808BF6FF09604306802F0B7F913
:1041900014F18C0F08BF6FF08704002333607AE0BE
:1041A0006FF040420138904205D3A3F58053A2F549
:1041B000005293425FD80023384A107F022802D170
:1041C000506985425DD00133102B02F12C02F4D1ED
:1041D0008CE71F46364AC6E7069B36491A0AB1EBFA
:1041E000132F02D0344B9A4239D102A905A8FCF70B
:1041F00065FF002833D128460299FCF7F5FE0446F6
:104200000028C2D103AB0193AB6A21460093384624
:104210006B6A05AAFFF72EFE044640B1686A10B12A
:10422000A96AFCF7D3FE0023C5E90933ADE7039B78
:1042300005ACAB620FCC0FC594E8070085E807001A
:104240003068083001F0B7FD33681A7F012A0CD0BE
:10425000306802F09AF8E8B16FF096049DE76FF0CD
:10426000860492E76FF08B048FE702221A77EFE75C
:104270006FF088040FE06FF087040CE06FF0960495
:1042800009E02C2202FB0311084602F07EF8002808
:10429000F4D13160002420460DB0F0BD2408002088
:1042A000FFDFFF3F02C0FF7FB88A0000004B4E8057
:1042B00003004E80004E80004B4E80002DE9F04FF1
:1042C00080460025ADF5537D3FAC20460691FFF7B3
:1042D000F9FBB8F80830B8F80A20D8F80C70134485
:1042E0001F44AF4200F283801FA9204602F024FC45
:1042F000204602F012FCD8F80C30B8F808502246DC
:104300001D4429460423069801F0A4FD09900028C5
:104310007DD146F608122188B8F80A30914240F063
:1043200084806188994272D10423224606982944E8
:1043300001F090FD00286AD146F6071322889A42C0
:1043400065D1B8F80A30A1482B440793079A6388CF
:10435000C16D13440A93436A5A6840F2162303FB63
:10436000012153424F311940836A406D013B534351
:1043700042435B1A521A934228BF13460A9A9A4242
:1043800045D82B1D4FF0FF352C4605930A9B059A07
:10439000934240F23B83B8F80A3023B1079B934223
:1043A00004BF043305930423DDE905103FAA01F09F
:1043B00051FD60BB059ABDF8FC30111D079ABDF890
:1043C000FE708A4208D84FF6FF76814830F8022BFB
:1043D000B2421CD09A42F9D1122B29D0242B5CD0A6
:1043E000012B38D0059B04373B440593CEE77E1B59
:1043F000B6F5807F28BF4FF4807629463346754A4C
:10440000069801F027FD48B1204602F086FB4FF0E8
:10441000FF3420460DF5537DBDE8F08F324620462F
:104420006C4902F0D5FB35445BE7002B84D0EEE706
:10443000402FECD13B4606980FAA01F00BFD002857
:10444000E5D13A460FA91FA802F0B8FE0028DED138
:1044500001230993C6E7402FD9D83B4606980FAAF7
:1044600001F0F8FC0028D2D13FA8FFF72BFB2C224B
:1044700059493FA802F0ACFB2FA93FA802F05CFB12
:104480003FA802F04AFB3A460FA92FA802F096FE79
:10449000051E18BF01256D42A4E7002DA2D1402FB3
:1044A000B5D13B4606980FAA01F0D4FC0028AED146
:1044B00049490CAC0C91302320460DAA2C3101F057
:1044C00066FC00287DD113680C9E20461E443146B0
:1044D00030230EAA01F05BFC002872D10C9BF11A6C
:1044E00000296EDD1268197803EB020B00232F916F
:1044F000CDE9303359460623204630AA01F047FC67
:1045000000285ED1DDF83090309D0DF1FC0A09EBFA
:1045100005039B450C933ED10C215046FCF74CFD06
:10452000032D4ED12A4648462C4902F047FE00286A
:1045300047D10DF1340A0DF1300B2B46524631466E
:10454000584601F024FC00283BD1DAF80020002A6C
:1045500037D00C9C531E2178CAF8003089BB224406
:1045600004F101099642CDF830902AD1202B0B930B
:1045700027D10DF1FC0B1C225846089102F0E8FDF2
:10458000FFF7C0FA089902460B9B58B3452114481F
:10459000FEF704FB15E019F805200CACCAF8002062
:1045A00001335946204640AA0C9301F0C1FB40B9A3
:1045B0000C9BDAF80420CAF8083013449B450C938E
:1045C000AED04FF0FF344FF0FF350BE71016002050
:1045D000488A000052170020768A0000A28A000054
:1045E0006A8E000044F24212ABF800204FF40062E1
:1045F0002FA80B9108932F9201F0DDFB089B066812
:10460000AB4A0B990E93BBF80230CBF80860CBF89D
:104610000C20CAF8001013B1FF2B40F02E8104F1DA
:10462000200314F8012FA34241EA0201F9D1002925
:1046300000F023819DF800A1BAF1FF0F04D0449B44
:10464000BAF1000F03D123B16FF0860363E0002BB2
:10465000FAD026F0031626F47F46002EF4D1BAF1E4
:10466000000F55D12FA80DAC2146FDF773F9089026
:1046700000284FD10D9C0DF1FC0BA446DE46BEE890
:104680000F00ACE80F009EE807008CE80700BAF1C5
:10469000000F01D12F9B6361A26A002A45D02146F9
:1046A0006388DDF800C1DFF80CE22F93BEEB1C2F0E
:1046B0000DF1BC0B0DF1FC0A626A51F8283F4FEA7C
:1046C0001C2000F0C880DFF8F0C1604500F0C38016
:1046D0000028B9D1CDE9001B504649460B9202F0A3
:1046E0001FFC10F1860F03460B9A40F0BC80BAF80D
:1046F000003003F4E041B1F5805F31D0B1F5005FE7
:1047000004BF4FF48073CBF800306FF0850302E0F4
:104710003046A8E7089B0D9818B1089301F0EFFE0A
:10472000089B1A464521654832E7DBF804301B0A2E
:1047300007D120460E99FCF757FC03460028AED05F
:10474000E9E70E925B4A0EA9934203D04B329342A3
:104750007FF47AAF3FA8FCF7B1FC0028E9D073E7FB
:104760004FF48071CBF8001041F206218B42CCD877
:10477000B3F5905F65D241F201018B4202D0B3F5EF
:10478000885FC2D109F1200359F8041B994542F80A
:10479000041BF9D12023A36262882FA90B68002A89
:1047A00064D163804FF6F8730A689A42ADD8BDF8B9
:1047B000FC203FAB1AB1208890427FF445AF5B8864
:1047C0001BB162889A427FF43FAF94F81CB0D4F8D2
:1047D0001490BBF1010F4DD1022348462377FFF718
:1047E0006BFC2FA9824600284AD052464521344806
:1047F000FEF7D4F9B9F1000F00F003810EAC2146A9
:104800004846FFF759FC8246A8B90E9C237F022B2D
:1048100040F0EA80032360682377C1B2FF2940F0AB
:1048200080806FF0840A204601F089FE002800F0A5
:10483000E4806FF0960A524657212248FEF7AEF9FF
:10484000DFE06921A3F590539BB221FA03F3D90766
:104850007FF55BAF96E72FA8CDE90010494650469B
:1048600002F05EFB0346002B96D054E79A427FF499
:10487000EBAE97E76FF096034DE76FF0860350E7D6
:104880000C68A3681B050DD5B4F800A05A46504625
:10489000E16800F0EFFDB8B95A465046216900F0D2
:1048A000E9FD88B9204601F04AFE6FF0840A9CE7D2
:1048B00000080006004E80004B4E80008A8E0000EB
:1048C000AC8E0000DA8E000062685349130AB1EB27
:1048D000122F06D0514A934203D013B16FF0850ACC
:1048E00011E00AF44F4ABAF5824FF7D10FAB0293A9
:1048F000402301931FAB00932146D4E909230120F3
:1049000000F0C0FD8246204601F019FEBAF1000F0A
:104910007FF46BAF10B16FF0960A66E7012308933E
:1049200068E76269DFF8F8C002F14043A3F58053FD
:1049300063453FF678AF394BB3EB102F57D10329BE
:104940003FF46FAF5FFA82F90DF1BC0B5946484650
:1049500001F021FE824600287FF465AF9BF802300B
:10496000C3F30213013B052B3BD8DFE803F0380308
:1049700003030A3144F2121325889D4214BF022515
:1049800004259BF8003003F03003202B00D10235C2
:10499000DFF890A006EB090323492448CAF8003544
:1049A000FCF74AFB00287FF43CAF0136B542F1D159
:1049B000FCF7C4FB18B960211D4802F0A2F831468B
:1049C0004846FEF7A9F8A8B901F036FF82462AE763
:1049D00044F2121322889A4208BF0625D1E7012526
:1049E000CFE76FF0980A1EE76FF0960A1BE76FF0AB
:1049F000850A18E76FF0920A15E7BAF1000F7FF405
:104A00001AAF089B83F001046442DCE5099B012B8B
:104A10007FF4FDACFDE400BF004E80004B4E8000F3
:104A2000FFDFFF3F00500450045104500450045075
:104A3000000000202DE9F0474FF02C0808FB00F89B
:104A4000DFF8B490044609EB0806376A8A460FB9C6
:104A500002F076FB454205F02C054D440422294620
:104A6000384601F075FB10B93069C3061BD5BCB1DF
:104A70003846FCF7C7FE9AF80730042B0CD1D9F85A
:104A800020000028E4D0FCF7BDFE024640B94921D1
:104A90001A48FEF783F803E0FEF72EFB0428EED059
:104AA0000120BDE8F087316A0029D1D059F80820EB
:104AB000134B9A4204D0BCB9124A45211248E8E788
:104AC000F26833899B18F6D27289D218F3D28B68B8
:104AD0009A42F0D240F60C631842ECD12846FFF718
:104AE000EDFB0028DDD0E6E70023BA68194638461A
:104AF00001F0C6FC054AE0E7101600200A8F00000E
:104B00003DB8F396F88E0000498F0000008F00003A
:104B100001252DE98048A14B91B003201D70FCF7C1
:104B2000C9F90420FCF7C6F949219D48FEF736F87B
:104B300049219C48FEF732F89B4C60220021204618
:104B400002F006FB284604F12001FEF7B7FA002820
:104B500040F0CE80022004F14C01FEF7AFFA0028AD
:104B600040F0C680B226914A284602F5B2630CA9ED
:104B7000626223650C9602F099FAD0B1B2225721F5
:104B80008B48FEF70BF801239D4284F8583022D160
:104B9000854D95F85830042B8DF8373000F2C881D8
:104BA000012B00F2CC8100F0DF81FF2385F8583023
:104BB000DAE10C9B0220226D0CA9A3620C9602F094
:104BC00075FA08B10925D9E70C9B6365236AD86893
:104BD00001F0FDF8E06500210846FEF7F3F928B181
:104BE000002257217348FDF7D9FF0AE0A66A656DD8
:104BF000AE420BD06B1C9E4208D057216E48FDF789
:104C0000CDFF0122684B83F85820C1E7B22E71D83E
:104C100000231F46626A216D043204319D426CD12B
:104C2000236AD86801F0D3F8E36CD86801F0CFF8B4
:104C3000AE4205D9636A03EBC5035B68BB4262D130
:104C400001230C9303F101230D930023206A08A98B
:104C5000CDE90E33FDF792FA002849D19DF82020C6
:104C6000012A55D0554B5649032A08BF0B469DF8DB
:104C70002320492102929DF82220524801929DF85A
:104C800021200092504AFDF789FFE06C0AA9FDF748
:104C900075FA804660BB9DF82820012A3AD0474B20
:104CA0004749032A08BF0B469DF82B204921029251
:104CB0009DF82A20434801929DF829200092434AFA
:104CC000FDF76CFF9DF82090B9F1010F24D19DF8FC
:104CD0002230032B20D19DF82830012B1CD04921F4
:104CE0003B48FDF75BFF0223266A0F93002E7BD122
:104CF00002F026FA5721374881E752F8337051F80D
:104D00003300874202D05721334878E7013385E7E3
:104D1000324BACE7314BC7E749213148FDF73EFF45
:104D200000230F930CA800F0F6FF80F001000CA9FF
:104D3000C0B2FEF747F9054600287FF451AF0CA832
:104D400000F0E9FF184E002840F0D3800CA8FDF7D2
:104D50005DFF9DF8373086F85830033B012B06D8AD
:104D600001F0FEFD18B1FF23054686F858309DF886
:104D70003730023B022B06D801F00AFE054610B17F
:104D8000FF2386F8583096F85830FF2B40F0A68065
:104D900045211448FDF702FFAAE700BF522000207A
:104DA000718F00008A8F000010160020F00A00208A
:104DB000BA8F0000FC8F0000289000001C8C0000BF
:104DC000168C0000B98C0000BB900000A98C00007C
:104DD000C9900000609000008F900000118C0000CE
:104DE000E89000004C9100003378013B012B71D812
:104DF000F06840F21627D4F85CB000F0E8FF784382
:104E0000B36850308342FFF473AF1B1A04934FF022
:104E1000FF354B46B9465FFA8BFB0693049BCDF8F2
:104E2000149009F1FF3919FB0B31304601230AAA0E
:104E300001F010F8031E07934CDB012230460AA94B
:104E400001F086F9079B90B3069A9A4201D008F1C7
:104E50000108013FE1D1B8F1010F03DD45215648BA
:104E6000FDF79CFE691C07D0B12D26DC40F2011332
:104E700001350C95ADF83430B1680123203921F0AB
:104E80000F0130460AAA203900F0E4FF10BB0122CE
:104E900030460AA901F05CF910B101238DF82830E1
:104EA0009DF8283003F00F038DF837303AE7059A64
:104EB000B5F1FF3F08BF1546CBE70223B23D8DF8A1
:104EC00035306B1005F00105013301350C938DF879
:104ED0003450D1E700225721384884E6002D7FF472
:104EE00007AF29462846FEF76DF800283FF489AE43
:104EF000FEE69DF83770012F0ED1FEF7FDF8831EF8
:104F0000022B054604D838460CA9FFF793FD00B9DB
:104F1000284686F858003BE601200CA9FFF78AFDD9
:104F200018B1052386F8583032E69DF83730F9E796
:104F3000052B7FF43AAE01F013FDA8B135E60CA8BD
:104F4000FDF764FE95F85830DA1E012A09D801F001
:104F500007FD10B901F01CFD30B1FF2385F8583072
:104F6000C6E6023B012BF5D995F85830FF2B3FF4EC
:104F70000FAF0021012B0A910CD100210846FFF749
:104F800059FD074658B90A9B01330A930A9B012B26
:104F90000DD0FEE70846FEF715F80028EDD04FF0DB
:104FA000FF377FB145210648FDF7F8FDFEE72B6A84
:104FB000D3F804A0F5E700BFFF90000022910000A5
:104FC00058910000524649217C48FDF7E7FDE38AED
:104FD00049210093637D227D7948FDF7DFFD49215A
:104FE0007848FDF7DBFD2389774C784EA04658F8CA
:104FF000045F53443360ED4367234FF0010ADFF849
:10500000D09105F06705C9F82833002D40F0B28033
:10501000E420FBF70FFC6E4BD3F8482722F0010287
:10502000C3F84827D3F8102522F00102C3F8102551
:10503000D3F8102522F00202C3F8102501225A6687
:105040009A662570EFF31182202383F31288BFF351
:105050006F8F6048818E01F00701022940F0A8801F
:10506000C38E013B9BB2C386002B40F0A1801C3055
:10507000FBF730FA584B594A1B684FF47A70B3FB70
:10508000F2F34FF000085843554B4FF0FF3743F011
:10509000010398474FF0010BC146DFF848A15AF8C9
:1050A000044BC4F80873C4F30830FBF7C3FB0021BA
:1050B000C4F82CB0C4F85091D4F85031C4F84C91D5
:1050C000D4F84C31C4F82491D4F82431C4F80095B4
:1050D000D4F804360C93D4F80C360D93D4F810366B
:1050E0000E93D4F808360F93C4F80476C4F80C76FF
:1050F000C4F81076C4F808760CAC54F8040B431CC2
:1051000001D0FBF7CBF901310429F6D108F10108F0
:10511000B8F1030FC3D101224FF0FF31324B5A6077
:10512000DA60C3F80813BFF36F8F72B600232F4AFB
:1051300003F120000133102B42F82010F8D14FF07A
:10514000FF3105F160030135102D42F82310F8D12D
:105150000024274BC3F80444FBF74CFB84F30B8873
:1051600084F30A88234B3068984745212248FDF78D
:1051700015FDFEE7A3680AFA07F202EA030111F03F
:10518000670F1CBF9343A3606368DB4303F06703AF
:1051900013420AD0002209EB0713C3F82C25EA07B3
:1051A00003D54046F9B201F004F86D0801372CE749
:1051B00082F31188BFF36F8F5CE700BF7B91000023
:1051C000AA910000C8910000A000002070160020E5
:1051D00000200E50B01600204802002040420F0070
:1051E00090730000F887000000E0105000E100E03C
:1051F000002008E061000020ED910000F0B5038878
:1052000003F44F42B2F5824F02D0B2F5884F21D15C
:10521000DDB203F4E0421E4BC4681E4600201F7836
:10522000AF4220D1D1F800C0B2F5804F0CBFDF688B
:105230009F68D3F804E0BCF1000F0DD1202F0BD1F3
:10524000C1F800E0142303FB0066337C8BB96FF0D8
:10525000850007E00025DCE7E64504D1202FF1D0EA
:105260006FF08600F0BD0130132803F11403D6D18E
:10527000F6E7422D09D1074B9C4206D003F20B13EF
:105280009C4202D00A339C42EAD10020EAE700BFE8
:10529000C88800000008000641281FD019D822281D
:1052A00009D8112817D91238C3B21948D84000F0CC
:1052B0000100873870472738C3B2092B0BD815482F
:1052C000184100F00100C0F1FF2000F57F007A30A6
:1052D0007047422810D06FF086007047FF2907D032
:1052E000B1F5E07F0CBF6FF085006FF0860070476E
:1052F000094B002013607047FF2907D0B1F5E07F0C
:1053000014BF6FF086006FF085007047034BF0E725
:1053100021020100EEFDFFFFA8880000B888000010
:105320002DE9F843804630264E4CDFF83C91202E84
:105330003746A8BF2027FEF705FAFEF7ABFBBFF301
:105340005F8FE368BFF35F8F9B08013BBFF35F8F05
:10535000A360BFF35F8FBFF35F8F00232364BFF3AE
:105360005F8FBFF35F8FF1226264BFF35F8FBFF384
:105370005F8F4FF400726263BFF35F8FBFF35F8F85
:10538000C4F80090BFF35F8FBFF35F8F226BBFF352
:105390005F8F02F00E010A2955D012F00C0FF3D0E6
:1053A00023BBBFF35F8F6268BFF35F8F032AEBD924
:1053B0002E4B2F4ABFF35F8FD4F88010BFF35F8F5F
:1053C000BFF35F8F43F8041BBFF35F8F9342F1D1AC
:1053D000FEF760FBBFF35F8F2368BFF35F8F43F07F
:1053E0000103BFF35F8F2360BFF35F8F3D46BFF3C1
:1053F0005F8FA268BFF35F8F0132B7EB021F2ED819
:10540000BFF35F8F6268BFF35F8FB7EB820F24D863
:105410004246BFF35F8FD4F88010BFF35F8F101D3B
:1054200002F8011B82424FEA112105F1FF3507D036
:10543000002DF5D1FEF79AF945B16FF03F0609E06E
:10544000002DE6D1F6E7FEF791F974E7F61BB844B4
:105450007FF46DAF3046BDE8F883012394E76FF029
:105460003F05E7E700108051010004001010805153
:105470002010805102480B1A58425841704700BF13
:10548000000800062DE9F047B4B099460B8802AF3A
:1054900023F0FF0ABAF5824F0C469046D7F8F06029
:1054A00008D0BAF5E24F05D06FF08500C837BD4689
:1054B000BDE8F087A26850B912F4005F00F04181A6
:1054C000D8B24228618805D1CB0801330AE012F432
:1054D000006FF3E7CB1D41284FEAD30340F08F80E4
:1054E000002BE1D0073323F00703ADEB030D0023BE
:1054F0003A1D02AD7B60FFF7CFFE0028D6D162686F
:10550000934BB3EB122FCFD0BAF5824F79D14A46E5
:105510004146284601F03EFE7B68D3F80480B8F18E
:10552000200F40F011818B4B07F13C09C7E902368F
:10553000D7F8E8303D617B612223C7E90638D7F808
:10554000EC30C7F820807B620322834BCDF80090BB
:1055500007F11C0107F10C0001F061FA0446002874
:1055600049D107F17C00FEF79BF9D7F88C307B4AD4
:1055700007F17C009A66EA7FF17FD209C9095207D8
:1055800042EA817207F12803754901F0F8FB0446ED
:1055900068BB42464946B86A01F095FA4246F86A45
:1055A00007F15C0101F08FFA3C6B42462046294628
:1055B00001F089FAEB7F424603F07F03E377786BD3
:1055C00006F1200101F07FFABC6B424631462046CD
:1055D00001F079FAF37F07F17C0003F07F03E377B2
:1055E00001F07FFA07F17C00FEF708F9044607F1A5
:1055F0007C00FEF785F9204601F041F956E75B0093
:1056000063E72023C7F8288007F13C0907F17C08ED
:10561000FB6701224146504BCDF8009007F128006E
:1056200001F0FDF90446002840F0848097F83C30F2
:1056300007F17B0123F0070387F83C3097F85B30D4
:1056400003F07F0343F0400387F85B301F23CA1A3F
:10565000013B1470FBD24046FEF722F9D7F88C309C
:10566000404A40469A663E49002207F1280301F06D
:1056700086FB0446002849D120224946B86A01F039
:1056800022FA202207F15C01F86A01F01CFA404678
:1056900001F027FA4046FEF7B1F80446B0BBD7F850
:1056A0008C309A6ED7E9203154681268D20003D545
:1056B000D7F888208A1A134400220EE0E0070AD5A2
:1056C0000B2A01D901F03CFD07F1C80000EB820074
:1056D00040F8383C01320B446410002CEED1D7E97D
:1056E00024E307F15C0203F1200A94461868596824
:1056F0000833ACE8030053456246F6D19EF800201B
:1057000097F87B3043EAC21387F87B304046FEF7B8
:10571000F7F87CB92A4607F15C0C634603CB434596
:10572000106051609C4602F10802F6D140214846C3
:1057300001F0E7F9204601F0A2F800283FF4ECAEB2
:10574000B4E66FF08600B1E66FF09400AEE600BFFD
:10575000004E800060020020608800008088000009
:10576000B8880000948800004FF4807313B501934B
:105770001E4B01AA1A6011221D491E4CC3E90212D8
:1057800040F6110103F110025A601B4AC3E90641B9
:105790001A6120321A62212203F12001596101218C
:1057A000164C5962C3E90A42154A82E813002021C7
:1057B000D160BFF35F8F4FF0A3410B60BFF35F8FEA
:1057C000BFF35F8F0A61BFF35F8FBFF35F8F032368
:1057D0004B63BFF35F8FBFF35F8F8B63BFF35F8F4D
:1057E000FEF7F6F8431CFBD002B010BD1C170020DA
:1057F000040000202000002098020020100000205B
:105800000C1700202DE9F0474D4C96B00DF14F05D7
:1058100001F10F08D4E90C32134307460E4625F078
:105820001F054FEA181829D0D4E90C2318EB0202FF
:1058300043F10003B3F5803F4BD2FDF783FF4FF0F8
:105840000008FDF7BFFF05F11009102201233D49B3
:1058500011F8010D013A03440B704FEA1323F7D1FD
:105860002846FFF781FF8246002849D0FDF77EFFDA
:10587000504616B0BDE8F04701F001B8A26B324BBC
:105880009A42DAD000231A46E2540133402BFBD16E
:105890006846FFF745FDB8B96846FEF743F8B0B96A
:1058A000034602460DF803200133302BFAD10023C2
:1058B0000122C4E90C23244BA36300F0E0FF00287D
:1058C000B2D016B0BDE8F0876FF03F00F5E70E20CC
:1058D000F3E76846FFF724FD78B96846FEF722F83B
:1058E0000028EED103460DF8003001303028FAD1FF
:1058F00000220023C4E90C239FE76FF09200E0E749
:10590000AC4607EB0802634603CB4B451060516081
:105910009C4602F10802F6D1D4E90C3208F11008D5
:10592000013342F100024645C4E90C328DD1FDF746
:105930001DFF002016B0BDE8F047FDF7F3BF00BF24
:1059400098020020C8020020B4A5B4A5034BC3F8F8
:105950000005D3F80024D207FBD5704700B00450EF
:1059600030BFFFF7FDBF00BFEFF30880EFF3098101
:1059700001B57246FDF742FC01BD00BF002080F377
:105980001488BFF36F8F002080F30A8880F30B88A0
:105990000F4880F30888FDF73DFE00200D490860A0
:1059A000BFF34F8FFDF7A4FC202080F311880A4835
:1059B0004FF40061401880F30988EFF3148002214E
:1059C000084380F31488BFF36F8FFDF7B7FC000026
:1059D0005848002094ED00E0584800201EF0040FC5
:1059E0000CBFEFF30880EFF30980816911F8021C06
:1059F0000229FFD001B5724600F0E1FF01BD00BFF2
:105A000008B5024800F018F8FEE700BFD98B000087
:105A100008B5024B1B689847002008BD4C170020B2
:105A2000034B044A1860937843F002039370704765
:105A30004C17002050020020F8B50E4B06461D689A
:105A4000AB789B0712D56F6816F8014B29462CB925
:105A50000A20B847002805DB204609E02046B84761
:105A60000028F1DAAB7843F00403AB704FF0FF305D
:105A7000F8BD00BF448A00002DE9F04F8378154639
:105A800085B007469A07D0F8048040F19F80002631
:105A90000878002800F09C80252808D001F1010A30
:105AA00001363946C047002880F286808AE091F8A6
:105AB00001B001F1020ABBF1250FF1D00024012150
:105AC0001F2C25D8ABF12002102A06D801FA02F0CB
:105AD000824B18420ED1032A5AD0ABF13002092A68
